S0120000415453414D345F4F54412E7372656325
S21440000070600020B12740007928400079284000E1
S21440001079284000792840007928400000000000F8
S21440002000000000000000000000000079284000AA
S21440003079284000000000007928400079284000D8
S21440004079284000792840007928400079284000E7
S21440005079284000792840007928400079284000D7
S21440006079284000050D400000000000C5204000F3
S214400070DD204000F52040007928400079284000E7
S2144000800000000000000000792840007928400069
S2144000907928400079284000792840007928400097
S2144000A07928400079284000792840007928400087
S2144000B07928400079284000792840007928400077
S2144000C079284000792840007928400010B5054C32
S2144000D0237833B9044B13B10448AFF300800123AF
S2144000E0237010BD5409002000000000744A4000F0
S2144000F00C4B43B10C480D4910B5AFF300800C488B
S214400100036823B910BD0A48036833B97047094BE2
S214400110002BF7D0BDE810401847064B002BF5D013
S214400120184700BF00000000744A400058090020ED
S214400130744A40000000000080B483B000AFEFF384
S21440014010837B607B68002B0CBF01230023DBB24F
S2144001503B6072B6BFF35F8F044B00221A703B6859
S21440016018460C37BD4680BC704700BF0B010020C8
S21440017080B483B000AF78607B68002B14BF012347
S2144001800023DBB218460C37BD4680BC70470000E3
S21440019080B582B000AF78607868074B98470346D2
S2144001A0002B05D0054B01221A70BFF35F8F62B655
S2144001B000BF0837BD4680BD710140000B010020DE
S2144001C080B584B000AFF860B9607A607B681B0287
S2144001D003F47062BB68134343F080631946F868C3
S2144001E0034B9847002318461037BD4680BD00BFD6
S2144001F0B500002080B586B000AFF860B9607A6080
S214400200BB680E2B02D0BB680F2B02D14FF0FF33DA
S21440021016E00D4B984778617B681B0223F07F43BE
S21440022023F0FF03BA68D2B2134343F0B4431946EF
S214400230F868064B984738617869054B98473B699C
S21440024018461837BD4680BD39014000CF00002013
S2144002509101400080B483B000AF78607B68DB6873
S21440026018460C37BD4680BC7047000080B588B045
S21440027000AFF860B9607A603B600220204B984738
S2144002807861BB68B3F5A00F12D37B69012B02D10E
S2144002901C4BFB6101E01C4BFB61BB68A3F5A00354
S2144002A05B0A7B83BB689BB2C3F308033B8311E0C6
S2144002B07B69012B02D1144BFB6101E0114BFB61C2
S2144002C0BB68A3F580035B0A7B83BB689BB2C3F322
S2144002D008033B83FB68002B02D0FB68FA691A6070
S2144002E07B68002B02D07B687A8B1A803B68002B99
S2144002F002D03B683A8B1A8000BF2037BD4680BD8F
S214400300C1064000000A0E40000C0E4080B586B084
S21440031000AFF8607B600B467B8113463B81022032
S2144003201A4B98473861FB68194A934212D13B6989
S214400330012B07D17B8903F520535A023B8913448E
S2144003407B6119E07B8903F500535A023B891344CD
S2144003507B6111E03B69012B07D17B8903F5005394
S2144003605A023B8913447B6106E07B8903F52053A0
S2144003705A023B8913447B617B68002B02D07B6822
S2144003807A691A6000BF1837BD4680BDC106400076
S214400390000A0E4080B487B000AFF860B9607A605B
S2144003A03B60FB6823F4FF5323F01F037B61BB686D
S2144003B023F4FF5323F01F0303F5FF531F333B6122
S2144003C07B68002B02D07B687A691A603B68002BFA
S2144003D002D03B683A691A6000BF1C37BD4680BCF5
S2144003E07047000080B582B000AF786039603A68E8
S2144003F079680648064B98473A6879680548044B3A
S2144004009847002318460837BD4680BD000A0E4070
S214400410C1014000000C0E4090B585B000AF78603A
S21440042007F10A0207F10C0000237968084CA04740
S214400430FB687A8911211846064B98470346002BDD
S21440044001D0102300E0002318461437BD4690BD67
S2144004506D024000F501400090B58FB000AFF860E7
S214400460B9607A603B60434BBB6207F1180307F103
S2144004701A0207F11C00F9683F4CA04771E03B8B1D
S214400480C3F500727B68934228BF13467B62F869C7
S214400490798B07F114030022384CA0477B6A9BB245
S2144004A05B429AB23B8BD31A9BB203F500737B84B4
S2144004B07B6919463B8B1A46B86A314B98473B8B4B
S2144004C01A46BB6A13447A6AB96818462C4B984752
S2144004D03B8B1A467B6A1344BA6AD0183B8B1A4643
S2144004E07B691A447B6A134419467B8C1A46244B14
S2144004F098477B69FB6200233B630AE0FB6A1A1D50
S214400500FA621C493A6B51F822201A603B6B013361
S2144005103B633B6B7F2BF1D93B68002B07D0FB69D5
S2144005207A8B03211846174B9847786306E0FB6999
S2144005307A8B01211846134B984778637B6B002BC8
S21440054001D07B6B11E0BA687B6A1344BB607A6863
S2144005507B6AD31A7B607B8B01339BB27B83002301
S2144005603B837B68002B8AD1002318463C37BD4628
S21440057090BD00BF700900206D0240000D03400092
S214400580C93B4000F501400090B58BB000AFF86025
S214400590B9607A603B601023FB8407F1140307F1CF
S2144005A01802B968F8681C4CA0477B68002B02D03C
S2144005B0BA697B681A603B68002B02D07A693B6850
S2144005C01A60B96907F1120207F11C000023134CA8
S2144005D0A047796907F11002002300200F4CA0477E
S2144005E010E0FB697A8A082118460D4B9847386216
S2144005F03B6A002B01D03B6A09E07A8AFB8C1344A5
S2144006009BB27B827A8A3B8A9A42EAD30023184678
S2144006102C37BD4690BD00BF950340006D0240009C
S214400620F501400090B58BB000AFF860B9607A60D5
S2144006303B601023FB8407F1140307F11802B968E6
S214400640F8681C4CA0477B68002B02D0BA697B68D0
S2144006501A603B68002B02D07A693B681A60B96919
S21440066007F1120207F11C000023134CA0477969DA
S21440067007F11002002300200F4CA04710E0FB6952
S2144006807A8A092118460D4B984738623B6A002BF8
S21440069001D03B6A09E07A8AFB8C13449BB27B828A
S2144006A07A8A3B8A9A42EAD3002318462C37BD46BC
S2144006B090BD00BF950340006D024000F50140002C
S2144006C080B584B000AF78607B68022B01D91123D7
S2144006D019E000220D210E480E4B98470346002B8A
S2144006E001D010230FE00A480B4B9847F8600122D0
S2144006F07B6802FA03F31A46FB681340002B01D0CE
S214400700012300E0002318461037BD4680BD00BFD9
S214400710000A0E40F50140005502400080B483B008
S21440072000AF0346FB7197F90730002B0BDB0849F7
S21440073097F907305B09FA7902F01F02012000FAA8
S21440074002F241F8232000BF0C37BD4680BC7047FC
S21440075000E100E080B483B000AF78607B68072B90
S21440076025D801A252F823F0890740008F074000A1
S214400770950740009B0740009F074000A3074000A6
S214400780A7074000AB0740004FF4FA4310E04FF491
S21440079000430DE04FF400430AE0084B08E0084BE6
S2144007A006E0084B04E0074B02E0064B00E000235F
S2144007B018460C37BD4680BC704700BF00093D0058
S2144007C000127A00001BB70080B500AF0620044B2D
S2144007D09847024613469B0013449B00184680BD2C
S2144007E05507400080B500AF024B984703465B086C
S2144007F0184680BDC907400080B500AF024B9847F9
S21440080003465B08184680BDC907400080B582B0E5
S21440081000AF78607868034B984700BF0837BD46FE
S21440082080BD00BF5923400080B58CB000AF7860D3
S2144008303960314B984703467B623B681B68BB6216
S2144008403B689B68FB623B681B68FB603B685B6879
S2144008503B613B689B687B613B68DB68BB61002310
S214400860FB617B68254A934208D10820244B984771
S21440087007F1240319467868224B98477B68224A3A
S214400880934208D109201E4B984707F12403194686
S21440089078681C4B98477B681C4A934211D10E20BF
S2144008A0174B9847144B9847024607F10C031946D6
S2144008B07868174B98477868164B98477868164B71
S2144008C098477B68154A934211D10F200C4B9847A6
S2144008D0094B9847024607F10C03194678680C4BBB
S2144008E0984778680B4B984778680B4B984700BFFB
S2144008F03037BD4680BD00BFF907400000060E40B9
S2144009000D084000D923400000080E400040024039
S21440091081254000052640003526400000800240E4
S21440092080B582B000AF78600B46FB707B68204A8B
S21440093093420AD100BFFB78194678681D4B98470A
S2144009400346002BF7D101232DE07B681A4A9342D9
S2144009500AD100BFFB7819467868164B984703467D
S214400960002BF7D101231EE07B68144A93420AD13C
S21440097000BFFB7819467868114B98470346002B12
S214400980F7D101230FE07B680E4A93420AD100BF9D
S214400990FB78194678680A4B98470346002BF7D1F0
S2144009A0012300E0002318460837BD4680BD00BF3F
S2144009B000060E403924400000080E400040024029
S2144009C0E32640000080024080B584B000AF7860E7
S2144009D039600023FB607B681F4A934207D100BF03
S2144009E0396878681D4B98470346002BF8D17B68DA
S2144009F01B4A934207D100BF39687868174B98471F
S214400A000346002BF8D17B68164A93420DD100BFAF
S214400A1007F10C0319467868134B98470346002B9A
S214400A20F6D1FB68DAB23B681A707B680F4A93428D
S214400A300DD100BF07F10C03194678680A4B98475A
S214400A400346002BF6D1FB68DAB23B681A7000BF4B
S214400A501037BD4680BD00BF00060E4067244000EC
S214400A6000080E400040024013274000008002402D
S214400A7080B582B000AF786039600F4A7B681360FB
S214400A800E4B0F4A1A600F4B0F4A1A603968786847
S214400A900E4B98470E4B1B689B68002118460D4B23
S214400AA098470B4B1B685B6800211846094B9847D4
S214400AB000BF0837BD4680BD3C300020383000209F
S214400AC02109400034300020C90940002908400070
S214400AD010010020D53D400090B585B000AF0C4BCE
S214400AE03C460FCB84E80F0009200A4B98473B460C
S214400AF019460948094B984701210748084B98472B
S214400B000920084B984700BF1437BD4690BD00BF2C
S214400B101C4940000D08400000080E40710A400085
S214400B20652640001D07400080B584B000AF0346F0
S214400B30FB71FF23FB73FB7919460648064B984723
S214400B400346002B01D10023FB73FB7B184610376E
S214400B50BD4680BD00080E4039244000000000001D
S214400B602DE9F04884B000AF7860FF237B73786847
S214400B70294B984703467B810023FB813BE0FB895A
S214400B807A6813441B781846244B984703467B7371
S214400B90234B9847034619464FF000020B4614462F
S214400BA0DB1844EB04045B1844EB0204660146EA97
S214400BB0D3665D015B1944EB06045B1844EB020404
S214400BC013A2D2E9001213EB010B44EB020C584679
S214400BD06146144C144A4FF00003A04703460C46A7
S214400BE01846124B98477B7BFF2B01D17B7B09E055
S214400BF0FB890133FB81FA897B899A42BFD3002364
S214400C007B737B7B18461037BD46BDE8F08800BF37
S214400C107F9FD50000000000813F4000290B400028
S214400C20E5074000F9324000809FD50001010020D2
S214400C3080B485B000AF78600B46FB70FF23FB7333
S214400C402D4B1B88002B03D12C4B1B78012B4CD1F2
S214400C50FB78032B47D801A252F823F06D0C4000D6
S214400C60770C40009B0C4000C10C4000244B1A7887
S214400C707B681A7037E00023BB730AE0BB7B7A6858
S214400C801344BA7B1E490A4452781A70BB7B013320
S214400C90BB73BB7B012BF1D925E00023BB810AE067
S214400CA0BB897A681344BA8915490A44D2781A70BF
S214400CB0BB890133BB81BB89B3F5806FF0D312E0AB
S214400CC00023FB720BE0FB7A7A681344FA7A0C49ED
S214400CD00A4492F803241A70FB7A0133FB72FB7ABB
S214400CE0012BF0D900BF0023FB73FB7B184614375B
S214400CF0BD4680BC704700BF3230002030300020F8
S214400D00280C002080B582B000AF0023FB71384825
S214400D10384B9847034603F00103002B63D0364B0D
S214400D201B889B00354A134419463148344B984734
S214400D30314B1B88002B09D12F4B1B881A462F4B53
S214400D4053F82230DAB22F4B1A703DE02A4B1B88FC
S214400D50022B0ED8284B1B88013B274A1288114687
S214400D60264A52F82120D1B2264A13440A465A70DF
S214400D702AE0214B1B8840F2024293420ED81E4B7B
S214400D801B88033B1C4A128811461C4A52F82120F5
S214400D90D1B21C4A13440A46DA7015E0164B1B883B
S214400DA040F2044293420FD8134B1B88A3F20343EE
S214400DB0114A12881146114A52F82120D1B2114ADE
S214400DC013440A4683F803240B4B1B8840F2034225
S214400DD0934202D90C4B01221A70074B1B880133F1
S214400DE09AB2054B1A8000BF0837BD4680BD00BF8B
S214400DF000080E407F264000323000203010002091
S214400E0045274000280C00203030002080B483B0B6
S214400E1000AF78607B68072B25D801A252F823F0F4
S214400E20410E4000470E40004D0E4000530E40001D
S214400E30570E40005B0E40005F0E4000630E4000C1
S214400E404FF4FA4310E04FF400430DE04FF40043F4
S214400E500AE0084B08E0084B06E0084B04E0074B66
S214400E6002E0064B00E0002318460C37BD4680BC27
S214400E70704700BF00093D0000127A00001BB70013
S214400E8080B500AF0620044B9847024613469B00A9
S214400E9013449B00184680BD0D0E400080B500AF41
S214400EA0024B984703465B08184680BD810E4000BB
S214400EB02DE9F04B82B000AF00237B7100233B71DD
S214400EC07D4B00221A707D4B01221A707C4B7D4A66
S214400ED01A60E7E00023FB70FB1C002118467A4BA3
S214400EE098470346FB71FB78012B02D0FB78022B18
S214400EF002D1714B01221A706F4B1B78002B2DD1FB
S214400F004320724B9847724B9847034619464FF01A
S214400F1000020B461446A60046EA93769D002B46F2
S214400F2034465B1844EB0204DB1844EB04041946D1
S214400F30224643F2AF634FF0000411EB030B42EB43
S214400F40040C58466146634C43F2B0624FF00003CF
S214400F50A04703460C4618465F4B9847FB78013B34
S214400F60172B00F2918001A252F823F0CD0F4000DB
S214400F70CD0F4000891040001910400089104000F5
S214400F8089104000891040008910400089104000B8
S214400F9089104000891040008910400089104000A8
S214400FA08910400089104000891040008910400098
S214400FB08910400089104000891040008910400088
S214400FC0891040008910400083104000434B1B7836
S214400FD0012B64D1FB781846414B98470346BB71BA
S214400FE0BB79002B03D10620384B984757E0BB7996
S214400FF0082B09D103233B713B1D03211846394B6F
S214401000984703467B714AE03B1D03211846354B03
S214401010984703467B7142E006202C4B98472C4B62
S2144010209847034619464FF000020B4614464FEACF
S214401030840949EA93794FEA830843464C465B184D
S21440104044EB0204DB1844EB04041946224643F200
S214401050AF634FF0000411EB030B42EB040C584611
S21440106061461C4C43F2B0624FF00003A047034673
S2144010700C461846184B98471B4B98471B4B9847AF
S21440108010E0FF237B710DE0FB79002B09D13B1D5F
S21440109003211846134B984703467B7101E000BF77
S2144010A000E000BF7B79DBB2002B3FF413AF00BFFC
S2144010B00837BD46BDE8F08B740B00200A010020BF
S2144010C0700B002000304100310C4000290B4000DE
S2144010D09D0E4000F93240000101002030300020D3
S2144010E0651140001D134000FD2F4000CD2F4000ED
S2144010F080B485B000AF78600B467B800023FB81D0
S21440110026E07B88013B7B807B685A1C7A601B7894
S2144011101B021AB2B7F90E3053401BB2FB810023B4
S2144011207B7312E0B7F90E30002B08DAFB895B00C0
S2144011309BB283F4815383F00103FB8102E0FB8979
S2144011405B00FB817B7B01337B737B7B072BE9D981
S2144011507B88002BD5D1FB8918461437BD4680BC0A
S2144011607047000080B5ADF5836D00AF0246FB1DAD
S2144011701A70002387F817340023A7F81434FB1D91
S2144011801B78012B03D18023A7F814340BE0FB1DFA
S2144011901B78022B04D14FF48063A7F8143402E086
S2144011A0FF2387F81734002387F8133407F20C43DD
S2144011B001211846524B984703461A4697F813346F
S2144011C0134387F8133407F10C03022118464C4B9F
S2144011D0984703461A4697F81334134387F8133450
S2144011E007F1080303211846454B984703461A461D
S2144011F097F81334134387F8133407F108031B7822
S2144012001B021AB207F108035B781BB213431BB2EA
S214401210A7F81034B7F8142407F10C031146184603
S214401220384B98470346A7F80E3497F81334002BEC
S21440123005D097F8173443F0040387F8173497F827
S2144012401734002B25D197F80C242F4B1B789A4245
S21440125005D097F8173443F0020387F8173497F809
S2144012600C341A4697F80D341344FF2B05D097F8E4
S214401270173443F0020387F81734B7F80E24B7F84C
S21440128010349A4205D097F8173443F0010387F894
S214401290173497F81734002B14D11C4B1868B7F83E
S2144012A014345B0A9BB21A4607F10C031946184BD6
S2144012B098470346002B05D097F8173443F00803A9
S2144012C087F8173497F81734002B0CD10E4B1B7841
S2144012D00133DAB20C4B1A70B7F814240B4B1B6868
S2144012E013440A4A13600B4B00221A800A4B002212
S2144012F01A7097F81734184607F58367BD4680BDC1
S214401300310C4000F11040000A010020700B002014
S214401310392E4000323000203030002080B584B076
S21440132000AF78600B46FB700023FB737B681B782E
S2144013300133DAB27B681A707B681B78FA789A4277
S21440134008D81820084B98471820074B9847FF2383
S214401350FB7304E01520044B98470023FB73FB7B8C
S21440136018461037BD4680BD290B400080B582B078
S21440137000AF78607B68072B31D801A252F823F083
S214401380DD134000A1134000A9134000B1134000F4
S214401390B9134000C1134000C9134000D3134000A6
S2144013A00020114B98471AE001200F4B984716E053
S2144013B000200E4B984712E010200C4B98470EE04A
S2144013C020200A4B98470AE03E210020084B9847C9
S2144013D005E03E210120064B984700E000BF00BFD5
S2144013E00837BD4680BD00BF8D214000F921400032
S2144013F06922400080B582B000AF78607B68072BDA
S21440140026D801A252F823F0291440002D1440009B
S2144014102D1440003F1440003F1440003F1440004D
S2144014203F1440003F144000012312E00B4B984706
S2144014300346002B14BF01230023DBB209E0084B10
S21440144098470346002B14BF01230023DBB200E07D
S214401450002318460837BD4680BD00BFC521400062
S214401460E122400080B483B000AF78607B68072BF1
S21440147025D801A252F823F0991440009F1440004A
S214401480A5144000AB144000AF144000B314400015
S214401490B7144000BB1440004FF4FA4310E04FF43A
S2144014A000430DE04FF400430AE0084B08E0084BC9
S2144014B006E0084B04E0074B02E0064B00E0002342
S2144014C018460C37BD4680BC704700BF00093D003B
S2144014D000127A00001BB70080B582B000AF03460A
S2144014E0FB7100BFFB791846054B9847034683F0CF
S2144014F00103DBB2002BF5D100BF0837BD4680BDE7
S214401500F513400080B586B000AFF8607A603B6067
S2144015100B46FB72FB7A18460D4B984702467B6893
S214401520B2FBF3F37B617B693A6802FB03F37B61B2
S2144015303B68013B1A04074B13407A68D2B2134308
S21440154043F47C52FB681A6000BF1837BD4680BD26
S214401550651440000000FF0780B582B000AF786099
S21440156039603B68002B08D1094B9847094A7B688D
S2144015701B6843F00053936205E0074B9847054AC3
S2144015807B681B68D36200BF0837BD4680BD00BF7E
S214401590F922400000040E402923400080B582B066
S2144015A000AF78607B68002B03D1054B9847034615
S2144015B002E0044B9847034618460837BD4680BDB0
S2144015C0112340004123400080B582B000AF03465F
S2144015D0FB71FB79033B042B08D8FB791846064B76
S2144015E09847FB791846054B984700E000BF00BF78
S2144015F00837BD4680BD00BF6D134000D91440007B
S21440160080B582B000AF786000BF7868044B9847DA
S2144016100346002BF9D0002318460837BD4680BD48
S2144016209D15400080B500AF0620044B9847024603
S21440163013469B0013449B00184680BD651440002B
S21440164080B500AF024B984703465B08184680BDFE
S2144016502516400090B583B000AF1148114B98470F
S2144016600620114B9847381D1423012206210F4CA3
S214401670A0473B1D002118460D4B984700200D4BB8
S214401680984710200C4B98470C4B98470C4B984764
S21440169003461846034B984700BF0C37BD4690BDDF
S2144016A0000E2707192A4000C915400005154000BE
S2144016B059154000011640000D2140008128400089
S2144016C04116400080B586B000AFF860B9607A60D9
S2144016D000237B61FB68002B12D04FF0FF3313E0F2
S2144016E00B4B1B680B4A1268B96810469847BB6894
S2144016F00133BB607B6901337B617B68013B7B6068
S2144017007B68002BECDC7B6918461837BD4680BDED
S214401710343000203C30002080B586B000AFF86002
S214401720B9607A6000237B61FB68012B1ED0FB68A2
S214401730022B1BD0FB68032B18D04FF0FF3319E069
S2144017400E4B1A680E4B1868BB68591CB9601B785C
S214401750194690470346002B02DA4FF0FF3309E064
S2144017607B6901337B617B68013B7B607B68002B38
S214401770E6D17B6918461837BD4680BD3830002014
S2144017803C30002080B582B000AF78607868034B6C
S214401790984700BF0837BD4680BD00BF592340006C
S2144017A080B500AF0B20054B98470C20034B98475D
S2144017B00D20024B984700BF80BD00BF85174000F4
S2144017C080B48DB000AF786039607B68FB623B6860
S2144017D0BB62FB6A7B627B6A5A09FB6A3B623B6A76
S2144017E003F01F03012101FA03F3FA61BB61BB6AF0
S2144017F07B61FB693B613B6903F5001303F20773AA
S2144018005B02FB607B6903F00803002B03D0FB6898
S214401810BA695A6602E0FB68BA691A667B6903F0E1
S2144018201003002B04D0FB68BA69C3F8942003E089
S214401830FB68BA69C3F890207B6903F02003002B4D
S21440184003D0FB68BA691A6502E0FB68BA695A6554
S2144018507B6903F0C003002B03D0FB68BA691A62A9
S21440186002E0FB68BA695A627B6903F08003002B8A
S21440187004D0FB68BA69C3F8842003E0FB68BA6901
S214401880C3F880207B6903F00103002B06D0FB6879
S2144018901A6FBB691A43FB681A6706E0FB681A6F43
S2144018A0BB69DB431A40FB681A677B6903F0020397
S2144018B0002B06D0FB685A6FBB691A43FB685A6711
S2144018C006E0FB685A6FBB69DB431A40FB685A6701
S2144018D000BF3437BD4680BC704780B48DB000AF83
S2144018E078600B46FB707B68FB62FB7887F82B3092
S2144018F0FB6A7B627B6A3B623B6A5B09FB61FB6916
S21440190003F5001303F207735B02BB6197F82B30B5
S214401910012B09D1FB6A7B617B6903F01F0301221F
S2144019209A40BB691A610CE097F82B30002B08D11F
S214401930FB6A3B613B6903F01F0301229A40BB6987
S2144019405A61FB6AFB60FB6803F01F0301229A4062
S214401950BB69C3F8A02000BF3437BD4680BC704783
S21440196080B48BB000AF78600B46FB707B687B62C0
S214401970FB7887F823307B6AFB61FB69BB61BB69F8
S2144019805B097B617B6903F5001303F207735B0217
S2144019903B6197F82330002B09D07B6AFB60FB68DD
S2144019A003F01F0301229A403B691A6308E07B6AF2
S2144019B0BB60BB6803F01F0301229A403B695A6331
S2144019C000BF2C37BD4680BC7047000080B500AFD6
S2144019D02448254B9847254B984701215720244BB0
S2144019E0984701215720234B984700210220214B3E
S2144019F0984708210220204B9847012154201C4B31
S214401A009847012154201B4B984701211020184B22
S214401A10984701211020174B984701215620144B18
S214401A20984701215620134B98474FF000620C21EF
S214401A301248134B984713490C20134B98471149AB
S214401A400D20114B98470F490E200F4B98474FF0EB
S214401A5000610B200C4B984708210220064B984704
S214401A6000BF80BD50140E4095274000A11740008F
S214401A7061194000DB184000C117400000100E40BE
S214401A80A11E400001000008F11C400080B485B053
S214401A9000AFF860B9607A607B68002B03D0FB68C3
S214401AA0BA685A6602E0FB68BA681A6600BF14371E
S214401AB0BD4680BC704780B487B000AFF860B96060
S214401AC07A60FB687A685A64BB68B3F1C05F4AD0F4
S214401AD0B3F1C05F08D8B3F1006F16D0B3F1805FA2
S214401AE02CD0002B69D064E0B3F1205F65D0B3F111
S214401AF0205F03D8B3F1005F4AD05AE0B3F1405FAD
S214401B005BD0B3F1605F58D053E0FB681B6F7B61DE
S214401B10FB681A6F7B68D9437B690B401A40FB68A9
S214401B201A67FB685B6F7B61FB685A6F7B68D943BB
S214401B307B690B401A40FB685A673AE0FB681B6FAC
S214401B407B617A687B691A43FB681A67FB685B6F40
S214401B507B61FB685A6F7B68D9437B690B401A40B0
S214401B60FB685A6725E0FB681B6F7B61FB681A6F52
S214401B707B68D9437B690B401A40FB681A67FB6851
S214401B805B6F7B617A687B691A43FB685A6710E033
S214401B90FB681B6F7B617A687B691A43FB681A6730
S214401BA0FB685B6F7B617A687B691A43FB685A67A0
S214401BB000BFFB687A685A6000E000BF1C37BD462D
S214401BC080BC704780B584B000AFF860B9607A607A
S214401BD0B968F868194B98477B6803F001031A46C2
S214401BE0B968F868164B98477B6803F00A03002BE1
S214401BF003D0FB68BA681A6202E0FB68BA685A62A9
S214401C007B6803F00203002B04D0FB68BA68C3F875
S214401C10802008E07B6803F00803002B03D0FB68B5
S214401C20BA68C3F88420FB68BA685A61FB68BA6829
S214401C301A6000BF1037BD4680BD00BFA91C4000DB
S214401C408D1A400080B584B000AFF860B9607A6005
S214401C503B60B968F868124B9847BA69B968F86843
S214401C60104B98473B68002B03D0FB68BA681A6550
S214401C7002E0FB68BA685A657B68002B03D0FB68B5
S214401C80BA681A6302E0FB68BA685A63FB68BA68C7
S214401C901A61FB68BA681A6000BF1037BD4680BD3F
S214401CA0A91C40008D1A400080B483B000AF786015
S214401CB039607B683A685A6400BF0C37BD4680BCC2
S214401CC0704780B483B000AF78607B68DB6C1846A2
S214401CD00C37BD4680BC704780B483B000AF786098
S214401CE07B689B6C18460C37BD4680BC704700002E
S214401CF090B587B002AF786039607868634B984794
S214401D00F8603B6803F0F043B3F1005F67D0B3F18F
S214401D10005F09D8B3F1805F2BD0B3F1C05F43D0EA
S214401D20B3F1006F0AD0A9E0B3F1405F7ED0B3F1C3
S214401D30605F7BD0B3F1205F6CD09FE07B6803F0A0
S214401D401F03012202FA03F31A464FF00061F868B7
S214401D504F4B98477B6803F01F03012202FA03F3B8
S214401D6019463B6803F001031A46F868494B984702
S214401D7086E07B6803F01F03012202FA03F31A464B
S214401D804FF08051F868424B98477B6803F01F033A
S214401D90012202FA03F319463B6803F001031A4690
S214401DA0F8683C4B98476BE07B6803F01F030122C2
S214401DB002FA03F31A464FF0C051F868344B98477E
S214401DC07B6803F01F03012202FA03F319463B68BF
S214401DD003F001031A46F8682E4B984750E07B689C
S214401DE003F01F03012202FA03F31A464FF0005194
S214401DF0F868274B98477B6803F01F03012202FAD6
S214401E0003F319463B6803F001031A46F868214B72
S214401E10984735E07B6803F01F03012202FA03F37C
S214401E203A681946F8681C4B984729E07B6803F0E7
S214401E301F03012202FA03F319463B6803F060537E
S214401E40B3F1605F0CBF01230023DBB21A463B6848
S214401E5003F00403002B14BF01230023DBB2184613
S214401E603B6803F00103002B14BF01230023DBB2C1
S214401E7000930346F868094CA04701E0002300E0C1
S214401E80012318461437BD4690BD00BFCD1F400005
S214401E90B71A40008D1A4000C51B4000451C400044
S214401EA090B587B002AFF860B9607A607B6803F09F
S214401EB0F043B3F1005F43D0B3F1005F09D8B3F10C
S214401EC0805F1FD0B3F1C05F2BD0B3F1006F0AD054
S214401ED06DE0B3F1405F48D0B3F1605F45D0B3F1F9
S214401EE0205F3CD063E0BA684FF00061F868334B3F
S214401EF098477B6803F001031A46B968F868304B88
S214401F00984756E0BA684FF08051F8682B4B984790
S214401F107B6803F001031A46B968F868284B98476F
S214401F2047E0BA684FF0C051F868244B98477B6842
S214401F3003F001031A46B968F868214B984738E021
S214401F40BA684FF00051F8681C4B98477B6803F01E
S214401F5001031A46B968F868194B984729E07A6829
S214401F60B968F868174B984723E07B6803F06053DE
S214401F70B3F1605F0CBF01230023DBB21A467B68D7
S214401F8003F00403002B14BF01230023DBB21946E1
S214401F907B6803F00103002B14BF01230023DBB250
S214401FA000930B46B968F868074CA04701E0002349
S214401FB000E0012318461437BD4690BDB71A4000CE
S214401FC08D1A4000C51B4000451C400080B485B0BB
S214401FD000AF78607B685B0903F5001303F2077374
S214401FE05B02FB60FB6818461437BD4680BC7047F2
S214401FF080B584B000AF7860396078682C4B9847DD
S214402000F86078682B4B98470246FB681340FB60A5
S214402010FB68002B3CD00023BB6034E0264ABB68FC
S2144020201B0113441A683B689A4226D1224ABB6871
S2144020301B01134404331A68FB681340002B1CD062
S2144020401D4ABB681B0113440C331B681A49BA6807
S21440205012010A4410681849BA6812010A44043248
S214402060126811469847144ABB681B011344043350
S2144020701B68DB43FA681340FB60BB680133BB60F8
S214402080BB68062B03D8FB68002BC7D100E000BF17
S2144020900A4B1B68002B07D0094B1B68002B03D04C
S2144020A0074B1B687868984700BF1037BD4680BD11
S2144020B0C31C4000D91C4000780B00204030002054
S2144020C0E80B002080B500AF0B210248024B984732
S2144020D000BF80BD000E0E40F11F400080B500AF2F
S2144020E00C210248024B984700BF80BD00100E40AE
S2144020F0F11F400080B500AF0D210248024B9847C3
S21440210000BF80BD00120E40F11F400080B485B075
S21440211000AF78601C491C4B1B6B23F070027B6839
S21440212013430B634FF40063FB6007E0FB68002B30
S21440213001D1012323E0FB68013BFB60124B9B6E01
S21440214003F00803002BF1D00F4A0F4B1B6B23F014
S214402150030343F0020313634FF40063FB6007E09E
S214402160FB68002B01D1012309E0FB68013BFB60C3
S214402170054B9B6E03F00803002BF1D00023184656
S2144021801437BD4680BC704700040E4080B483B010
S21440219000AF78607B68012B07D1084A074B9B68E5
S2144021A043F0254343F480139360044B044A1A607B
S2144021B000BF0C37BD4680BC704700BF10140E40B1
S2144021C0080000A580B400AF094B5B6903F08003AC
S2144021D0002B07D0074B9B6E03F08003002B01D0EB
S2144021E0012300E000231846BD4680BC704700BF70
S2144021F010140E4000040E4080B483B000AF7860E8
S214402200184A184B1B6A43F45C1343F008031362E6
S21440221000BF144B9B6E03F40033002BF9D01149DA
S214402220104B1B6A23F45C1323F070037A68134345
S21440223043F45C130B6200BF0A4B9B6E03F40033FF
S214402240002BF9D0074A074B1B6A23F09B7323F4F5
S214402250803343F45C13136200BF0C37BD4680BC2A
S214402260704700BF00040E4080B483B000AF786073
S21440227039607B68002B08D01649164B1B6A164AF5
S2144022801A40164B13430B621EE01249114B1B6A51
S21440229023F45C1323F003033A68120292B213430A
S2144022A043F45C1343F001030B6200BF094B9B6E83
S2144022B003F00103002BF9D0064A064B1B6A43F095
S2144022C09B7343F48033136200BF0C37BD4680BC1B
S2144022D0704700BF00040E40FCFFC8FE02003701F6
S2144022E080B400AF034B9B6E03F480331846BD4664
S2144022F080BC704700040E4080B400AF034B4FF0E4
S21440230000529A6200BFBD4680BC704700040E4033
S21440231080B400AF034B9B6E03F002031846BD46E5
S21440232080BC704700040E4080B400AF034B0022D0
S214402330DA6200BFBD4680BC704700BF00040E4056
S21440234080B400AF034B9B6E03F004031846BD46B3
S21440235080BC704700040E4080B483B000AF786005
S2144023607B68222B01D901232FE07B681F2B13D8D3
S214402370184B9A6901217B6801FA03F31A40012140
S2144023807B6801FA03F39A421ED0124A01217B6809
S21440239001FA03F3136117E07B68203B7B600D4B2B
S2144023A0D3F8082101217B6801FA03F31A40012182
S2144023B07B6801FA03F39A4206D0064A01217B68FD
S2144023C001FA03F3C2F80031002318460C37BD4625
S2144023D080BC704700040E4080B485B000AF786083
S2144023E039600023FB607B68AC221A603B681A6841
S2144023F03B685B68B2FBF3F31B09FB60FB68002B92
S21440240003D0FB68B3F5803F01D301230FE07B6820
S214402410FA681A623B689A687B685A607B6840F242
S2144024200222C3F820217B6850221A6000231846F7
S2144024301437BD4680BC704780B483B000AF786028
S2144024400B46FB707B685B6903F00203002B01D1EF
S214402450012303E0FA787B68DA61002318460C37DC
S214402460BD4680BC704780B483B000AF78603960AA
S2144024707B685B6903F00103002B01D1012305E073
S2144024807B689B69DAB23B681A70002318460C37A3
S214402490BD4680BC704780B489B000AFF860B96074
S2144024A07A60BB681A017B689A4202D81023FB61A7
S2144024B001E00823FB617B68DA00FB69B96801FB31
S2144024C003F35B081A44FB69B96801FB03F3B2FBEC
S2144024D0F3F3BB61BB69DB087B61BB6903F00703B1
S2144024E03B617B69002B03D07B69B3F5803F01D30A
S2144024F001230FE0FB69082B05D1FB685B6843F4BA
S2144025000022FB685A603B691A047B691A43FB68E1
S2144025101A62002318462437BD4680BC7047000028
S21440252080B582B000AF786078680F4B98477B687C
S21440253000225A607B6800225A627B6800229A62B8
S21440254078680A4B98477868094B98477868094BEB
S21440255098477868084B98477868084B984700BF74
S2144025600837BD4680BD00BF752740001D26400089
S2144025704D26400095264000C9264000AF26400024
S21440258080B584B000AFF860B9607A60F8681A4BDE
S21440259098471A4B00221A60BB68002B09D0BB68CC
S2144025A01B687A681946F868154B98470346002B0F
S2144025B001D001231BE0BB685A68BB689B681A437E
S2144025C0BB681B691A43BB68DB681A430B4B1B6826
S2144025D013430A4A1360094B1B68084A1360FB689A
S2144025E05A68064B1B681A43FB685A600023184615
S2144025F01037BD4680BD00BF21254000EC0B0020B3
S2144026009724400080B483B000AF78607B68402257
S2144026101A6000BF0C37BD4680BC704780B483B09C
S21440262000AF78607B6888221A6000BF0C37BD46D2
S21440263080BC704780B483B000AF78607B6810225F
S2144026401A6000BF0C37BD4680BC704780B483B06C
S21440265000AF78607B6824221A6000BF0C37BD4606
S21440266080BC704780B483B000AF786039607B68C8
S2144026703A689A6000BF0C37BD4680BC704780B44D
S21440268083B000AF78607B681B6918460C37BD4640
S21440269080BC704780B483B000AF78607B684FF4EE
S2144026A080721A6000BF0C37BD4680BC704780B44D
S2144026B083B000AF78607B684FF400321A6000BF8A
S2144026C00C37BD4680BC704780B483B000AF78609E
S2144026D07B684FF400221A6000BF0C37BD4680BCB2
S2144026E0704780B483B000AF786039607B685B69C0
S2144026F003F00203002B01D1012305E03B68C3F33E
S21440270008027B68DA61002318460C37BD4680BC59
S214402710704780B483B000AF786039607B685B698F
S21440272003F00103002B01D1012306E07B689B697F
S214402730C3F308023B681A60002318460C37BD46B0
S21440274080BC704780B483B000AF7860396000BF0B
S2144027507B685B6903F00103002BF9D07B689B69BB
S214402760C3F308023B681A60002318460C37BD4680
S21440277080BC704780B483B000AF78607B68044A02
S214402780C3F8E42000BF0C37BD4680BC704700BF8E
S2144027900041535580B483B000AF78607B684FF4F7
S2144027A000425A6000BF0C37BD4680BC70470000F0
S2144027B080B584B000AF274BFB60274BBB60FA6800
S2144027C0BB689A420DD907E0BB681A1DBA60FA6822
S2144027D0111DF96012681A60BB68204A9342F3D311
S2144027E020E0FA68BB689A421CD21C4A1A4BD31A9D
S2144027F07B60FA687B681344043BFB60BA687B687E
S2144028001344043BBB600AE0BB681A1FBA60FA6810
S214402810111FF96012681A607B68043B7B607B6816
S214402820002BF1D100BF0E4BBB6004E0BB681A1D05
S214402830BA6000221A60BB680A4A9342F6D30A4B33
S214402840FB600A4AFB689360094B9847094B9847D8
S214402850FEE700BF744A40000000002054090020F4
S214402860540900206C3000200000400000ED00E0DD
S214402870093640003D31400080B400AFFEE700001E
S21440288080B400AF5D4B1B6B03F00303032B00F2D9
S214402890968001A252F823F0A9284000C92840009B
S2144028A01329400013294000554B5B6903F0800311
S2144028B0002B04D0534B4FF400421A6080E0514B3B
S2144028C04FF4FA421A607BE04C4B1B6A03F080736D
S2144028D0002B03D04B4B4C4A1A6071E0494B4B4A95
S2144028E01A60464B1B6A03F07003102B08D0202B4F
S2144028F00AD0002B00D00BE0424B444A1A6007E057
S214402900404B434A1A6003E03E4B3F4A1A6000BFC2
S21440291056E03A4B1B6A03F08073002B03D0394BCA
S214402920394A1A6019E0374B384A1A60334B1B6AEB
S21440293003F07003102B08D0202B0AD0002B00D0B9
S2144029400BE0304B314A1A6007E02E4B304A1A6093
S21440295003E02C4B2C4A1A6000BF284B1B6B03F03D
S2144029600303022B15D1254B9B6A1B0CC3F30A03AA
S2144029700133244A126802FB03F3224A13601F4BBA
S2144029809B6ADBB21F4A1268B2FBF3F31D4A136020
S21440299016E01A4BDB6A1B0CC3F30A030133194AD1
S2144029A0126802FB03F3174A1360144BDB6ADBB270
S2144029B0144A1268B2FBF3F3124A136000E000BFF9
S2144029C00E4B1B6B03F07003702B08D10D4B1B682E
S2144029D0104AA2FB03235B080A4A13600AE0074B2F
S2144029E01B6B1B0903F00703064A126822FA03F31F
S2144029F0044A136000BFBD4680BC704700040E40CA
S214402A0010140E400C010020001BB70000093D00CA
S214402A1000127A00ABAAAAAA80B483B000AF78604E
S214402A207B68224A934208D8214B4FF080621A6056
S214402A30204B4FF080621A6033E07B681E4A934218
S214402A4006D81B4B1D4A1A601A4B1C4A1A6028E0CF
S214402A507B681B4A934206D8154B1A4A1A60154B98
S214402A60184A1A601DE07B68174A934206D8104BF6
S214402A70164A1A600F4B154A1A6012E07B68144AD1
S214402A80934208D80A4B4FF004221A60094B4FF085
S214402A9004221A6005E0064B0E4A1A60054B0D4AA2
S214402AA01A6000BF0C37BD4680BC7047FF2C310112
S214402AB0000A0E40000C0E40FF596202000100045E
S214402AC0FF86930300020004FFB3C404000300041F
S214402AD0FFE0F5050005000480B485B000AF7860DF
S214402AE0104BFB60104B1B68002B02D10E4B0F4A5D
S214402AF01A600D4B1B68BB60BA687B681A44FB685B
S214402B009A4202DD4FF0FF3306E0074B1A687B68B7
S214402B101344054A1360BB6818461437BD4680BC4C
S214402B20704700BFFC7F0220F00B00207060002042
S214402B3080B483B000AF78604FF0FF3318460C3750
S214402B40BD4680BC704780B483B000AF78603960C3
S214402B503B684FF400525A60002318460C37BD4677
S214402B6080BC704780B485B000AFF860B9607A60CA
S214402B70002318461437BD4680BC704780B483B0E7
S214402B8000AF0346FB7197F90730002B10DB0B496B
S214402B9097F907305B09FA7902F01F02012000FA24
S214402BA002F2203341F82320BFF34F8FBFF36F8FDD
S214402BB000BF0C37BD4680BC704700BF00E100E058
S214402BC080B483B000AF78607B68072B25D801A21D
S214402BD052F823F0F52B4000FB2B4000012C400020
S214402BE0072C40000B2C40000F2C4000132C4000BC
S214402BF0172C40004FF4FA4310E04FF400430DE02A
S214402C004FF400430AE0084B08E0084B06E0084B48
S214402C1004E0074B02E0064B00E0002318460C3762
S214402C20BD4680BC704700BF00093D0000127A00D8
S214402C30001BB70080B500AF0620044B98470246FD
S214402C4013469B0013449B00184680BDC12B400092
S214402C5080B500AF024B984703465B08184680BDD8
S214402C60352C400080B582B000AF0023FB710621B2
S214402C700020064B98470346002B01D0FF23FB71EC
S214402C80FB7918460837BD4680BD00BFE5034000C7
S214402C902DE9F04F85B000AF786039600023FB73B4
S214402CA03B685A027B681344591E0023002278680A
S214402CB05B4CA0470346002B01D0FF23FB73594BC8
S214402CC09847034619464FF000020B4614464FEA13
S214402CD0840B4BEA937B4FEA830A53465C465B1869
S214402CE044EB0204DB1844EB04041946224643F244
S214402CF0AF634FF0000411EB030A42EB040B50465F
S214402D005946494C43F2B0624FF00003A047034691
S214402D100C461846454B98470023BB810FE0BB89BD
S214402D205A027B6813441846414B98470346002B8B
S214402D3002D0FF23FB7306E0BB890133BB81BA890F
S214402D403B689A42EBD3374B9847034619464FF0B9
S214402D5000020B4614464FEA840949EA93794FEA43
S214402D60830843464C465B1844EB0204DB1844EBAE
S214402D7004041946224643F2AF634FF0000411EBB9
S214402D80030842EB040940464946274C43F2B062EA
S214402D904FF00003A04703460C461846234B98477F
S214402DA03B685A027B681344591E00230022786809
S214402DB0204CA0470346002B01D0FF23FB73194B42
S214402DC09847034619464FF000020B461446A600A5
S214402DD046EA93769D002B4634465B1844EB020445
S214402DE0DB1844EB04041946224643F2AF634FF027
S214402DF00004CD1842EB0406284631460A4C43F2FE
S214402E00B0624FF00003A04703460C461846074BF7
S214402E109847FB7B18461437BD46BDE8F08F00BF89
S214402E2025064000512C4000F932400001010020A8
S214402E3019044000890540002DE9F04F87B000AFE7
S214402E40F860B9607A600023FB757B685A02FB68BD
S214402E501344591E00230022F868564CA0470346E8
S214402E60002B01D0FF23FB75534B9847034619466A
S214402E704FF000020B4614464FEA840B4BEA937B16
S214402E804FEA830A53465C465B1844EB0204DB1861
S214402E9044EB04041946224643F2AF634FF0000465
S214402EA011EB030A42EB040B50465946434C43F29F
S214402EB0B0624FF00003A04703460C461846404B0E
S214402EC098477B685A020023B968F8683D4CA0478B
S214402ED00346002B01D0FF23FB75374B984703462C
S214402EE019464FF000020B4614464FEA840949EA59
S214402EF093794FEA830843464C465B1844EB0204FA
S214402F00DB1844EB04041946224643F2AF634FF005
S214402F10000411EB030842EB040940464946274C9F
S214402F2043F2B0624FF00003A04703460C461846F3
S214402F30234B98477B685A02FB681344591E00236C
S214402F400022F868204CA0470346002B01D0FF2300
S214402F50FB75194B9847034619464FF000020B463F
S214402F601446A60046EA93769D002B4634465B18E8
S214402F7044EB0204DB1844EB04041946224643F2B1
S214402F80AF634FF00004CD1842EB040628463146A6
S214402F900A4C43F2B0624FF00003A04703460C468B
S214402FA01846074B9847FB7D18461C37BD46BDE87C
S214402FB0F08F00BF25064000512C4000F9324000FB
S214402FC001010020590440008905400080B582B0C8
S214402FD000AF084B7B600920074B98477B681B680F
S214402FE07A68526883F30888104700BF0837BD46A2
S214402FF080BD00BF006040007D2B400080B5ADF531
S214403000826D00AF214BC7F80C34214BC7F808340B
S2144030100023C7F8043430E00023C7F8003410E03B
S214403020D7F800349A00D7F80834134419683B465A
S214403030D7F8002443F82210D7F800340133C7F8F5
S2144030400034D7F80034FF2BEAD93B460222194613
S214403050D7F80C040F4B9847D7F80C3403F5806329
S214403060C7F80C34D7F8083403F58063C7F808343B
S214403070D7F804340133C7F80434D7F80434332B74
S214403080CAD900BF07F58267BD4680BD00604000D4
S21440309000304100392E400080B483B000AF7860E5
S2144030A07B68072B25D801A252F823F0CD3040008C
S2144030B0D3304000D9304000DF304000E33040009D
S2144030C0E7304000EB304000EF3040004FF4FA432A
S2144030D010E04FF400430DE04FF400430AE0084B85
S2144030E008E0084B06E0084B04E0074B02E0064BBE
S2144030F000E0002318460C37BD4680BC704700BF32
S21440310000093D0000127A00001BB70080B500AFF2
S2144031100620044B9847024613469B0013449B00E8
S214403120184680BD9930400080B500AF024B9847A6
S21440313003465B08184680BD0D314000F0B59DB093
S21440314000AF3B1D642200211846564B9847564B0D
S214403150FB66564B9847564B9847564B9847564BA8
S2144031609847564B9847034619464FF000020B4681
S2144031701446A60046EA93769D002B4634465B18D6
S21440318044EB0204DB1844EB04041946224643F29F
S214403190AF634FF00004CD1842EB04062846314694
S2144031A0474C43F2B0624FF00003A04703460C463C
S2144031B01846444B9847FB6E1B68BB66FB6E1B6805
S2144031C0B3F1FF3F05D0FB6E1B68002B01D03E4B92
S2144031D098473B1D3D4A1C4615460FCD0FC40FCDA4
S2144031E00FC495E80F0007C423703B1D1846384BA4
S2144031F098473B1D374A1C4615460FCD0FC40FCD8A
S2144032000FC495E8070003C422800234130C2370D1
S2144032103B1D18462E4B98473B1D2F4A1C461546CD
S2144032200FCD0FC40FCD0FC495E8070003C422800E
S2144032300234130C23703B1D1846254B98473B1D04
S214403240264A1C4615460FCD0FC495E80F0007C406
S214403250238002341B0C23703B1D18461C4B98479A
S21440326068211F481F4B98473B1D1F4A184611466A
S2144032704D231A461D4B98473B1D1846144B9847FE
S2144032801B4B98473B1D1B4A1C4615460FCD0FC48B
S21440329095E80F0084E80F003B1D18460C4B9847F6
S2144032A0E2E700BFFD3C400000604000551640008D
S2144032B0CD194000652C4000D90A40002931400015
S2144032C0F932400001010020CD2F40002C4940003B
S2144032D0610B40005C49400088494000B4494000CA
S2144032E000304100912C4000D4494000C93B40008A
S2144032F0B10E4000244A400053B94AB9002908BFDD
S21440330000281CBF4FF0FF314FF0FF3000F07AB975
S214403310ADF1080C6DE904CE00F006F8DDF804E0E7
S214403320DDE9022304B070472DE9F0478C460D4690
S2144033300446089E002B51D18A4217466DD9B2FAF0
S21440334082FEBEF1000F0BD0CEF1200C01FA0EF536
S21440335020FA0CFC02FA0EF74CEA050C00FA0EF4C2
S2144033604FEA174A250CBCFBFAF81FFA87F90AFB06
S21440337018CC45EA0C4508FB09F3AB420AD9ED19CF
S21440338008F1FF3280F02381AB4240F22081A8F161
S21440339002083D44ED1AA4B2B5FBFAF00AFB1055FC
S2144033A044EA054400FB09F9A14509D9E41900F1AE
S2144033B0FF3380F00A81A14540F2078102383C4441
S2144033C0A4EB090440EA08400021002E61D024FA0C
S2144033D00EF4002334607360BDE8F0878B4207D953
S2144033E0002E54D0002186E821000846BDE8F0872C
S2144033F0B3FA83F1002940F08E80AB4202D382427A
S21440340000F2FA80841A65EB03050120AC46002ED4
S2144034103FD086E81010BDE8F08712B90127B7FB09
S214403420F2F7B7FA87FEBEF1000F34D1EB1B3A0C29
S2144034301FFA87FC0121B3FBF2F8250C02FB183378
S21440344045EA03450CFB08F3AB4207D9ED1908F1F2
S214403450FF3002D2AB4200F2D1808046ED1AA3B2D2
S214403460B5FBF2F002FB105543EA05440CFB00FCAA
S214403470A44507D9E41900F1FF3302D2A44500F26F
S214403480B8801846A4EB0C0440EA08409DE7314655
S2144034903046BDE8F087CEF1200405FA0EF307FA71
S2144034A00EF720FA04F83A0C25FA04F448EA030822
S2144034B0B4FBF2F14FEA184502FB11441FFA87FCB1
S2144034C045EA044501FB0CF3AB4200FA0EF409D979
S2144034D0ED1901F1FF3080F08A80AB4240F28780E0
S2144034E002393D44EB1A1FFA88F5B3FBF2F002FBB3
S2144034F0103345EA034500FB0CF3AB4207D9ED1900
S21440350000F1FF386FD2AB426DD902383D44EB1A1A
S21440351040EA01418FE7C1F1200722FA07F88B40C5
S21440352005FA01F448EA030320FA07FE4FEA134C73
S214403530FD404EEA040EB5FBFCF94FEA1E440CFB78
S21440354019551FFA83F844EA054509FB08F4AC42CE
S21440355002FA01F200FA01FA08D9ED1809F1FF3033
S21440356043D2AC4241D9A9F102091D442D1B1FFA92
S2144035708EFEB5FBFCF00CFB10554EEA054400FBF6
S21440358008F8A04507D9E41800F1FF3529D2A04530
S21440359027D902381C4440EA0940A4EB0804A0FBA3
S2144035A002894C45C6464D4615D312D056B1BAEBA5
S2144035B00E0364EB050404FA07F7CB401F43CC40E8
S2144035C0376074600021BDE8F0871846F8E69046FC
S2144035D0E0E6C245EAD2B8EB020E69EB03050138D5
S2144035E0E4E72846D7E7404691E78146BEE70146EE
S2144035F078E702383C4445E7084608E7A8F1020861
S2144036003D442BE7704700BF70B50F4E0F4D761BFD
S214403610B61018BF002405D0013455F8043B98472F
S214403620A642F9D10A4E0B4D761B01F00DFAB610A4
S21440363018BF002406D0013455F8043B9847A642EC
S214403640F9D170BD70BD00BF544A4000544A400096
S2144036505C4A4000544A4000024B0146186800F05D
S21440366003B800BF100100202DE9F04F01F10B0612
S214403670162E83B0054640F29E8036F0070600F1CF
S214403680BD80B14200F2BA8000F086FBB6F5FC7F02
S214403690C0F09382730A00F0B880042B00F2798160
S2144036A0B30903F1390003F1380EC300BF4F3B4462
S2144036B0A3F108015C68A14206D10CE0002A80F222
S2144036C0AA80E468A14206D0636823F003039A1BED
S2144036D00F2AF3DD70463C69DFF8E4E2744500F0FB
S2144036E0AB81636823F003039A1B0F2A00F3908193
S2144036F0002AC7F814E0C7F810E080F29D80B3F5C2
S214403700007F80F06181DB0803F1010C99107A6834
S21440371057F83C80C4F8088001238B4007EBCC0167
S21440372013430839E1607B6047F83C40C8F80C40DA
S2144037308210012494409C4200F28B801C4206D1A9
S21440374020F0030064001C4200F10400FAD007EBAE
S214403750C009CC468046DCF80C309C4507D16DE16C
S214403760002A80F27B81DB689C4500F067815968BF
S21440377021F003018A1B0F2AF2DDD3F80CC0D3F8E0
S214403780088000939C19284646F0010642F0010541
S2144037905E60C8F80CC0CCF808807C613C61C4F818
S2144037A00CE0C4F808E065605A5000F0FBFA009B55
S2144037B003F108041EE0102920D800F0EDFA102688
S2144037C018230220794F3B44A3F108025C689442D8
S2144037D000F03D816368E168A66823F00303234454
S2144037E028465A68F16042F001028E605A6000F046
S2144037F0D9FA0834204603B0BDE8F08F00240C23E5
S21440380020462B6003B0BDE8F08F40204FF4007395
S2144038104FF03F0E4AE72344E1685A68A66842F0F4
S2144038200102F16028468E605A6000F0BBFA083408
S214403830204603B0BDE8F08F234428465A6842F03D
S21440384001025A6000F0AEFA0834204603B0BDE8E4
S214403850F08FBC68636823F00308B04504D3A8EB38
S21440386006030F2B00F38580DFF85891504BD9F8AC
S21440387000201B680132334404EB080A00F05581EF
S21440388003F580530F3323F47F6B2BF00F0B594611
S214403890284600F08DFA411C024600F0FC80824526
S2144038A000F2F780434B19685944196000F04D8187
S2144038B0D9F8000001301BBFA2EB0A0A5144C9F8F0
S2144038C00020196012F0070100F01581C1F10800D0
S2144038D0C1F580510244083102EB0B09C9F30B09CC
S2144038E0A1EB0909494628460193009200F060FA88
S2144038F0431C9DE80C0000F04381801A484440F089
S21440390001001968BA604944BC425060196017D03B
S214403910B8F10F0F40F2FB806068A8F10C0222F06D
S214403920070204EB020E00F001004FF0050C1043B6
S2144039300F2A6060CEF804C0CEF808C000F21781A7
S2144039401D4BBC681A68914288BF19601B4B1A68A9
S2144039509142626888BF196022F003029642A2EB49
S214403960060301D80F2B04DC284600F01BFA00247F
S21440397040E7A21943F0010346F001066660284678
S214403980BA60536000F00EFA0834204603B0BDE833
S214403990F08F142B71D9542B00F2A380330B03F114
S2144039A06F0003F16E0EC30080E600BF40050020A6
S2144039B0240C0020F40B00201C0C0020200C0020BF
S2144039C048050020480900205A0A042A5BD9142AD0
S2144039D000F2AE8002F15C01C9005B3207EB010CDD
S2144039E07958ACF1080C8C4500F088804A6822F083
S2144039F00302934273D289688C45F7D1DCF80C20D9
S214403A007B68E260C4F808C09460CCF80C408FE64F
S214403A10A11946F0010C42F00106C4F804C028463D
S214403A2079613961C1F80CE0C1F808E04E60E250B7
S214403A3000F0B8F90834DDE67B6879E608F101085D
S214403A4018F0030F0CF1080C7FF485AE2DE0DC680F
S214403A50A34208BF02303FF43EAEBBE619441C46C4
S214403A604A68DB6854F8086F42F001024A6028460C
S214403A70F3609E6000F096F9BCE603F15C0003F14B
S214403A805B0EC30012E69A0902F13901C9003832CA
S214403A90A4E7BC4254D0BC68626822F003025DE7EB
S214403AA059F80839994540F0868010F0030F00F128
S214403AB0FF30F5D17B6823EA04037B6064009C42B8
S214403AC03FF6C7AE002C3FF4C4AE1C4240467FF4DF
S214403AD03EAE64001C4200F10400FAD037E68C4645
S214403AE08CE7B3F5AA7F15D8F30B03F1780003F102
S214403AF0770EC300DAE54FF48051EDE67B6892100E
S214403B00012101FA02F213437B60624679E7012302
S214403B10536029E740F25452934222D8B30C03F143
S214403B207D0003F17C0EC300C0E503F1100BAEE64A
S214403B30542A29D81A0B02F16F01C9006E324DE79C
S214403B40204B196859441960B2E6CAF30B000028A6
S214403B507FF4AEAE08EB0B03BA6843F00103536044
S214403B60EEE67F204FF47E734FF07E0E9EE504F126
S214403B7008012846009300F01BFC009B1968DFE60E
S214403B8001204FF00009BCE6B2F5AA7F05D8DA0B53
S214403B9002F17801C900773220E740F254518A4258
S214403BA005D89A0C02F17D01C9007C3216E74FF425
S214403BB07E717E2212E77B6880E7F00806F10803F4
S214403BC000E600BFF40B0020844641EA000313F0F1
S214403BD003036DD1403A41D351F8043B40F8043BCF
S214403BE051F8043B40F8043B51F8043B40F8043B92
S214403BF051F8043B40F8043B51F8043B40F8043B82
S214403C0051F8043B40F8043B51F8043B40F8043B71
S214403C1051F8043B40F8043B51F8043B40F8043B61
S214403C2051F8043B40F8043B51F8043B40F8043B51
S214403C3051F8043B40F8043B51F8043B40F8043B41
S214403C4051F8043B40F8043B51F8043B40F8043B31
S214403C5051F8043B40F8043B403ABDD2303211D3D1
S214403C6051F8043B40F8043B51F8043B40F8043B11
S214403C7051F8043B40F8043B51F8043B40F8043B01
S214403C80103AEDD20C3205D351F8043B40F8043BD1
S214403C90043AF9D2043208D0D2071CBF11F8013BCF
S214403CA000F8013B01D30B8803806046704700BF95
S214403CB0082A13D38B078DD010F003038AD0C3F1A4
S214403CC00403D21ADB071CBF11F8013B00F8013B86
S214403CD080D331F8023B20F8023B7BE7043AD9D345
S214403CE0013A11F8013B00F8013BF9D20B7803701A
S214403CF04B7843708B7883706046704770B4860705
S214403D0046D0541E002A41D0CAB2034602E014F1FF
S214403D10FF343BD303F8012B9D07F8D1032C2ED953
S214403D20CDB245EA05250F2C45EA054519D903F1DC
S214403D3010022646103E0F2E42F8105C42F80C5CED
S214403D4042F8085C42F8045C02F11002F2D8A4F192
S214403D50100222F00F0204F00F041032032C13441A
S214403D600DD91E462246043A032A46F8045BFAD882
S214403D70221F22F003020432134404F003042CB141
S214403D80C9B21C4403F8011B9C42FBD170BC70476F
S214403D9014460346C2E700BF014800F01DBC00BF02
S214403DA054300020014800F019BC00BF54300020B9
S214403DB038B5074C0023054608462360FEF78CFEC0
S214403DC0431C00D038BD2368002BFBD02B6038BD89
S214403DD06830002000290CBF022200224FF4806386
S214403DE000F000B82DE9F043614C256883B00446E6
S214403DF00F4690461E4615B1AB6B002B64D0B8F10B
S214403E00020F06D0B8F1010F00F29F80002EC0F2DC
S214403E109C80636ED80734D52146284600F0CEF9FC
S214403E20216B41B104F14003994202D0284600F08C
S214403E30BFFA00232363B4F90C300022A26162600B
S214403E401A063AD423F44A6323F00303B8F1020F68
S214403E50A3811DD001AB6A462146284600F0C0FB30
S214403E60A3891843A081002E32D1009E3046FFF72A
S214403E70F3FB074600286BD0A38943F08003A38159
S214403E8028E0A3899905C7D4A06D00F0A5FBC3E739
S214403E900025616E002604F1430243F00203012030
S214403EA0A660CE07A38122602261606101D4980596
S214403EB03ED5284603B0BDE8F0832169284600F089
S214403EC077FAB4F90C30BDE7284600F0CFF996E70C
S214403ED0002FCBD0AB6B002B33D0009BB4F90C201B
S214403EE027609E421CBF42F40062A281B8F1010FD7
S214403EF004BF42F00102A28192B212F00803276189
S214403F0066610ED0D1071AD5656E7642002315F04D
S214403F100105A661A36009D00025284603B0BDE888
S214403F20F083A360656E15F00105F5D19305C0D406
S214403F30A06D00F053FB284603B0BDE8F083A660B2
S214403F40F0E7284600F092F9C7E74FF0FF35B0E7B4
S214403F50DDF80090B14504D04846FFF77DFB0746A4
S214403F6020B9B4F90C304FF0FF3592E74E4683E760
S214403F7010010020000000000000000000000000CB
S214403F8090F800F06DE9024520F007016FF0000C54
S214403F9010F0070491F820F040F049804FF00004FC
S214403FA06FF00700D1E9002391F840F000F10800D7
S214403FB082FA4CF2A4FA8CF283FA4CF3A2FA8CF30F
S214403FC04BBBD1E9022382FA4CF200F10800A4FA76
S214403FD08CF283FA4CF3A2FA8CF3E3B9D1E90423CA
S214403FE082FA4CF200F10800A4FA8CF283FA4CF301
S214403FF0A2FA8CF37BB9D1E9062301F1200182FABB
S2144040004CF200F10800A4FA8CF283FA4CF3A2FAC0
S2144040108CF3002BC6D0002A04BF04301A4612BACE
S214404020B2FA82F2FDE8024500EBD2007047D1E9D1
S214404030002304F00305C4F100004FEAC50514F060
S214404040040F91F840F00CFA05F562EA05021CBF31
S21440405063EA050362464FF00004A9E7024B13B13A
S214404060024800F005B8704700000000DD424000FE
S214404070002301461A46184600F03ABBB1F90C3008
S2144040809AB22DE9F0410D46110780463AD46A6847
S21440409043F40063002AAB816FDDAC6A002C49D044
S2144040A000229BB2D8F80060C8F8002013F4805273
S2144040B067D02A6D5F0705D569682B6B521A0BB11E
S2144040C0EB6BD21A0023E9694046A047441C3CD01B
S2144040D0B5F90C302A692A6023F400630022AB81CC
S2144040E0DB046A6047D4296BC8F8006011B305F159
S2144040F04003994202D0404600F05AF90020286317
S214404100BDE8F0812E69AEB12C682E6091070CBFD9
S2144041106B690023A41BAB600AE0234632466F6AF5
S214404120E9694046B8470028A4EB0004064404DD8D
S214404130002CF2DC0020BDE8F081AB8943F0400360
S214404140AB814FF0FF30BDE8F081D8F800401D2C21
S214404150F3D8194BE340DB4313F00103EDD1B5F937
S2144041600C206B6022F400632969AB81DA04296075
S214404170B9D5002CB7D12865B5E7EA6B002A8CDCA8
S214404180D8E70123E9694046A047431C024602D0CF
S214404190AB89AC6A8EE7D8F80030002BF8D01D2BE0
S2144041A001D0162B02D1C8F80060C3E7AB8943F0B4
S2144041B04003AB81BDE8F0810100402038B50D4694
S2144041C0044608B1836BBBB1B5F90C0088B16B6E81
S2144041D0DB0701D4810517D520462946FFF74EFF59
S2144041E06B6EDA07044602D4AB899B0507D520469A
S2144041F038BD0446204638BD00F038F8E4E7A86DE0
S21440420000F0ECF9204638BDA86D00F0E5F9E3E78C
S214404210014900F0B3B900BFD947400010B50023AC
S21440422004468181C28103604360836043660361C4
S21440423043618361194608225C30FFF75FFD0748FB
S2144042400749084A084B2062E4616162A262E36261
S21440425004F15800BDE8104000F0BAB93D464000B1
S214404260614640009D464000BD46400010B50446AD
S214404270124800F0B1F9A26BD2B904F53B7310486E
S214404280C4F8E8320321C4F8E022E063C4F8E4123C
S21440429060680421FFF7C2FF01220921A068FFF7EA
S2144042A0BDFF02221221E068FFF7B8FF0123A36397
S2144042B00248BDE8104000F091B900BF50300020E1
S2144042C011424000014800F087B900BF643000202A
S2144042D0014800F083B900BF6430002038B50A4C6E
S2144042E00A4D641BA4100AD004F18043013B05EB41
S2144042F08305013C55F804399847002CF9D1BDE8B0
S214404300384000F0ABBB00BF6C4A4000684A4000F3
S214404310F8B5244F0C460646FFF73EFDBB685D6881
S214404320C4F57E610F3125F00305294421F47F61F1
S21440433021F00F01A1F58054B4F5805F07DB002122
S2144043403046FFF735FDBB682B44984204D03046D4
S214404350FFF728FD0020F8BD61423046FFF728FDF4
S21440436001300DD0104BBA6819682D1B45F0010579
S2144043703046091B55601960FFF714FD0120F8BD53
S21440438000213046FFF714FDBA68831A0F2BDEDD96
S214404390064C0549246843F00103001B536008603F
S2144043A0D5E700BF40050020F40B00204809002058
S2144043B0002944D02DE9F0410D468046FFF7ECFC3D
S2144043C055F8047C694927F00103A5F10804E21872
S2144043D08E685068B24220F003005ED0FE07506000
S2144043E00BD455F8087CE41B01F1080EA56875450A
S2144043F03B446DD0E768EF60BD6015186D68ED070B
S2144044003ED543F001026260E350B3F5007F17D219
S214404410DB08581C9A104D6851F83070A76001238D
S214404420934001EBC0022B43083AE2604B6041F8F0
S2144044303040FC604046BDE8F041FFF7B3BC7047F3
S2144044405A0A042A52D89A0902F13907FF0002F1A3
S2144044503805C819CA59083890424FD0516821F0DB
S21440446003018B4232D292689042F7D1C368A06073
S214404470E3609C60C4604046BDE8F041FFF792BCF4
S21440448095683B4FBD42034440D0D068E86043F057
S214404490010285606260E350B7E7FF07034407D434
S2144044A055F8082CA41A1344A068E268C2609060CD
S2144044B0304A126843F00100934260608C60B9D382
S2144044C02D4B40461968FFF723FFB3E71046CDE76C
S2144044D011184968C90744D49168D268CA60034431
S2144044E043F0010091606060E350A3E7142A16D8B9
S2144044F002F15C07FF0002F15B05AAE7AA10012360
S2144045004D6893402B434B600346B0E743F00102AF
S2144045104C610C61E560A5606260E3508AE7542A0E
S21440452006D81A0B02F16F07FF0002F16E0590E7FE
S214404530B2F5AA7F06D8DA0B02F17807FF0002F13F
S214404540770586E740F25450824206D89A0C02F12C
S2144045507D07FF0002F17C057BE74FF47E777E25E2
S21440456077E743F001016160136063E74005002090
S214404570480500204C090020240C00202DE9F84373
S21440458010F538771FD0884606464FF000097D68FC
S214404590BC68013D11D4A389012B05F1FF3508D92C
S2144045A0B4F90E3001332146304602D0C04749EABE
S2144045B000096B1C04F16804EDD13F68002FE6D17A
S2144045C04846BDE8F883B9464846BDE8F88300BF8C
S2144045D0704700BF704700BF704700BF704700BFBE
S2144045E070B50C46B1F90E10002990B015461E461F
S2144045F014DB01AA00F052F900280FDB029A02F4FD
S2144046007042A2F50052B2FA82F252094FF4806329
S2144046104FF4006032602B6010B070BDA28900235A
S21440462012F08000336004D0402218462A6010B052
S21440463070BD4FF480632B6010B070BD10B50C4653
S214404640B1F90E1000F054F9002803DB236D034443
S214404650236510BDA38923F48053A38110BD00BFFA
S2144046602DE9F0411646B1F90C201F46D3050C46FD
S214404670054607D500220223B1F90E1000F022F9B4
S214404680B4F90C20B4F90E1022F48052A2813B46B5
S21440469032462846BDE8F04100F014B810B50C4646
S2144046A0B1F90E1000F00EF9A389421C0EBF23F498
S2144046B0805343F480532065A38110BDB1F90E109A
S2144046C000F078B870B50D46084C114606461A46B6
S2144046D0284600232360FDF71FF8431C00D070BD1A
S2144046E02368002BFBD0336070BD00BF68300020CD
S2144046F02DE9F8432C4D0646286898460F469146C5
S214404700FFF76AFF294B1C68D4F84831002B3ED08F
S2144047105A681F2A1CDC02F1010E76B103EB8201B7
S2144047200124C1F88890D3F8880194402043022E93
S214404730C3F88801C1F8088123D00232C3F804E0E8
S214404740286843F82270FFF749FF0020BDE8F88349
S214404750174B0BB34FF4C870FEF77EFF0346D8B135
S214404760D4F848210260002141600A46C4F8480156
S2144047704FF0010EC0F88811C0F88C11002EDCD026
S214404780CCE7D3F88C110C43C3F88C41D5E704F53D
S214404790A673C4F84831BBE72868FFF71FFF4FF001
S2144047A0FF30BDE8F88300BF50090020444A40006F
S2144047B05936400038B5074C002305460846236066
S2144047C0FEF7B6F9431C00D038BD2368002BFBD05B
S2144047D02B6038BD6830002070B559B105460C4690
S2144047E010B1836B002B3CD0636ED80705D5B4F967
S2144047F00C302BB90026304670BDA38999053CD5B0
S21440480021462846FFF73AFCE36A064633B1E1699B
S214404810284698470028B8BF4FF0FF36A3891A06A7
S21440482022D4216B41B104F14003994202D028467C
S214404830FFF7BEFD00232363616C21B12846FFF7D6
S214404840B7FD00236364FFF73DFD636E0022DB0780
S214404850A2810ED5A06DFFF7BDFEFFF739FD3046AD
S21440486070BDFFF703FDBFE721692846FFF7A0FDAF
S214404870D7E7A06DFFF7B2FEECE7A06DFFF7ACFE02
S214404880B4F90C30002BBBD1666E16F00106B1D1E0
S214404890A06DFFF7A3FE304670BD00BF38B50B468F
S2144048A0074C05461146184600232360FEF74BF991
S2144048B0431C00D038BD2368002BFBD02B6038BD8E
S2144048C06830002070B50D46084C114606461A461C
S2144048D0284600232360FEF745F9431C00D070BDF0
S2144048E02368002BFBD0336070BD00BF68300020CB
S2144048F070B50D46084C114606461A462846002313
S2144049002360FCF7DFFE431C00D070BD2368002BFD
S214404910FBD0336070BD00BF6830002000C201008D
S214404920C000000000080000000000000D0A3D3DE9
S2144049303D3D3D3D3D3D3D3D3D3D3D3D3D3D3D3D62
S2144049403D3D3D3D3D3D3D3D3D3D3D3D3D3D3D3D52
S2144049503D3D3D3D3D3D0D0A000000003D202041CF
S2144049605453414D3453204669726D7761726520C9
S21440497055706461746520426F6F746C6F616465D6
S2144049807220203D0D0A00003D3D3D3D3D3D3D3DF4
S2144049903D3D3D3D3D3D3D3D3D3D3D3D3D3D3D3D02
S2144049A03D3D3D3D3D3D3D3D3D3D3D3D3D3D3D3DF2
S2144049B00D0A00000D0A0D0A4572617365204170AC
S2144049C0703220466C6173682053656374696F6EFD
S2144049D00D0A0000506C656173652073656E642037
S2144049E061206E65772062696E6172792066696CB7
S2144049F065207769746820586D6F64656D207072A5
S214404A006F746F636F6C20746F207570646174652B
S214404A1020746865206669726D776172652E0D0A2E
S214404A20000000000D0A4661696C65642E2E2E203B
S214404A30506C656173652074727920616761696E38
S214404A402E0D0A0018010020F8B500BFF8BC08BCBF
S214404A509E4670475D404000F1004000F8B500BFFC
S210404A60F8BC08BC9E467047CD004000E5
S20C404A6CBCE8FF7F01000000DA
S214404A7480B489B000AFF860B9607A603B60FB6888
S214404A84274A934202D14FF4800301E04FF4A00337
S214404A94BB613B68002B01D102233CE0FB681B68EA
S214404AA443F48032FB681A60BB68DBB243F0B4421E
S214404AB4FB685A60FB689B687B617B6903F0010373
S214404AC4012BF7D00023FB610CE0FB699B003A689E
S214404AD41344FA699200B9690A4412681A60FB6979
S214404AE40133FB61FA69BB6A9A42EED37B68DBB258
S214404AF443F0B442FB685A60FB689B687B617B6901
S214404B0403F00103012BF7D1FB681B6823F48032C2
S214404B14FB681A60002318462437BD4680BC70479D
S214404B24000A0E4080B483B000AF786039607B687A
S214404B343A681A6000BF0C37BD4680BC704780B4E4
S214404B4485B000AF786039607B683A685A607B68A5
S214404B549B68FB60FB6803F00103012BF7D1FB68FD
S214404B6403F00E0318461437BD4680BC704700BF9A
S214404B74BFF35F8F0138FBD17047010100093D0048
S214404B84180100200000000000000000040400207B
S214404B946C040020D4040020000000000000000044
S214404BA400000000000000000000000000000000BC
S214404BB400000000000000000000000000000000AC
S214404BC4000000000000000000000000000000009C
S214404BD4000000000000000000000000000000008C
S214404BE4000000000000000000000000000000007C
S214404BF4000000000000000000000000000000006C
S214404C04000000000000000000000000000000005B
S214404C14000000000000000000000000000000004B
S214404C24000000000000000000000000000000003B
S214404C3401000000000000000E33CDAB34126DE6D8
S214404C44ECDE05000B000000000000000000000041
S214404C54000000000000000000000000000000000B
S214404C6400000000000000000000000000000000FB
S214404C7400000000000000000000000000000000EB
S214404C8400000000000000000000000000000000DB
S214404FB400000000000000004005002040050020DE
S214404FC448050020480500205005002050050020D4
S214404FD45805002058050020600500206005002084
S214404FE46805002068050020700500207005002034
S214404FF478050020780500208005002080050020E4
S2144050048805002088050020900500209005002093
S2144050149805002098050020A0050020A005002043
S214405024A8050020A8050020B0050020B0050020F3
S214405034B8050020B8050020C0050020C0050020A3
S214405044C8050020C8050020D0050020D005002053
S214405054D8050020D8050020E0050020E005002003
S214405064E8050020E8050020F0050020F0050020B3
S214405074F8050020F8050020000600200006002061
S214405084080600200806002010060020100600200F
S21440509418060020180600202006002020060020BF
S2144050A4280600202806002030060020300600206F
S2144050B4380600203806002040060020400600201F
S2144050C448060020480600205006002050060020CF
S2144050D4580600205806002060060020600600207F
S2144050E4680600206806002070060020700600202F
S2144050F478060020780600208006002080060020DF
S214405104880600208806002090060020900600208E
S2144051149806002098060020A0060020A00600203E
S214405124A8060020A8060020B0060020B0060020EE
S214405134B8060020B8060020C0060020C00600209E
S214405144C8060020C8060020D0060020D00600204E
S214405154D8060020D8060020E0060020E0060020FE
S214405164E8060020E8060020F0060020F0060020AE
S214405174F8060020F806002000070020000700205C
S214405184080700200807002010070020100700200A
S21440519418070020180700202007002020070020BA
S2144051A4280700202807002030070020300700206A
S2144051B4380700203807002040070020400700201A
S2144051C448070020480700205007002050070020CA
S2144051D4580700205807002060070020600700207A
S2144051E4680700206807002070070020700700202A
S2144051F478070020780700208007002080070020DA
S2144052048807002088070020900700209007002089
S2144052149807002098070020A0070020A007002039
S214405224A8070020A8070020B0070020B0070020E9
S214405234B8070020B8070020C0070020C007002099
S214405244C8070020C8070020D0070020D007002049
S214405254D8070020D8070020E0070020E0070020F9
S214405264E8070020E8070020F0070020F0070020A9
S214405274F8070020F8070020000800200008002057
S2144052840808002008080020100800201008002005
S21440529418080020180800202008002020080020B5
S2144052A42808002028080020300800203008002065
S2144052B43808002038080020400800204008002015
S2144052C448080020480800205008002050080020C5
S2144052D45808002058080020600800206008002075
S2144052E46808002068080020700800207008002025
S2144052F478080020780800208008002080080020D5
S2144053048808002088080020900800209008002084
S2144053149808002098080020A0080020A008002034
S214405324A8080020A8080020B0080020B0080020E4
S214405334B8080020B8080020C0080020C008002094
S214405344C8080020C8080020D0080020D008002044
S214405354D8080020D8080020E0080020E0080020F4
S214405364E8080020E8080020F0080020F0080020A4
S214405374F8080020F8080020000900200009002052
S2144053840809002008090020100900201009002000
S21440539418090020180900202009002020090020B0
S2144053A42809002028090020300900203009002060
S2144053B43809002038090020FFFFFFFF00000200E4
S2084053C4443000200C
S8044027B1E3
