:020000040040BA
:10000000D0460020E91A4000B11B4000B11B40005F
:10001000B11B4000B11B4000B11B400000000000BC
:10002000000000000000000000000000B11B4000C4
:10003000B11B400000000000B11B4000B11B40009C
:10004000B11B4000B11B4000B11B4000B11B400080
:10005000B11B4000B11B4000B11B4000B11B400070
:10006000B11B4000B905400000000000FD13400036
:10007000151440002D144000B11B4000B11B40007E
:100080000000000000000000B11B4000B11B400058
:10009000B11B4000B11B4000B11B4000B11B400030
:1000A000B11B4000B11B4000B11B4000B11B400020
:1000B000B11B4000B11B4000B11B4000B11B400010
:1000C000B11B4000B11B4000B11B400010B5054CF6
:1000D000237833B9044B13B10448AFF300800123F4
:1000E000237010BDC009002000000000B85140007E
:1000F0000C4B43B10C480D4910B5AFF300800C48D0
:10010000036823B910BD0A48036833B97047094B27
:10011000002BF7D0BDE810401847064B002BF5D058
:10012000184700BF00000000B8514000C40900207B
:10013000B85140000000000080B483B000AF034617
:10014000FB7197F90730002B0BDB084997F9073053
:100150005B09FA7902F01F02012000FA02F241F86D
:10016000232000BF0C37BD4680BC704700E100E093
:1001700080B483B000AF78607B68072B25D801A2DC
:1001800052F823F0A5014000AB014000B10140004E
:10019000B7014000BB014000BF014000C301400067
:1001A000C70140004FF4FA4310E04FF400430DE064
:1001B0004FF400430AE0084B08E0084B06E0084B08
:1001C00004E0074B02E0064B00E0002318460C3722
:1001D000BD4680BC704700BF00093D0000127A0098
:1001E000001BB70080B500AF0620044B98470246BD
:1001F00013469B0013449B00184680BD71014000CC
:1002000080B500AF024B984703465B08184680BD97
:10021000E501400080B582B000AF78607868034B9C
:10022000984700BF0837BD4680BD00BF911640000B
:1002300080B58CB000AF78603960314B9847034689
:100240007B623B681B68BB623B689B68FB623B68E8
:100250001B68FB603B685B683B613B689B687B613C
:100260003B68DB68BB610023FB617B68254A9342E6
:1002700008D10820244B984707F1240319467868D1
:10028000224B98477B68224A934208D109201E4B93
:10029000984707F12403194678681C4B98477B68F8
:1002A0001C4A934211D10E20174B9847144B984784
:1002B000024607F10C0319467868174B984778688F
:1002C000164B98477868164B98477B68154A9342B7
:1002D00011D10F200C4B9847094B9847024607F164
:1002E0000C03194678680C4B984778680B4B984775
:1002F00078680B4B984700BF3037BD4680BD00BFC4
:100300000102400000060E40150240001117400097
:1003100000080E4000400240B91840003D1940005E
:100320006D1940000080024080B582B000AF786057
:100330000B46FB707B68204A93420AD100BFFB78D2
:10034000194678681D4B98470346002BF7D10123C7
:100350002DE07B681A4A93420AD100BFFB78194608
:100360007868164B98470346002BF7D101231EE00F
:100370007B68144A93420AD100BFFB78194678681B
:10038000114B98470346002BF7D101230FE07B6800
:100390000E4A93420AD100BFFB78194678680A4B8F
:1003A00098470346002BF7D1012300E000231846AD
:1003B0000837BD4680BD00BF00060E4071174000E3
:1003C00000080E40004002401B1A4000008002401E
:1003D00080B584B000AF786039600023FB607B6833
:1003E0001F4A934207D100BF396878681D4B984770
:1003F0000346002BF8D17B681B4A934207D100BF0C
:1004000039687868174B98470346002BF8D17B680A
:10041000164A93420DD100BF07F10C0319467868C4
:10042000134B98470346002BF6D1FB68DAB23B68C2
:100430001A707B680F4A93420DD100BF07F10C037D
:10044000194678680A4B98470346002BF6D1FB689B
:10045000DAB23B681A7000BF1037BD4680BD00BFDE
:1004600000060E409F17400000080E40004002406A
:100470004B1A40000080024080B582B000AF786027
:1004800039600F4A7B6813600E4B0F4A1A600F4B9E
:100490000F4A1A60396878680E4B98470E4B1B68F4
:1004A0009B68002118460D4B98470B4B1B685B68F7
:1004B00000211846094B984700BF0837BD4680BD4C
:1004C0009C16002098160020290340009416002056
:1004D000D10340003102400010000020512A4000AA
:1004E00090B585B000AF0C4B3C460FCB84E80F00B5
:1004F00009200A4B98473B4619460948094B98473B
:1005000001210748084B98470920084B984700BF2E
:100510001437BD4690BD00BFFC4F4000150240009F
:1005200000080E40790440009D1940003901400048
:1005300080B584B000AF0346FB71FF23FB73FB79EA
:1005400019460648064B98470346002B01D1002365
:10055000FB73FB7B18461037BD4680BD00080E407C
:100560007117400090B585B000AF7860FF237B73B2
:100570000023FB810EE0FB897A6813441B78184640
:100580000B4B98470346FF2B01D17B7B0CE0FB898B
:100590000133FB81FC897868064B984703469C42EF
:1005A000E9D300237B737B7B18461437BD4690BD8F
:1005B00031054000012C400080B500AF3248334B7C
:1005C0009847034603F00103002B5BD0304B1B8898
:1005D0001A46304B134419462B482F4B98472C4B47
:1005E0001B88002B07D12A4B1B881A46294B9A5C83
:1005F0002A4B1A7037E0264B1B88022B0CD8244B51
:100600001B88013B224A12881146224A515C234A28
:1006100013440A465A7026E01D4B1B8840F20242E2
:1006200093420CD81A4B1B88033B194A1288114677
:10063000184A515C194A13440A46DA7013E0144B05
:100640001B8840F2044293420DD8114B1B88A3F241
:1006500003430F4A128811460E4A515C0F4A134455
:100660000A4683F803240A4B1B8840F20342934254
:1006700002D90B4B01221A70054B1B8801339AB229
:10068000034B1A8000BF80BD00080E40B719400020
:10069000920E0020940E00207D1A40008C0A00204B
:1006A000910E002080B582B000AF78607B68072B88
:1006B00031D801A252F823F015074000D9064000B6
:1006C000E1064000E9064000F1064000F90640005E
:1006D000010740000B0740000020114B98471AE02B
:1006E00001200F4B984716E000200E4B984712E070
:1006F00010200C4B98470EE020200A4B98470AE048
:100700003E210020084B984705E03E210120064B82
:10071000984700E000BF00BF0837BD4680BD00BF5E
:10072000C514400031154000A115400080B582B0CD
:1007300000AF78607B68072B26D801A252F823F01F
:1007400061074000650740006507400077074000EB
:1007500077074000770740007707400077074000A1
:10076000012312E00B4B98470346002B14BF0123D3
:100770000023DBB209E0084B98470346002B14BF67
:1007800001230023DBB200E0002318460837BD46F2
:1007900080BD00BFFD1440001916400080B483B036
:1007A00000AF78607B68072B25D801A252F823F0B0
:1007B000D1074000D7074000DD074000E3074000B5
:1007C000E7074000EB074000EF074000F307400059
:1007D0004FF4FA4310E04FF400430DE04FF40043B0
:1007E0000AE0084B08E0084B06E0084B04E0074B22
:1007F00002E0064B00E0002318460C37BD4680BCE3
:10080000704700BF00093D0000127A00001BB700CE
:1008100080B582B000AF0346FB7100BFFB7918467C
:10082000054B9847034683F00103DBB2002BF5D15B
:1008300000BF0837BD4680BD2D07400080B586B09B
:1008400000AFF8607A603B600B46FB72FB7A18469B
:100850000D4B984702467B68B2FBF3F37B617B69E3
:100860003A6802FB03F37B613B68013B1A04074BC8
:1008700013407A68D2B2134343F47C52FB681A6087
:1008800000BF1837BD4680BD9D0740000000FF0730
:1008900080B582B000AF786039603B68002B08D12A
:1008A000094B9847094A7B681B6843F000539362E1
:1008B00005E0074B9847054A7B681B68D36200BF79
:1008C0000837BD4680BD00BF3116400000040E4011
:1008D0006116400080B582B000AF78607B68002B65
:1008E00003D1054B9847034602E0044B9847034663
:1008F00018460837BD4680BD4916400079164000AD
:1009000080B582B000AF0346FB71FB79033B042B3B
:1009100008D8FB791846064B9847FB791846054BD3
:10092000984700E000BF00BF0837BD4680BD00BF4C
:10093000A50640001108400080B582B000AF786085
:1009400000BF7868044B98470346002BF9D000237A
:1009500018460837BD4680BDD508400080B500AFB9
:100960000620044B9847024613469B0013449B0005
:10097000184680BD9D07400080B500AF024B9847E8
:1009800003465B08184680BD5D09400090B583B002
:1009900000AF1148114B98470620114B9847381D5E
:1009A0001423012206210F4CA0473B1D00211846AD
:1009B0000D4B984700200D4B984710200C4B984743
:1009C0000C4B98470C4B984703461846034B9847E7
:1009D00000BF0C37BD4690BD000E2707511D4000DB
:1009E000010940003D0840009108400039094000DD
:1009F00045144000B91B40007909400080B586B01D
:100A000000AFF860B9607A6000237B61FB68002B5F
:100A100012D04FF0FF3313E00B4B1B680B4A1268E8
:100A2000B96810469847BB680133BB607B690133E6
:100A30007B617B68013B7B607B68002BECDC7B6926
:100A400018461837BD4680BD941600209C1600201D
:100A500080B586B000AFF860B9607A6000237B6132
:100A6000FB68012B1ED0FB68022B1BD0FB68032BFD
:100A700018D04FF0FF3319E00E4B1A680E4B186870
:100A8000BB68591CB9601B78194690470346002B78
:100A900002DA4FF0FF3309E07B6901337B617B6849
:100AA000013B7B607B68002BE6D17B6918461837D9
:100AB000BD4680BD981600209C16002080B582B0EF
:100AC00000AF78607868034B984700BF0837BD4691
:100AD00080BD00BF9116400080B500AF0B20054BD4
:100AE00098470C20034B98470D20024B984700BFB6
:100AF00080BD00BFBD0A400080B48DB000AF7860FB
:100B000039607B68FB623B68BB62FB6A7B627B6A25
:100B10005A09FB6A3B623B6A03F01F03012101FA99
:100B200003F3FA61BB61BB6A7B61FB693B613B69B3
:100B300003F5001303F207735B02FB607B6903F0AC
:100B40000803002B03D0FB68BA695A6602E0FB6811
:100B5000BA691A667B6903F01003002B04D0FB68A6
:100B6000BA69C3F8942003E0FB68BA69C3F890201F
:100B70007B6903F02003002B03D0FB68BA691A6578
:100B800002E0FB68BA695A657B6903F0C003002B79
:100B900003D0FB68BA691A6202E0FB68BA695A625C
:100BA0007B6903F08003002B04D0FB68BA69C3F8AB
:100BB000842003E0FB68BA69C3F880207B6903F0F6
:100BC0000103002B06D0FB681A6FBB691A43FB6850
:100BD0001A6706E0FB681A6FBB69DB431A40FB68C3
:100BE0001A677B6903F00203002B06D0FB685A6F7B
:100BF000BB691A43FB685A6706E0FB685A6FBB691A
:100C0000DB431A40FB685A6700BF3437BD4680BCDF
:100C1000704780B48DB000AF78600B46FB707B6886
:100C2000FB62FB7887F82B30FB6A7B627B6A3B6256
:100C30003B6A5B09FB61FB6903F5001303F2077371
:100C40005B02BB6197F82B30012B09D1FB6A7B61FA
:100C50007B6903F01F0301229A40BB691A610CE013
:100C600097F82B30002B08D1FB6A3B613B6903F0FE
:100C70001F0301229A40BB695A61FB6AFB60FB6853
:100C800003F01F0301229A40BB69C3F8A02000BFF4
:100C90003437BD4680BC704780B48BB000AF7860FD
:100CA0000B46FB707B687B62FB7887F823307B6A9E
:100CB000FB61FB69BB61BB695B097B617B6903F518
:100CC000001303F207735B023B6197F82330002B9C
:100CD00009D07B6AFB60FB6803F01F0301229A4086
:100CE0003B691A6308E07B6ABB60BB6803F01F03C3
:100CF00001229A403B695A6300BF2C37BD4680BC35
:100D00007047000080B500AF2448254B9847254B1D
:100D1000984701215720244B984701215720234B06
:100D2000984700210220214B984708210220204BA0
:100D30009847012154201C4B9847012154201B4BFC
:100D4000984701211020184B984701211020174B7C
:100D5000984701215620144B984701215620134BE8
:100D600098474FF000620C211248134B98471349E3
:100D70000C20134B984711490D20114B98470F49F0
:100D80000E200F4B98474FF000610B200C4B9847FB
:100D900008210220064B984700BF80BD50140E402A
:100DA000CD1A4000D90A4000990C4000130C4000B5
:100DB000F90A400000100E40D9114000010000085F
:100DC0002910400080B485B000AFF860B9607A6047
:100DD0007B68002B03D0FB68BA685A6602E0FB68A8
:100DE000BA681A6600BF1437BD4680BC704780B42D
:100DF00087B000AFF860B9607A60FB687A685A64BF
:100E0000BB68B3F1C05F4AD0B3F1C05F08D8B3F19B
:100E1000006F16D0B3F1805F2CD0002B69D064E056
:100E2000B3F1205F65D0B3F1205F03D8B3F1005F69
:100E30004AD05AE0B3F1405F5BD0B3F1605F58D065
:100E400053E0FB681B6F7B61FB681A6F7B68D943BB
:100E50007B690B401A40FB681A67FB685B6F7B611C
:100E6000FB685A6F7B68D9437B690B401A40FB686B
:100E70005A673AE0FB681B6F7B617A687B691A43AB
:100E8000FB681A67FB685B6F7B61FB685A6F7B6866
:100E9000D9437B690B401A40FB685A6725E0FB6821
:100EA0001B6F7B61FB681A6F7B68D9437B690B40C2
:100EB0001A40FB681A67FB685B6F7B617A687B6925
:100EC0001A43FB685A6710E0FB681B6F7B617A6806
:100ED0007B691A43FB681A67FB685B6F7B617A6802
:100EE0007B691A43FB685A6700BFFB687A685A60DF
:100EF00000E000BF1C37BD4680BC704780B584B0A1
:100F000000AFF860B9607A60B968F868194B984723
:100F10007B6803F001031A46B968F868164B9847D6
:100F20007B6803F00A03002B03D0FB68BA681A62DF
:100F300002E0FB68BA685A627B6803F00203002B88
:100F400004D0FB68BA68C3F8802008E07B6803F02F
:100F50000803002B03D0FB68BA68C3F88420FB6841
:100F6000BA685A61FB68BA681A6000BF1037BD469C
:100F700080BD00BFE10F4000C50D400080B584B0CA
:100F800000AFF860B9607A603B60B968F868124BEE
:100F90009847BA69B968F868104B98473B68002BC6
:100FA00003D0FB68BA681A6502E0FB68BA685A6544
:100FB0007B68002B03D0FB68BA681A6302E0FB6809
:100FC000BA685A63FB68BA681A61FB68BA681A6043
:100FD00000BF1037BD4680BDE10F4000C50D400089
:100FE00080B483B000AF786039607B683A685A6437
:100FF00000BF0C37BD4680BC704780B483B000AFE3
:1010000078607B68DB6C18460C37BD4680BC704747
:1010100080B483B000AF78607B689B6C18460C3757
:10102000BD4680BC7047000090B587B002AF7860C5
:1010300039607868634B9847F8603B6803F0F04389
:10104000B3F1005F67D0B3F1005F09D8B3F1805FFF
:101050002BD0B3F1C05F43D0B3F1006F0AD0A9E049
:10106000B3F1405F7ED0B3F1605F7BD0B3F1205F1E
:101070006CD09FE07B6803F01F03012202FA03F3A8
:101080001A464FF00061F8684F4B98477B6803F0B1
:101090001F03012202FA03F319463B6803F0010320
:1010A0001A46F868494B984786E07B6803F01F03AF
:1010B000012202FA03F31A464FF08051F868424BBE
:1010C00098477B6803F01F03012202FA03F31946D5
:1010D0003B6803F001031A46F8683C4B98476BE005
:1010E0007B6803F01F03012202FA03F31A464FF054
:1010F000C051F868344B98477B6803F01F03012206
:1011000002FA03F319463B6803F001031A46F86834
:101110002E4B984750E07B6803F01F03012202FA30
:1011200003F31A464FF00051F868274B98477B6845
:1011300003F01F03012202FA03F319463B6803F090
:1011400001031A46F868214B984735E07B6803F0A5
:101150001F03012202FA03F33A681946F8681C4B90
:10116000984729E07B6803F01F03012202FA03F38A
:1011700019463B6803F06053B3F1605F0CBF012375
:101180000023DBB21A463B6803F00403002B14BFB4
:1011900001230023DBB218463B6803F00103002B58
:1011A00014BF01230023DBB200930346F868094C07
:1011B000A04701E0002300E0012318461437BD4694
:1011C00090BD00BF05134000EF0D4000C50D40006D
:1011D000FD0E40007D0F400090B587B002AFF86073
:1011E000B9607A607B6803F0F043B3F1005F43D0ED
:1011F000B3F1005F09D8B3F1805F1FD0B3F1C05FD6
:101200002BD0B3F1006F0AD06DE0B3F1405F48D04E
:10121000B3F1605F45D0B3F1205F3CD063E0BA68C2
:101220004FF00061F868334B98477B6803F0010387
:101230001A46B968F868304B984756E0BA684FF0DC
:101240008051F8682B4B98477B6803F001031A46DE
:10125000B968F868284B984747E0BA684FF0C05122
:10126000F868244B98477B6803F001031A46B96875
:10127000F868214B984738E0BA684FF00051F86899
:101280001C4B98477B6803F001031A46B968F8685D
:10129000194B984729E07A68B968F868174B98475E
:1012A00023E07B6803F06053B3F1605F0CBF012360
:1012B0000023DBB21A467B6803F00403002B14BF43
:1012C00001230023DBB219467B6803F00103002BE6
:1012D00014BF01230023DBB200930B46B968F86802
:1012E000074CA04701E0002300E001231846143713
:1012F000BD4690BDEF0D4000C50D4000FD0E400005
:101300007D0F400080B485B000AF78607B685B09DA
:1013100003F5001303F207735B02FB60FB681846DA
:101320001437BD4680BC704780B584B000AF78608C
:10133000396078682C4B9847F86078682B4B984751
:101340000246FB681340FB60FB68002B3CD0002387
:10135000BB6034E0264ABB681B0113441A683B6833
:101360009A4226D1224ABB681B01134404331A68EF
:10137000FB681340002B1CD01D4ABB681B011344A3
:101380000C331B681A49BA6812010A4410681849DC
:10139000BA6812010A440432126811469847144A86
:1013A000BB681B01134404331B68DB43FA6813401A
:1013B000FB60BB680133BB60BB68062B03D8FB68CE
:1013C000002BC7D100E000BF0A4B1B68002B07D0E1
:1013D000094B1B68002B03D0074B1B6878689847A4
:1013E00000BF1037BD4680BDFB0F4000111040000C
:1013F000DC090020A01600204C0A002080B500AFB8
:101400000B210248024B984700BF80BD000E0E40E2
:101410002913400080B500AF0C210248024B9847C9
:1014200000BF80BD00100E402913400080B500AF02
:101430000D210248024B984700BF80BD00120E40AC
:101440002913400080B485B000AF78601C491C4B64
:101450001B6B23F070027B6813430B634FF4006334
:10146000FB6007E0FB68002B01D1012323E0FB6850
:10147000013BFB60124B9B6E03F00803002BF1D085
:101480000F4A0F4B1B6B23F0030343F0020313635C
:101490004FF40063FB6007E0FB68002B01D10123E0
:1014A00009E0FB68013BFB60054B9B6E03F0080302
:1014B000002BF1D0002318461437BD4680BC70477E
:1014C00000040E4080B483B000AF78607B68012BCD
:1014D00007D1084A074B9B6843F0254343F4801328
:1014E0009360044B044A1A6000BF0C37BD4680BCB1
:1014F000704700BF10140E40080000A580B400AF74
:10150000094B5B6903F08003002B07D0074B9B6EF0
:1015100003F08003002B01D0012300E000231846D4
:10152000BD4680BC704700BF10140E4000040E4042
:1015300080B483B000AF7860184A184B1B6A43F43C
:101540005C1343F00803136200BF144B9B6E03F45B
:101550000033002BF9D01149104B1B6A23F45C13A4
:1015600023F070037A68134343F45C130B6200BFEB
:101570000A4B9B6E03F40033002BF9D0074A074B4C
:101580001B6A23F09B7323F4803343F45C131362D0
:1015900000BF0C37BD4680BC704700BF00040E4042
:1015A00080B483B000AF786039607B68002B08D0CE
:1015B0001649164B1B6A164A1A40164B13430B6208
:1015C0001EE01249114B1B6A23F45C1323F0030342
:1015D0003A68120292B2134343F45C1343F00103DE
:1015E0000B6200BF094B9B6E03F00103002BF9D087
:1015F000064A064B1B6A43F09B7343F48033136225
:1016000000BF0C37BD4680BC704700BF00040E40D1
:10161000FCFFC8FE0200370180B400AF034B9B6E95
:1016200003F480331846BD4680BC704700040E406A
:1016300080B400AF034B4FF000529A6200BFBD462A
:1016400080BC704700040E4080B400AF034B9B6E1B
:1016500003F002031846BD4680BC704700040E40EC
:1016600080B400AF034B0022DA6200BFBD4680BCED
:10167000704700BF00040E4080B400AF034B9B6E68
:1016800003F004031846BD4680BC704700040E40BA
:1016900080B483B000AF78607B68222B01D901232E
:1016A0002FE07B681F2B13D8184B9A6901217B68A8
:1016B00001FA03F31A4001217B6801FA03F39A420D
:1016C0001ED0124A01217B6801FA03F3136117E06F
:1016D0007B68203B7B600D4BD3F8082101217B68A0
:1016E00001FA03F31A4001217B6801FA03F39A42DD
:1016F00006D0064A01217B6801FA03F3C2F80031E3
:10170000002318460C37BD4680BC704700040E40CD
:1017100080B485B000AF786039600023FB607B68DF
:10172000AC221A603B681A683B685B68B2FBF3F353
:101730001B09FB60FB68002B03D0FB68B3F5803FFF
:1017400001D301230FE07B68FA681A623B689A684C
:101750007B685A607B6840F20222C3F820217B68D4
:1017600050221A60002318461437BD4680BC7047CB
:1017700080B483B000AF78600B46FB707B685B6918
:1017800003F00203002B01D1012303E0FA787B6808
:10179000DA61002318460C37BD4680BC704780B420
:1017A00083B000AF786039607B685B6903F0010348
:1017B000002B01D1012305E07B689B69DAB23B680D
:1017C0001A70002318460C37BD4680BC704780B4A1
:1017D00089B000AFF860B9607A60BB681A017B68B5
:1017E0009A4202D81023FB6101E00823FB617B6869
:1017F000DA00FB69B96801FB03F35B081A44FB6973
:10180000B96801FB03F3B2FBF3F3BB61BB69DB080F
:101810007B61BB6903F007033B617B69002B03D04D
:101820007B69B3F5803F01D301230FE0FB69082BEF
:1018300005D1FB685B6843F40022FB685A603B6992
:101840001A047B691A43FB681A620023184624377E
:10185000BD4680BC7047000080B582B000AF7860A4
:1018600078680F4B98477B6800225A607B6800229B
:101870005A627B6800229A6278680A4B98477868B7
:10188000094B98477868094B98477868084B984700
:101890007868084B984700BF0837BD4680BD00BF39
:1018A000AD1A40005519400085194000CD1940007F
:1018B000011A4000E719400080B584B000AFF8601D
:1018C000B9607A60F8681A4B98471A4B00221A6080
:1018D000BB68002B09D0BB681B687A681946F8689A
:1018E000154B98470346002B01D001231BE0BB6832
:1018F0005A68BB689B681A43BB681B691A43BB687C
:10190000DB681A430B4B1B6813430A4A1360094BED
:101910001B68084A1360FB685A68064B1B681A4329
:10192000FB685A60002318461037BD4680BD00BFD3
:1019300059184000500A0020CF17400080B483B0EF
:1019400000AF78607B6840221A6000BF0C37BD464C
:1019500080BC704780B483B000AF78607B68882219
:101960001A6000BF0C37BD4680BC704780B483B09E
:1019700000AF78607B6810221A6000BF0C37BD464C
:1019800080BC704780B483B000AF78607B6824224D
:101990001A6000BF0C37BD4680BC704780B483B06E
:1019A00000AF786039607B683A689A6000BF0C3796
:1019B000BD4680BC704780B483B000AF78607B6860
:1019C0001B6918460C37BD4680BC704780B483B095
:1019D00000AF78607B684FF480721A6000BF0C37EC
:1019E000BD4680BC704780B483B000AF78607B6830
:1019F0004FF400321A6000BF0C37BD4680BC704700
:101A000080B483B000AF78607B684FF400221A6026
:101A100000BF0C37BD4680BC704780B483B000AFB8
:101A2000786039607B685B6903F00203002B01D1A9
:101A3000012305E03B68C3F308027B68DA610023F9
:101A400018460C37BD4680BC704780B483B000AFE9
:101A5000786039607B685B6903F00103002B01D17A
:101A6000012306E07B689B69C3F308023B681A60A8
:101A7000002318460C37BD4680BC704780B483B045
:101A800000AF7860396000BF7B685B6903F00103D9
:101A9000002BF9D07B689B69C3F308023B681A608E
:101AA000002318460C37BD4680BC704780B483B015
:101AB00000AF78607B68044AC3F8E42000BF0C37AD
:101AC000BD4680BC704700BF0041535580B483B011
:101AD00000AF78607B684FF400425A6000BF0C375B
:101AE000BD4680BC7047000080B584B000AF274B76
:101AF000FB60274BBB60FA68BB689A420DD907E0D0
:101B0000BB681A1DBA60FA68111DF96012681A6084
:101B1000BB68204A9342F3D320E0FA68BB689A423C
:101B20001CD21C4A1A4BD31A7B60FA687B68134498
:101B3000043BFB60BA687B681344043BBB600AE06B
:101B4000BB681A1FBA60FA68111FF96012681A6040
:101B50007B68043B7B607B68002BF1D100BF0E4BA0
:101B6000BB6004E0BB681A1DBA6000221A60BB6843
:101B70000A4A9342F6D30A4BFB600A4AFB68936019
:101B8000094B9847094B9847FEE700BFB851400002
:101B900000000020C0090020C0090020CC16002051
:101BA0000000400000ED00E0912340006D1F400068
:101BB00080B400AFFEE7000080B400AF5D4B1B6B4C
:101BC00003F00303032B00F2968001A252F823F0E6
:101BD000E11B4000011C40004B1C40004B1C40001E
:101BE000554B5B6903F08003002B04D0534B4FF43B
:101BF00000421A6080E0514B4FF4FA421A607BE0D9
:101C00004C4B1B6A03F08073002B03D04B4B4C4AA8
:101C10001A6071E0494B4B4A1A60464B1B6A03F04D
:101C20007003102B08D0202B0AD0002B00D00BE023
:101C3000424B444A1A6007E0404B434A1A6003E0B3
:101C40003E4B3F4A1A6000BF56E03A4B1B6A03F016
:101C50008073002B03D0394B394A1A6019E0374B97
:101C6000384A1A60334B1B6A03F07003102B08D0FC
:101C7000202B0AD0002B00D00BE0304B314A1A60E9
:101C800007E02E4B304A1A6003E02C4B2C4A1A60B6
:101C900000BF284B1B6B03F00303022B15D1254B10
:101CA0009B6A1B0CC3F30A030133244A126802FB2C
:101CB00003F3224A13601F4B9B6ADBB21F4A126870
:101CC000B2FBF3F31D4A136016E01A4BDB6A1B0CE0
:101CD000C3F30A030133194A126802FB03F3174ADC
:101CE0001360144BDB6ADBB2144A1268B2FBF3F3E5
:101CF000124A136000E000BF0E4B1B6B03F0700331
:101D0000702B08D10D4B1B68104AA2FB03235B0804
:101D10000A4A13600AE0074B1B6B1B0903F0070319
:101D2000064A126822FA03F3044A136000BFBD4654
:101D300080BC704700040E4010140E400C000020C0
:101D4000001BB70000093D0000127A00ABAAAAAA46
:101D500080B483B000AF78607B68224A934208D891
:101D6000214B4FF080621A60204B4FF080621A6066
:101D700033E07B681E4A934206D81B4B1D4A1A600B
:101D80001A4B1C4A1A6028E07B681B4A934206D80B
:101D9000154B1A4A1A60154B184A1A601DE07B68E9
:101DA000174A934206D8104B164A1A600F4B154A31
:101DB0001A6012E07B68144A934208D80A4B4FF02D
:101DC00004221A60094B4FF004221A6005E0064B0A
:101DD0000E4A1A60054B0D4A1A6000BF0C37BD460B
:101DE00080BC7047FF2C3101000A0E40000C0E40F1
:101DF000FF59620200010004FF8693030002000401
:101E0000FFB3C40400030004FFE0F505000500046F
:101E100080B485B000AF7860104BFB60104B1B683E
:101E2000002B02D10E4B0F4A1A600D4B1B68BB6092
:101E3000BA687B681A44FB689A4202DD4FF0FF33B0
:101E400006E0074B1A687B681344054A1360BB68B9
:101E500018461437BD4680BC704700BFFC7F022087
:101E6000540A0020D046002080B483B000AF7860D0
:101E70004FF0FF3318460C37BD4680BC704780B426
:101E800083B000AF786039603B684FF400525A600D
:101E9000002318460C37BD4680BC704780B483B021
:101EA00000AF7860012318460C37BD4680BC7047F0
:101EB00080B485B000AFF860B9607A60002318463E
:101EC0001437BD4680BC704780B483B000AF7860E3
:101ED0007B68072B25D801A252F823F0FD1E400095
:101EE000031F4000091F40000F1F4000131F400048
:101EF000171F40001B1F40001F1F40004FF4FA43F4
:101F000010E04FF400430DE04FF400430AE0084BAB
:101F100008E0084B06E0084B04E0074B02E0064BE4
:101F200000E0002318460C37BD4680BC704700BF58
:101F300000093D0000127A00001BB70080B500AF19
:101F40000620044B9847024613469B0013449B000F
:101F5000184680BDC91E400080B500AF024B9847AF
:101F600003465B08184680BD3D1F40002DE9F8433D
:101F700000AF384B9847384B9847384B9847384B09
:101F80009847034619464FF000020B461446DB18EB
:101F900044EB04045B1844EB02044FEA441949EA99
:101FA000D3694FEA431813EB080344EB09045B18A9
:101FB00044EB020443F2AF614FF0000213EB01085F
:101FC00044EB020940464946264C43F2B0624FF0CA
:101FD0000003A04703460C461846234B9847682049
:101FE000224B98476920214B98472148214B98471D
:101FF0002148224B98471A4B9847034619464FF001
:1020000000020B461446DB1844EB04045B1844EB57
:102010000204660146EAD3665D015B1944EB0604DF
:102020005B1844EB020443F2AF614FF0000213EB84
:10203000010844EB0209404649460A4C43F2B062AB
:102040004FF00003A04703460C461846064B98473E
:10205000D1E700BF8D094000050D4000E1044000BC
:10206000591F400081204000010000203105400040
:102070000C5040006505400014504000E123400032
:1020800053B94AB9002908BF00281CBF4FF0FF31DF
:102090004FF0FF3000F07AB9ADF1080C6DE904CED5
:1020A00000F006F8DDF804E0DDE9022304B0704733
:1020B0002DE9F0478C460D460446089E002B51D171
:1020C0008A4217466DD9B2FA82FEBEF1000F0BD0DC
:1020D000CEF1200C01FA0EF520FA0CFC02FA0EF7F4
:1020E0004CEA050C00FA0EF44FEA174A250CBCFB2B
:1020F000FAF81FFA87F90AFB18CC45EA0C4508FBE9
:1021000009F3AB420AD9ED1908F1FF3280F02381BF
:10211000AB4240F22081A8F102083D44ED1AA4B27E
:10212000B5FBFAF00AFB105544EA054400FB09F937
:10213000A14509D9E41900F1FF3380F00A81A145D6
:1021400040F2078102383C44A4EB090440EA08400D
:102150000021002E61D024FA0EF400233460736055
:10216000BDE8F0878B4207D9002E54D0002186E8C5
:1021700021000846BDE8F087B3FA83F1002940F05A
:102180008E80AB4202D3824200F2FA80841A65EB61
:1021900003050120AC46002E3FD086E81010BDE8B4
:1021A000F08712B90127B7FBF2F7B7FA87FEBEF145
:1021B000000F34D1EB1B3A0C1FFA87FC0121B3FB53
:1021C000F2F8250C02FB183345EA03450CFB08F333
:1021D000AB4207D9ED1908F1FF3002D2AB4200F251
:1021E000D1808046ED1AA3B2B5FBF2F002FB105588
:1021F00043EA05440CFB00FCA44507D9E41900F1AF
:10220000FF3302D2A44500F2B8801846A4EB0C04B8
:1022100040EA08409DE731463046BDE8F087CEF100
:10222000200405FA0EF307FA0EF720FA04F83A0C28
:1022300025FA04F448EA0308B4FBF2F14FEA184522
:1022400002FB11441FFA87FC45EA044501FB0CF32D
:10225000AB4200FA0EF409D9ED1901F1FF3080F01C
:102260008A80AB4240F2878002393D44EB1A1FFA64
:1022700088F5B3FBF2F002FB103345EA034500FB9F
:102280000CF3AB4207D9ED1900F1FF386FD2AB4226
:102290006DD902383D44EB1A40EA01418FE7C1F1A4
:1022A000200722FA07F88B4005FA01F448EA0303F5
:1022B00020FA07FE4FEA134CFD404EEA040EB5FB30
:1022C000FCF94FEA1E440CFB19551FFA83F844EA47
:1022D000054509FB08F4AC4202FA01F200FA01FAE2
:1022E00008D9ED1809F1FF3043D2AC4241D9A9F128
:1022F00002091D442D1B1FFA8EFEB5FBFCF00CFBE2
:1023000010554EEA054400FB08F8A04507D9E4182B
:1023100000F1FF3529D2A04527D902381C4440EAF4
:102320000940A4EB0804A0FB02894C45C6464D4673
:1023300015D312D056B1BAEB0E0364EB050404FAC0
:1023400007F7CB401F43CC40376074600021BDE8E5
:10235000F0871846F8E69046E0E6C245EAD2B8EBC8
:10236000020E69EB03050138E4E72846D7E740464B
:1023700091E78146BEE7014678E702383C4445E7ED
:10238000084608E7A8F102083D442BE7704700BF64
:1023900070B50F4E0F4D761BB61018BF002405D038
:1023A000013455F8043B9847A642F9D10A4E0B4D2B
:1023B000761B02F0EBFEB61018BF002406D00134E5
:1023C00055F8043B9847A642F9D170BD70BD00BFD7
:1023D0009851400098514000A05140009851400051
:1023E0000FB400B5074983B004AB086853F8042B59
:1023F0008168019300F0B2FC03B05DF804EB04B017
:10240000704700BF10000020024B0146186800F022
:1024100003B800BF100000202DE9F04F01F10B06BA
:10242000162E83B0054640F29E8036F0070600F176
:10243000BD80B14200F2BA8000F0ECFAB6F5FC7F44
:10244000C0F09382730A00F0B880042B00F2798107
:10245000B30903F1390003F1380EC300BF4F3B4409
:10246000A3F108015C68A14206D10CE0002A80F2C9
:10247000AA80E468A14206D0636823F003039A1B94
:102480000F2AF3DD70463C69DFF8E4E2744500F0A2
:10249000AB81636823F003039A1B0F2A00F390813A
:1024A000002AC7F814E0C7F810E080F29D80B3F569
:1024B000007F80F06181DB0803F1010C99107A68DC
:1024C00057F83C80C4F8088001238B4007EBCC010F
:1024D00013430839E1607B6047F83C40C8F80C4082
:1024E0008210012494409C4200F28B801C4206D151
:1024F00020F0030064001C4200F10400FAD007EB56
:10250000C009CC468046DCF80C309C4507D16DE113
:10251000002A80F27B81DB689C4500F06781596866
:1025200021F003018A1B0F2AF2DDD3F80CC0D3F887
:10253000088000939C19284646F0010642F00105E8
:102540005E60C8F80CC0CCF808807C613C61C4F8BF
:102550000CE0C4F808E065605A5000F061FA009B96
:1025600003F108041EE0102920D800F053FA1026C9
:1025700018230220794F3B44A3F108025C6894427F
:1025800000F03D816368E168A66823F003032344FB
:1025900028465A68F16042F001028E605A6000F0ED
:1025A0003FFA0834204603B0BDE8F08F00240C2326
:1025B00020462B6003B0BDE8F08F40204FF400733D
:1025C0004FF03F0E4AE72344E1685A68A66842F09C
:1025D0000102F16028468E605A6000F021FA08344A
:1025E000204603B0BDE8F08F234428465A6842F0E5
:1025F00001025A6000F014FA0834204603B0BDE826
:10260000F08FBC68636823F00308B04504D3A8EBDF
:1026100006030F2B00F38580DFF85891504BD9F853
:1026200000201B680132334404EB080A00F0558196
:1026300003F580530F3323F47F6B2BF00F0B5946B8
:10264000284600F0F3F9411C024600F0FC80824568
:1026500000F2F780434B19685944196000F04D812E
:10266000D9F8000001301BBFA2EB0A0A5144C9F897
:102670000020196012F0070100F01581C1F1080077
:10268000C1F580510244083102EB0B09C9F30B0973
:10269000A1EB0909494628460193009200F0C6F9CA
:1026A000431C9DE80C0000F04381801A484440F030
:1026B00001001968BA604944BC425060196017D0E3
:1026C000B8F10F0F40F2FB806068A8F10C0222F015
:1026D000070204EB020E00F001004FF0050C10435E
:1026E0000F2A6060CEF804C0CEF808C000F217814F
:1026F0001D4BBC681A68914288BF19601B4B1A6851
:102700009142626888BF196022F003029642A2EBF0
:10271000060301D80F2B04DC284600F081F90024C1
:1027200040E7A21943F0010346F00106666028461F
:10273000BA60536000F074F90834204603B0BDE875
:10274000F08F142B71D9542B00F2A380330B03F1BB
:102750006F0003F16E0EC30080E600BF400400204E
:10276000880A0020580A0020800A0020840A0020DD
:1027700048040020480800205A0A042A5BD9142A79
:1027800000F2AE8002F15C01C9005B3207EB010C84
:102790007958ACF1080C8C4500F088804A6822F02A
:1027A0000302934273D289688C45F7D1DCF80C2080
:1027B0007B68E260C4F808C09460CCF80C408FE6F7
:1027C000A11946F0010C42F00106C4F804C02846E5
:1027D00079613961C1F80CE0C1F808E04E60E2505F
:1027E00000F01EF90834DDE67B6879E608F101089F
:1027F00018F0030F0CF1080C7FF485AE2DE0DC68B7
:10280000A34208BF02303FF43EAEBBE619441C466B
:102810004A68DB6854F8086F42F001024A602846B3
:10282000F3609E6000F0FCF8BCE603F15C0003F18D
:102830005B0EC30012E69A0902F13901C900383271
:10284000A4E7BC4254D0BC68626822F003025DE792
:1028500059F80839994540F0868010F0030F00F1CF
:10286000FF30F5D17B6823EA04037B6064009C425F
:102870003FF6C7AE002C3FF4C4AE1C4240467FF486
:102880003EAE64001C4200F10400FAD037E68C46EC
:102890008CE7B3F5AA7F15D8F30B03F1780003F1A9
:1028A000770EC300DAE54FF48051EDE67B689210B5
:1028B000012101FA02F213437B60624679E70123AA
:1028C000536029E740F25452934222D8B30C03F1EB
:1028D0007D0003F17C0EC300C0E503F1100BAEE6F2
:1028E000542A29D81A0B02F16F01C9006E324DE744
:1028F000204B196859441960B2E6CAF30B0000284E
:102900007FF4AEAE08EB0B03BA6843F001035360EB
:10291000EEE67F204FF47E734FF07E0E9EE504F1CD
:1029200008012846009301F035FB009B1968DFE69B
:1029300001204FF00009BCE6B2F5AA7F05D8DA0BFA
:1029400002F17801C900773220E740F254518A42FF
:1029500005D89A0C02F17D01C9007C3216E74FF4CC
:102960007E717E2212E77B6880E7F00806F108039B
:1029700000E600BF580A002070B4860746D0541EF7
:10298000002A41D0CAB2034602E014F1FF343BD31F
:1029900003F8012B9D07F8D1032C2ED9CDB245EABF
:1029A00005250F2C45EA054519D903F110022646E5
:1029B000103E0F2E42F8105C42F80C5C42F8085CA6
:1029C00042F8045C02F11002F2D8A4F1100222F0E5
:1029D0000F0204F00F041032032C13440DD91E46CD
:1029E0002246043A032A46F8045BFAD8221F22F052
:1029F00003020432134404F003042CB1C9B21C4492
:102A000003F8011B9C42FBD170BC7047144603467F
:102A1000C2E700BF014801F057BD00BFB416002057
:102A2000014801F053BD00BFB416002038B5074C73
:102A30000023054608462360FFF7EAF9431C00D04F
:102A400038BD2368002BFBD02B6038BDC816002092
:102A500000290CBF022200224FF4806300F000B86E
:102A60002DE9F043614C256883B004460F4690463B
:102A70001E4615B1AB6B002B64D0B8F1020F06D027
:102A8000B8F1010F00F29F80002EC0F29C80636EAF
:102A9000D80734D52146284601F0FEF8216B41B114
:102AA00004F14003994202D0284601F073FA002352
:102AB0002363B4F90C300022A26162601A063AD492
:102AC00023F44A6323F00303B8F1020FA3811DD05E
:102AD00001AB6A462146284601F0FAFCA389184357
:102AE000A081002E32D1009E3046FFF78DFC0746B4
:102AF00000286BD0A38943F08003A38128E0A38939
:102B00009905C7D4A06D01F0DFFCC3E70025616E15
:102B1000002604F1430243F002030120A660CE0721
:102B2000A38122602261606101D498053ED52846C8
:102B300003B0BDE8F0832169284601F02BFAB4F90F
:102B40000C30BDE7284601F0FFF896E7002FCBD008
:102B5000AB6B002B33D0009BB4F90C2027609E4256
:102B60001CBF42F40062A281B8F1010F04BF42F021
:102B70000102A28192B212F00803276166610ED0B1
:102B8000D1071AD5656E7642002315F00105A661BE
:102B9000A36009D00025284603B0BDE8F083A360F8
:102BA000656E15F00105F5D19305C0D4A06D01F057
:102BB0008DFC284603B0BDE8F083A660F0E7284608
:102BC00001F0C2F8C7E74FF0FF35B0E7DDF800903D
:102BD000B14504D04846FFF717FC074620B9B4F9C1
:102BE0000C304FF0FF3592E74E4683E7100000208F
:102BF00000000000000000000000000000000000D5
:102C000090F800F06DE9024520F007016FF0000C2C
:102C100010F0070491F820F040F049804FF00004D4
:102C20006FF00700D1E9002391F840F000F10800AF
:102C300082FA4CF2A4FA8CF283FA4CF3A2FA8CF3E7
:102C40004BBBD1E9022382FA4CF200F10800A4FA4E
:102C50008CF283FA4CF3A2FA8CF3E3B9D1E90423A2
:102C600082FA4CF200F10800A4FA8CF283FA4CF3D9
:102C7000A2FA8CF37BB9D1E9062301F1200182FA93
:102C80004CF200F10800A4FA8CF283FA4CF3A2FA99
:102C90008CF3002BC6D0002A04BF04301A4612BAA7
:102CA000B2FA82F2FDE8024500EBD2007047D1E9AA
:102CB000002304F00305C4F100004FEAC50514F039
:102CC000040F91F840F00CFA05F562EA05021CBF0A
:102CD00063EA050362464FF00004A9E72DE9F84FC7
:102CE0004B6E9C0493462FD59368126853B30E46DF
:102CF000074602F1080919E920045FEA9A0817D08B
:102D0000043D002401E0A04510D0324655F8041FD0
:102D1000384601F0BBF8431C04F10104F3D1002351
:102D2000CBF80830CBF80430BDE8F88FDBF808307A
:102D30002AF0030AA3EB0A03CBF8083009F10809CB
:102D4000002BD8D10020EAE701F00AFA0023CBF8E3
:102D50000830CBF80430BDE8F88F00BF2DE9F04F04
:102D6000ADB01D468B4690460793069018B1836B15
:102D7000002B00F0F380DBF86430BBF90C00DF07B8
:102D800081B202D48E0540F1FC808C040AD4DBF8B9
:102D9000643040F4005123F40053ABF80C10CBF82E
:102DA000643089B2080740F1B380DBF81030002BA3
:102DB00000F0AE8001F01A030A2B00F0B58000236A
:102DC0000DF170090B93119310930393CDF83C9080
:102DD000CA46CDF810B098F800304446FBB1252B18
:102DE00002D11CE0252B03D014F8013F002BF9D1B0
:102DF000A4EB08059DB1109B119ACAF8008001331D
:102E00002A44072BCAF80450119210937ADD002A45
:102E100040F0B084039B10922B44CA46039323785E
:102E2000002B00F0E08300204FF000038DF83730D6
:102E300004F1010862780546064603464FF0FF3468
:102E400008F10108A2F12001582900F2DE82DFE832
:102E500011F02102DC02DC022902DC02DC02DC02CD
:102E6000DC02DC02DC0289029502DC02A200BD0267
:102E7000DC029F01A401A401A401A401A401A401F6
:102E8000A401A401A401DC02DC02DC02DC02DC02FD
:102E9000DC02DC02DC02DC02DC02B201DC02DC026D
:102EA000DC02DC02DC02DC02DC02DC02DC02DC0232
:102EB0009701DC02DC02DC02DC02DC029B01DC02AA
:102EC000DC025302DC02DC02DC02DC02DC02DC029B
:102ED000DC02DC02DC02DC025A021B02DC02DC0245
:102EE000DC026E021B02DC02DC027302DC02F50172
:102EF00082010902D702DC029A02DC02A700DC028E
:102F0000DC022E020AF1080A039B2B44039386E796
:102F10005946069800F0ACFD18BBBBF80C1001F048
:102F20001A030A2B7FF44BAFBBF90E30002BFFF6D0
:102F300046AFDBF86430DB0705D48F0503D4DBF83C
:102F4000580001F0C3FA2B4642465946069800F055
:102F50004DFD039003982DB0BDE8F08F00F0F4FE16
:102F600009E7DBF86430D90704D4BBF80C309A05C4
:102F700040F1AA844FF0FF33039303982DB0BDE8CE
:102F8000F08FDBF8580001F09FFABBF90C0081B21A
:102F9000FBE67642079243F0040398F800204FE7DF
:102FA00008969E0600F150840799DD060A4600F156
:102FB000EF83580640F1EC830E880431002701228C
:102FC00007914FF000018DF837100025611C00F0CB
:102FD000168123F08001029156EA070140F0148126
:102FE000002C40F05C83002A40F0B78313F001030B
:102FF000059300F057840DF1B00B30230BF8413DE1
:10300000059BA342B8BF234601930DB10133019341
:10301000029B13F00203099302D0019B0233019338
:10302000029B13F084030A9340F01782089B019AD5
:103030009D1A002D40F31182102D40F39084109BB7
:10304000119AC44ED6461027A2461946069C07E0A0
:1030500001F1020C0EF1080E0146103D102D11DD9C
:10306000481C1032072811928EE8C0001090EFDD46
:10307000002A40F0E481103D102D11464FF0010C64
:10308000CE46EDDC54466146F2462A4407291192A9
:10309000CAF80060CAF80450109100F3EC829DF861
:1030A00037500AF1080A481C002D40F0DE81099BC8
:1030B000002B00F0F88102320EA90223072811929A
:1030C00010908AE80A0040F3EA81002A40F08C83DD
:1030D0000A9B802B4FF001001146CA4640F0E78161
:1030E000089B019D5E1B002E40F3E181102E9A4D3E
:1030F00040F35084D4461027A246069C07E001F115
:10310000020E0CF1080C0146103E102E11DD481C79
:103110001032072811928CE8A0001090EFDD002AF1
:1031200040F09D82103E102E4FF0010E1146CC460D
:10313000EDDC5446E2463244BEF1070F11928AE8B4
:103140006000CDF840E000F369830AF1080A0EF14F
:1031500001007146ABE1089613F0200240F08C8329
:1031600013F0100140F01A8313F0400200F01683B0
:1031700007980A460146043106880791002720E790
:10318000089643F01003E7E7089643F0100308E7BA
:1031900043F0800398F8002052E6A2F130010026A7
:1031A00018F8012B06EB860601EB4606A2F130016A
:1031B0000929F5D946E60896002840F0088443F02E
:1031C00010039E0600F14C83DD0600F1F3825806E1
:1031D00040F1F082079DB5F900602A46F7170432E6
:1031E000304639460792002871F10002C0F25D8333
:1031F000611C9DF837504FF001027FF4EAAE56EAA9
:10320000070100F04D820293012A00F08C82022A0D
:1032100040F05C820B98CB46330906F00F0143EA7D
:1032200007733A091E461746435C0BF8013D56EA00
:103230000703F1D1A9EB0B030593E1E6002840F069
:10324000C083990600F16783DA0600F1F1805B061E
:1032500040F1EE80079A136804320792BDF80C2003
:103260001A80B8E507983D4A08960B9206687822BE
:10327000302104308DF8392043F0020307900027F5
:103280008DF8381002229CE60896002899D08DF817
:10329000375096E798F80020002D7FF4D1AD01203B
:1032A0002025CDE543F0010398F80020C8E50896F5
:1032B000002840F0938329490B919F0600F1E88292
:1032C0000798DE06014600F170825D0640F16D82CE
:1032D0000431068807910027D80740F1228256EA78
:1032E000070100F01E8230218DF8392043F00203DF
:1032F0008DF83810022264E60896002840F06B83AF
:1033000017490B91D9E7079908960A688DF8482064
:103310004FF000000A468DF837000432012001907A
:10332000079205900DF1480B0293002470E643F0DC
:10333000400398F8002083E598F800206C2A03BF2A
:1033400098F8012043F0200308F1010843F010032E
:1033500076E500BF58504000685040003C504000A7
:103360002850400007990E680A46002E02F1040218
:10337000FFF60FAE079298F8002061E598F800205C
:1033800001202B255CE507990896D1F800B04FF095
:1033900000028DF837200E1DBBF1000F00F0E58212
:1033A000671C00F0C482224600215846019301F0B8
:1033B0001FF9019B002800F0E582A0EB0B020592AB
:1033C000079602939DF83750002419E698F80020DC
:1033D0002A2A08F1010700F0E982A2F13001092947
:1033E000B8464FF000043FF62DAD18F8012B04EB62
:1033F000840401EB4404A2F130010929F5D921E547
:1034000043F0200398F800201AE50896002840F0C1
:10341000DB82002A00F0E78001218DF848204FF080
:10342000000201918DF8372005910DF1480B7BE7E3
:10343000079A136804320792039A1A60CBE40FAA22
:1034400004992046FFF74AFC002840F03981109982
:10345000119A01F1010CCE46FFE51099119A481C12
:103460009DF83750002D3FF422AE01320DF13705A3
:103470000121072811921090CAF80050CAF80410D0
:1034800040F30881002A40F0BC81099B002B3FF4E7
:103490001FAE0EAB022208461C931D92CA4601467F
:1034A0000AF1080A01300A9B802B3FF419AE059BF4
:1034B000E41A002C2EDD102CB34D1EDDD64610264E
:1034C000069FDDF810A006E0881C0EF1080E1946D4
:1034D000103C102C10DD4B1C1032072B11928EE883
:1034E00060001093F0DD002A65D1103C102C4FF0E5
:1034F00001001146CE46EEDCF24622440728119226
:10350000CAF80050CAF80440109000F385800AF110
:10351000080A01300599CAF800B00A440728119238
:10352000CAF80410109040F38280002A40F01881FD
:10353000029B1092580735D5089B01995C1A002C04
:1035400040F3E780CA46102C40F3188210998F4E42
:10355000069FDDF810B0102506E0881C0AF1080A65
:103560001946103C102C11DD4B1C1032072B119208
:10357000CAF80060CAF804501093EEDD42BB103C5C
:10358000102C4FF001001146CA46EDDC22440728FA
:103590001192CAF80060CAF80440109051DD002A68
:1035A00040F09B81039B089A01998A42ACBF9B180B
:1035B0005B1803934EE00FAA51463846FFF78EFB87
:1035C000002840F03F811099119A481CCE467FE7B1
:1035D0000FAA59463846FFF781FB60B91099119A36
:1035E000481CCA46BDE7119BDDF810B0002B40F027
:1035F000D48100231093DBF8643013F0010FBBF883
:103600000C3002D19A0540F1DE805B063FF5B2AC8A
:1036100003982DB0BDE8F08F002A40F00681059A8E
:103620001D9201231192CDF870B01093CA460AF191
:10363000080A029B590704D5089B01995C1A002CC3
:1036400081DC039B089901988142ACBF5B181B1871
:10365000039372BB00231093CA46FFF7BCBB0FAAAB
:1036600004992046FFF73AFB50BB1099119A01F1DB
:10367000010ECC4648E5002A40F040819DF8371005
:10368000002900F01B8101220DF1370110461D9227
:103690001C91CA4601460AF1080A013007E5029B5F
:1036A000012A00F09880022A0DD1029300260027FB
:1036B000B0E50FAA04990698FFF710FB0028C9D0BF
:1036C000DDF810B097E7029300260027494600E096
:1036D0005946F20842EA4772F80806F0070307461F
:1036E0001646303356EA070201F8013C01F1FF3B70
:1036F000EED1029AD6077FF59DAD302B3FF49AADFF
:10370000023930230BF8013CA9EB010305938B46EA
:1037100076E4039B089A8A42ACBF9B185B1803931C
:1037200098E702224DE4002F08BF0A2E52D3CB4661
:10373000304639460A220023FEF7A2FC30320BF84D
:10374000012D3046394600230A22FEF799FC064631
:103750000F4656EA0703EBD16CE50594CB464FE4E0
:103760000FAA04990698FFF7B9FA0028A8D1119A70
:10377000CA465EE70FAA04990698FFF7AFFA002839
:103780009ED1CA46FFF7C0BB685040005850400069
:103790000431166807910122002712E407980146B8
:1037A00004310668079100270BE40E680431079185
:1037B000002791E507990E680A46F7170432079229
:1037C000304639460FE5DBF8580000F07FFEBBF8C5
:1037D0000C301AE7029B02930DF1B00B3036012337
:1037E0000BF8416D05930BE40FAA04990698FFF7B7
:1037F00075FA00287FF464AF1099119A481CCA46E4
:1038000051E60FAA04990698FFF768FA00287FF49A
:1038100057AF1099119A481CCA4648E4002A40F054
:10382000918001201146CA4641E60FAA04990698E4
:10383000FFF754FA00287FF443AF1098119A013033
:10384000CA4667E6D346D6E6079E073626F0070245
:1038500002F10801D2E9006707910122FFF7B1BB2D
:10386000079E073626F00706D6E9000106F1080292
:10387000079206460F46B6E4079E073626F0070273
:1038800002F10801D2E9006707910022FFF799BB16
:10389000079E073626F0070101F108000790D1E9DD
:1038A000006719E5CB46FFF7ABBB2D25764267EBEA
:1038B00047078DF837500122FFF788BB099BB3B942
:1038C00011460120CA46F2E5DBF8580000F0FEFD83
:1038D0004FF0FF330393FFF750BB0FAA04990698EC
:1038E000FFF7FCF900287FF4EBAE119AA9E60EABC6
:1038F00002221C931D920120CA46D0E50FAA04990A
:103900000698FFF7EBF900287FF4DAAE1099119AC8
:10391000481CCA46A4E5079A03991368CD170846C0
:10392000043229460792C3E90001FFF754BA58460A
:1039300007960293FFF764F9002405909DF837502D
:10394000FFF75EBB0FAA04990698FFF7C7F9002896
:103950007FF4B6AE1099119A481CCA46A7E5109993
:10396000119A204E0131FFF790BB062C28BF062488
:10397000059407960194DFF870B0D5E41098194EBD
:10398000013003E605949DF83750079602930446EC
:10399000FFF736BB8646FFF7CEBB06980FAA5946FF
:1039A000FFF79CF900283FF424AE24E6079998F825
:1039B00001200C68043144EAE474B8460791FFF72B
:1039C0003FBA8DF837503CE48DF8375021E58DF83B
:1039D0003750FFF7F4BB8DF8375091E48DF837502E
:1039E00069E400BF58504000505040002DE9F041BC
:1039F0000C46ADF58D6D8989666EE589199621F0C5
:103A000002010646E069ADF80C1017464FF48061DC
:103A1000626AADF80E5098461AAD0023079016A8BA
:103A200009920693009504950291059100F048FDD6
:103A300043463A4669463046FFF790F9051E07DBD4
:103A40003046694600F028F9002818BF4FF0FF35CE
:103A5000BDF80C305B0603D5A38943F04003A38176
:103A6000169800F02FFD28460DF58D6DBDE8F0810C
:103A700038B5304B1B6805460C4613B19A6B002ACB
:103A800038D0B4F90C2093B218070CD52069A8B12E
:103A900013F001021ED0636900225B42A361A260A1
:103AA000F0B1002038BDD9063CD5580726D420698E
:103AB00042F00803A3819BB20028E9D103F42072ED
:103AC000B2F5007FE4D02846214600F02FFDA389FF
:103AD0002069DDE7990758BF6269A2600028E0D13C
:103AE000B4F90C301A06DDD543F04003A3814FF042
:103AF000FF3038BD184600F027F9C2E7216B51B1FD
:103B000004F14003994204D0284600F043FAB4F986
:103B10000C200023236300232069636022F0240229
:103B20002060C5E742F0400209232B604FF0FF30D0
:103B3000A28138BD10000020024B13B1024800F0F2
:103B400005B8704700000000B93D40000023014661
:103B50001A46184601F02AB9B1F90C309AB22DE98B
:103B6000F0410D46110780463AD46A6843F4006379
:103B7000002AAB816FDDAC6A002C49D000229BB2D9
:103B8000D8F80060C8F8002013F4805267D02A6D7E
:103B90005F0705D569682B6B521A0BB1EB6BD21A14
:103BA0000023E9694046A047441C3CD0B5F90C30DD
:103BB0002A692A6023F400630022AB81DB046A6077
:103BC00047D4296BC8F8006011B305F1400399424E
:103BD00002D0404600F0DEF900202863BDE8F08105
:103BE0002E69AEB12C682E6091070CBF6B69002363
:103BF000A41BAB600AE0234632466F6AE96940467F
:103C0000B8470028A4EB0004064404DD002CF2DCD5
:103C10000020BDE8F081AB8943F04003AB814FF059
:103C2000FF30BDE8F081D8F800401D2CF3D8194BC7
:103C3000E340DB4313F00103EDD1B5F90C206B60D9
:103C400022F400632969AB81DA042960B9D5002C1C
:103C5000B7D12865B5E7EA6B002A8CDCD8E70123E9
:103C6000E9694046A047431C024602D0AB89AC6AD2
:103C70008EE7D8F80030002BF8D01D2B01D0162B82
:103C800002D1C8F80060C3E7AB8943F04003AB81C1
:103C9000BDE8F0810100402038B50D46044608B16A
:103CA000836BBBB1B5F90C0088B16B6EDB0701D437
:103CB000810517D520462946FFF74EFF6B6EDA07C0
:103CC000044602D4AB899B0507D5204638BD04467F
:103CD000204638BD00F038F8E4E7A86D00F0F6FBA8
:103CE000204638BDA86D00F0EFFBE3E7014900F086
:103CF000AFBB00BF954E400010B500230446818144
:103D0000C2810360436083604366036143618361F2
:103D1000194608225C30FEF72FFE07480749084A7B
:103D2000084B2062E4616162A262E36204F1580020
:103D3000BDE8104000F0C4BBD94B4000FD4B400033
:103D4000394C4000594C400010B50446124800F070
:103D5000BBFBA26BD2B904F53B731048C4F8E83240
:103D60000321C4F8E022E063C4F8E412606804218F
:103D7000FFF7C2FF01220921A068FFF7BDFF022261
:103D80001221E068FFF7B8FF0123A3630248BDE8F2
:103D9000104000F09BBB00BFB0160020ED3C40007F
:103DA000014800F091BB00BFC4160020014800F09C
:103DB0008DBB00BFC416002038B50A4C0A4D641BE9
:103DC000A4100AD004F18043013B05EB8305013CBC
:103DD00055F804399847002CF9D1BDE8384001F076
:103DE000DFB900BFB0514000AC5140002DE9F047B1
:103DF00082B080468946144600F054FB012836D034
:103E00004A4604F15C0301A9404600F081FF421CD0
:103E1000064625D0A8B39DF804E000250DF1040A5C
:103E200009E023685A1C226083F800E00135B5429E
:103E300027D215F80AE0A368013B002BA360F0DA53
:103E4000A769BB4271462246404602DBBEF10A0F1B
:103E5000E7D100F005FF431CE8D102B0BDE8F087D0
:103E6000A38943F04003A38102B0BDE8F08709F1C4
:103E7000FF33FE2BC4D85FFA89FE06468DF804E0B6
:103E8000CBE7484602B0BDE8F08700BF30B5536EBF
:103E900013F0010FB2F90C30144683B005469AB204
:103EA00001D190051CD5900406D4626E43F40053F2
:103EB00042F40052A381626628462246FFF796FF2D
:103EC000636EDA07054602D4A3899B0502D528460E
:103ED00003B030BDA06D00F0F9FA284603B030BD44
:103EE000A06D019100F0F0FAB4F90C3001999AB28A
:103EF000D9E700BFF8B5244F0C460646FEF78AFD09
:103F0000BB685D68C4F57E610F3125F00305294467
:103F100021F47F6121F00F01A1F58054B4F5805F99
:103F200007DB00213046FEF781FDBB682B44984239
:103F300004D03046FEF774FD0020F8BD61423046E3
:103F4000FEF774FD01300DD0104BBA6819682D1BB7
:103F500045F001053046091B55601960FEF760FD0C
:103F60000120F8BD00213046FEF760FDBA68831AD3
:103F70000F2BDEDD064C0549246843F00103001BCE
:103F800053600860D5E700BF40040020580A0020B5
:103F900048080020002944D02DE9F0410D46804614
:103FA000FEF738FD55F8047C694927F00103A5F1B7
:103FB0000804E2188E685068B24220F003005ED018
:103FC000FE0750600BD455F8087CE41B01F1080E85
:103FD000A56875453B446DD0E768EF60BD60151876
:103FE0006D68ED073ED543F001026260E350B3F522
:103FF000007F17D2DB08581C9A104D6851F83070BA
:10400000A7600123934001EBC0022B43083AE26012
:104010004B6041F83040FC604046BDE8F041FEF79F
:10402000FFBC70475A0A042A52D89A0902F139078C
:10403000FF0002F13805C819CA59083890424FD01C
:10404000516821F003018B4232D292689042F7D13D
:10405000C368A060E3609C60C4604046BDE8F04176
:10406000FEF7DEBC95683B4FBD42034440D0D068AC
:10407000E86043F0010285606260E350B7E7FF0744
:10408000034407D455F8082CA41A1344A068E26826
:10409000C2609060304A126843F001009342606051
:1040A0008C60B9D32D4B40461968FFF723FFB3E767
:1040B0001046CDE711184968C90744D49168D26801
:1040C000CA60034443F0010091606060E350A3E7DD
:1040D000142A16D802F15C07FF0002F15B05AAE77B
:1040E000AA1001234D6893402B434B600346B0E771
:1040F00043F001024C610C61E560A5606260E35031
:104100008AE7542A06D81A0B02F16F07FF0002F162
:104110006E0590E7B2F5AA7F06D8DA0B02F17807B0
:10412000FF0002F1770586E740F25450824206D83C
:104130009A0C02F17D07FF0002F17C057BE74FF44A
:104140007E777E2577E743F001016160136063E7C6
:1041500040040020480400204C080020880A002069
:104160009368002B73D02DE9F04F8B8983B00C46F8
:1041700019070090164626D5226922B313F00200D3
:1041800035682CD04FF00009B04FC846B246B8454C
:1041900043464A4628BF3B460098B8F1000F50D02E
:1041A000E169666AB047002858DDDAF808301B1A62
:1041B0008144A8EB0008CAF80830002BE7D10020A2
:1041C00003B0BDE8F08F21460098FFF751FC0028AE
:1041D00040F03381A389356813F00200D2D113F087
:1041E000010945D14F46019637B39A05D4F80880A6
:1041F00040F183804745C346C0F0AB8013F4906F15
:1042000040F0AC802068BA465A46494600F0DAFAD7
:10421000A2682368A2EB08025B44A2602360019AB3
:104220009368A3EB0A03D144A7EB0A079360002B22
:10423000C5D0A389002FD8D1D5F800906F68083574
:10424000D2E7D5F80090D5F8048008359FE7002024
:10425000704721460098FFF71FFD70B3B4F90C308A
:1042600043F040034FF0FF30A38103B0BDE8F08F6F
:10427000814633464E46A8469A464D464EB380B3D5
:10428000206823696269B145CB4628BFB34698428E
:104290005F4604D9A36813449B4500F3A680934569
:1042A0004BDB1346676AE16900982A46B847071E48
:1042B000D4DDB9EB0709CCD00120DAF80830DB1BDC
:1042C0003D44F61BCAF80830002B3FF478AF002EAF
:1042D000D5D108F1080313E9600098460833002E91
:1042E000F9D032460A21284600F082F9002800F071
:1042F000A1800130A0EB0509C2E72068236998423C
:1043000002D863699F425DD2B84528BFB84642468D
:10431000494600F057FAA3682268A3EB0803424419
:10432000A36022600BB1C24679E721460098FFF7EF
:10433000B3FC002892D1C24671E75A46294600F0E4
:1043400041FAA2682368A2EB0B025B44A2602360DF
:10435000AFE72068B846BA46BB4655E762692068B1
:10436000216902EB4208A0EB010A08EBD8780AF1B8
:1043700001004FEA680838444045424684BF804601
:1043800042465B0544D511460098FEF745F8834642
:10439000002855D05246216900F07AF9A38923F408
:1043A000906343F08003A3810BEB0A00A8EB0A03A0
:1043B000C4F810B0C4F814802060A360B846BA46B0
:1043C000BB4621E76FF00041B94228BF39464A4653
:1043D00091FBF3F10098666A03FB01F3E169B047D2
:1043E000B0F1000A3FF71BAF38E71A4629460193A0
:1043F00000F0E8F92268019B00981A4422602146E7
:10440000FFF74AFC019B00287FF428AF1F4650E7C6
:10441000009800F03BFA83460028C5D1009D216931
:104420002846FFF7B7FDB4F90C300C2223F08003C7
:104430002A6015E706F1010922E74FF0FF30BFE6D9
:10444000009A0C231360B4F90C3009E700FCFF7FDD
:104450002DE9F84310F538771FD0884606464FF00F
:1044600000097D68BC68013D11D4A389012B05F1C9
:10447000FF3508D9B4F90E3001332146304602D059
:10448000C04749EA00096B1C04F16804EDD13F689C
:10449000002FE6D14846BDE8F883B9464846BDE856
:1044A000F88300BF044B054A1B685B6B002B08BFF9
:1044B000134693F82801704710000020540800208C
:1044C000704700BF704700BF704700BF704700BF14
:1044D00070B50C46B1F90E10002990B015461E4675
:1044E00014DB01AA00F038FD00280FDB029A02F469
:1044F0007042A2F50052B2FA82F252094FF4806380
:104500004FF4006032602B6010B070BDA2890023B0
:1045100012F08000336004D0402218462A6010B0A8
:1045200070BD4FF480632B6010B070BD8A89920714
:104530000B4606D501F1430201211A601A61596147
:104540007047F0B583B001AB6A460C460646FFF7EC
:10455000BFFF009905463046FDF75EFFB4F90C3009
:10456000D8B1019A154F0099F76343F08003A381F6
:104570002060206161611AB92B43A38103B0F0BDB3
:104580003046B4F90E1000F0FBFCA0B1A38923F073
:10459000030343F001031BB2EEE79A05EED423F0C8
:1045A000030304F1430243F002030121A3812260CB
:1045B00022616161E2E7B4F90C30DDE7ED3C4000D7
:1045C00082B049B15AB16BB113780B601278101CEC
:1045D00018BF012002B0704701A9002AF3D110468C
:1045E00002B070476FF00100F4E700BF0000000068
:1045F00001F0FF01102A2BDB10F0070F08D010F894
:10460000013B013A8B422DD010F0070F42B3F6D197
:10461000F0B441EA012141EA014122F007047FF0B0
:1046200000070023F0E80256083C85EA010586EA07
:10463000010685FA47F5A3FA87F586FA47F6A5FA43
:1046400087F68EB9EED1F0BC01F0FF0102F007024F
:1046500032B110F8013B013A83EA010313B1F8D1FA
:104660000020704701387047002D06BF35460338DB
:10467000073815F0010F07D1013015F4807F02BF14
:10468000013015F4C03F0130F0BC0138704700BF65
:10469000844641EA000313F003036DD1403A41D34D
:1046A00051F8043B40F8043B51F8043B40F8043B0C
:1046B00051F8043B40F8043B51F8043B40F8043BFC
:1046C00051F8043B40F8043B51F8043B40F8043BEC
:1046D00051F8043B40F8043B51F8043B40F8043BDC
:1046E00051F8043B40F8043B51F8043B40F8043BCC
:1046F00051F8043B40F8043B51F8043B40F8043BBC
:1047000051F8043B40F8043B51F8043B40F8043BAB
:1047100051F8043B40F8043B51F8043B40F8043B9B
:10472000403ABDD2303211D351F8043B40F8043B3B
:1047300051F8043B40F8043B51F8043B40F8043B7B
:1047400051F8043B40F8043B103AEDD20C3205D34B
:1047500051F8043B40F8043B043AF9D2043208D043
:10476000D2071CBF11F8013B00F8013B01D30B88B5
:1047700003806046704700BF082A13D38B078DD093
:1047800010F003038AD0C3F10403D21ADB071CBF65
:1047900011F8013B00F8013B80D331F8023B20F8CF
:1047A000023B7BE7043AD9D3013A11F8013B00F808
:1047B000013BF9D20B7803704B7843708B78837090
:1047C000604670478842F0B50DD98B1898420AD2DE
:1047D0008418002A51D0224613F8014D02F8014DE9
:1047E0009942F9D1F0BD0F2A48D941EA00039B074D
:1047F00046D100F1100401F11003154653F8106C76
:1048000044F8106C53F80C6C44F80C6C53F8086CBA
:1048100044F8086C103D53F8046C44F8046C0F2DF8
:1048200003F1100304F11004E8D8A2F1100323F0FF
:104830000F0302F00F0E1033BEF1030F19440344AF
:1048400021D91E1F0D467446043C55F8047B46F8DA
:10485000047F032CF8D8AEF1040424F003040434DC
:104860002144234402F0030262B1013B0A4411F8DF
:10487000014B03F8014F8A42F9D1F0BD0346F3E73B
:104880000346F2E7F0BD7246EEE700BF002900F0F4
:1048900095802DE9F04F0D46164683B0804606F10F
:1048A0000B07FEF7B7F855F804EC162F2EF00304AB
:1048B000A5F108093CD810221746BE423DD89442C3
:1048C00043DAC44B996809EB0400884200F0B480D5
:1048D000436823F0010101444968C9074CD51EF023
:1048E000010F00F09B8031464046FDF795FD0646DE
:1048F00000283AD055F8043C23F001034B44A0F1C2
:1049000008029A4200F02181221F242A00F2078126
:10491000132A00F2DB8003462A46116819605168A9
:10492000596092689A6029464046FFF733FB1CE0C5
:1049300027F00707002F3A46BFDA00260C2330463F
:10494000C8F8003003B0BDE8F08F2E46E31B0F2BF4
:104950001ED8D9F8043003F0010323434C44C9F8AE
:104960000430636843F0010363604046FEF758F883
:10497000304603B0BDE8F08F23F00303E118914205
:104980001FDBC36882682E46D3600C469A60DDE761
:10499000D9F8042009EB070102F001024C4443F06E
:1049A00001031743C9F804704B60636843F00103C7
:1049B000083163604046FFF7EDFAD6E71146FDF790
:1049C0002BBD1EF0010F8ED155F8081CA9EB010A72
:1049D000DAF8041021F003010B442344934225DB51
:1049E000C26881685646CA609160DAF80C1056F8C1
:1049F000080F221F242AC160886000F29480132AC5
:104A00006FD92968CAF808106968CAF80C101B2AFF
:104A100000F2A28008350AF1100263E055F8083C64
:104A2000A9EB030ADAF8041021F00301631893429A
:104A3000FFF659AF5646D8E7416821F0030BA3446F
:104A400007F11000834556DA1EF0010F7FF44BAFDB
:104A500055F8081CA9EB010ADAF8041021F003014B
:104A60008B445845E2DC5646DAF80C1056F8080F2D
:104A7000221F242AC160886000F28F80132A40F22E
:104A80008A802968CAF808106968CAF80C101B2ABD
:104A900000F28A8008350AF11002296811606968FD
:104AA0005160A96891600AEB0701ABEB070242F085
:104AB000010299604A60DAF8043003F001031F43F1
:104AC0004046CAF80470FDF7ABFF51E72B6803605E
:104AD0006B6843601B2A2DD800F1080305F108021A
:104AE0001BE732462968116069685160A9689160C6
:104AF0001C46D1462AE709EB0701ABEB070B4BF04D
:104B0000010299604A6055F8043C03F001031F4319
:104B1000404645F8047CFDF783FF2E4628E72946EA
:104B2000FFF750FEFFE6294630461C46D146FFF708
:104B300049FE0BE7AB688360EB68C360242A17D09B
:104B400000F1100305F11002E7E650F8043C23F0F1
:104B500003031C442E46F9E6A968CAF81010E96858
:104B6000CAF81410242A0CD010350AF11802B9E73B
:104B70002B6903616B69436105F1180200F11803A9
:104B8000CBE62A69CAF818206A69CAF81C201835C9
:104B90000AF12002A6E732467FE729463046019314
:104BA000FFF710FE019B7EE7A968CAF81010E968BC
:104BB000CAF81410242A03D010350AF118026CE741
:104BC0002A69CAF818206A69CAF81C2018350AF13F
:104BD000200262E74004002010B50C46B1F90E1027
:104BE00000F0F6F9002803DB236D0344236510BDB4
:104BF000A38923F48053A38110BD00BF2DE9F041A8
:104C00001646B1F90C201F46D3050C46054607D5BC
:104C100000220223B1F90E1000F0C4F9B4F90C20FF
:104C2000B4F90E1022F48052A2813B463246284647
:104C3000BDE8F04100F0A4B810B50C46B1F90E1073
:104C400000F0B0F9A389421C0EBF23F4805343F453
:104C500080532065A38110BDB1F90E1000F008B992
:104C6000F8B50D461446064610B1836B002B4BD0A9
:104C7000B4F90C20A369A36091B2080739D5236960
:104C8000002B36D0EDB289042F4615D52268616914
:104C9000D31A8B421CDA0133A168501C0139A16080
:104CA0002060157062699A421AD0A389DB0701D58A
:104CB0000A2D15D03846F8BD616E42F4005221F439
:104CC0000051A281226861666169D31A8B42E2DBDE
:104CD00021463046FEF7E0FF40B922680123DBE7BA
:104CE00021463046FEF7D8FF0028E3D04FF0FF37CB
:104CF000E0E721463046FEF7BBFE0028F6D1B4F9C6
:104D00000C20236991B2BDE7FFF71EF8B0E700BFA2
:104D1000F0B5064685B01F4689B1104C104D246889
:104D2000646B002C08BF2C46D4F8E040A047431C1D
:104D300003D100228A233A60336005B0F0BD0C46EF
:104D40000649074A0968496B002908BF11462246EF
:104D5000D1F8E04001A9A047E9E700BF100000201A
:104D60005408002021B1FF2A04D80A70012070479E
:104D7000084670478A2303604FF0FF30704700BF3A
:104D800070B50D46084C114606461A4628460023C3
:104D90002360FBF75DFE431C00D070BD2368002B31
:104DA000FBD0336070BD00BFC81600202DE9F8436A
:104DB0002C4D0646286898460F469146FFF784FB1F
:104DC000294B1C68D4F84831002B3ED05A681F2A62
:104DD0001CDC02F1010E76B103EB82010124C1F863
:104DE0008890D3F8880194402043022EC3F88801AC
:104DF000C1F8088123D00232C3F804E0286843F8E0
:104E00002270FFF763FB0020BDE8F883174B0BB35C
:104E10004FF4C870FDF7F8FA0346D8B1D4F848212A
:104E20000260002141600A46C4F848014FF0010EBB
:104E3000C0F88811C0F88C11002EDCD0CCE7D3F874
:104E40008C110C43C3F88C41D5E704F5A673C4F864
:104E50004831BBE72868FFF739FB4FF0FF30BDE86A
:104E6000F88300BF5008002024504000092440006F
:104E700038B5074C0023054608462360FCF7F4FFCD
:104E8000431C00D038BD2368002BFBD02B6038BDFD
:104E9000C816002070B559B105460C4610B1836B99
:104EA000002B3CD0636ED80705D5B4F90C302BB974
:104EB0000026304670BDA38999053CD52146284679
:104EC000FEF74AFEE36A064633B1E1692846984791
:104ED0000028B8BF4FF0FF36A3891A0622D4216BF1
:104EE00041B104F14003994202D02846FFF752F83D
:104EF00000232363616C21B12846FFF74BF80023A0
:104F00006364FEF74DFF636E0022DB07A2810ED5BE
:104F1000A06DFFF7D7FAFEF749FF304670BDFEF7E8
:104F200013FFBFE721692846FFF734F8D7E7A06DE4
:104F3000FFF7CCFAECE7A06DFFF7C6FAB4F90C3036
:104F4000002BBBD1666E16F00106B1D1A06DFFF744
:104F5000BDFA304670BD00BF38B50B46074C05465C
:104F60001146184600232360FCF789FF431C00D03C
:104F700038BD2368002BFBD02B6038BDC81600203D
:104F800038B5074C0023054608462360FCF786FF2A
:104F9000431C00D038BD2368002BFBD02B6038BDEC
:104FA000C816002070B50D46084C114606461A4634
:104FB000284600232360FCF77BFF431C00D070BD14
:104FC0002368002BFBD0336070BD00BFC8160020E3
:104FD00070B50D46084C114606461A462846002371
:104FE0002360FBF70BFD431C00D070BD2368002B32
:104FF000FBD0336070BD00BFC816002000C20100A6
:10500000C0000000000800000000000068690D0AF0
:105010000000000068656C6C6F20776F726C640D27
:105020000A000000180000203031323334353637A2
:1050300038394142434445460000000030313233A4
:1050400034353637383961626364656600000000C4
:10505000286E756C6C290000202020202020202044
:1050600020202020202020203030303030303030C0
:10507000303030303030303043000000504F534932
:10508000580000002E0000000020202020202020BA
:1050900020202828282828202020202020202020E8
:1050A00020202020202020202088101010101010F8
:1050B0001010101010101010100404040404040444
:1050C00004040410101010101010414141414141DE
:1050D00001010101010101010101010101010101C0
:1050E00001010101101010101010424242424242D0
:1050F0000202020202020202020202020202020290
:105100000202020210101010200000000000000037
:10511000000000000000000000000000000000008F
:10512000000000000000000000000000000000007F
:10513000000000000000000000000000000000006F
:10514000000000000000000000000000000000005F
:10515000000000000000000000000000000000004F
:10516000000000000000000000000000000000003F
:10517000000000000000000000000000000000002F
:10518000000000000000000000000000F8B500BFB3
:10519000F8BC08BC9E467047393B4000F100400017
:1051A000F8B500BFF8BC08BC9E467047CD00400073
:0851B00000CFFF7F01000000A9
:1051B800BFF35F8F0138FBD17047000000093D0045
:1051C8001800002000000000000000000403002078
:1051D8006C030020D4030020000000000000000041
:1051E80000000000000000000000000000000000B7
:1051F80000000000000000000000000000000000A7
:105208000000000000000000000000000000000096
:105218000000000000000000000000000000000086
:105228000000000000000000000000000000000076
:105238000000000000000000000000000000000066
:105248000000000000000000000000000000000056
:105258000000000000000000000000000000000046
:105268000000000000000000000000000000000036
:1052780001000000000000000E33CDAB34126DE6D3
:10528800ECDE05000B00000000000000000000003C
:105298000000000000000000000000000000000006
:1052A80000000000000000000000000000000000F6
:1052B80000000000000000000000000000000000E6
:1052C80000000000000000000000000000000000D6
:1055F80000000000000000004004002040040020DB
:1056080048040020480400205004002050040020D2
:105618005804002058040020600400206004002082
:105628006804002068040020700400207004002032
:1056380078040020780400208004002080040020E2
:105648008804002088040020900400209004002092
:105658009804002098040020A0040020A004002042
:10566800A8040020A8040020B0040020B0040020F2
:10567800B8040020B8040020C0040020C0040020A2
:10568800C8040020C8040020D0040020D004002052
:10569800D8040020D8040020E0040020E004002002
:1056A800E8040020E8040020F0040020F0040020B2
:1056B800F8040020F8040020000500200005002060
:1056C800080500200805002010050020100500200E
:1056D80018050020180500202005002020050020BE
:1056E800280500202805002030050020300500206E
:1056F800380500203805002040050020400500201E
:1057080048050020480500205005002050050020CD
:10571800580500205805002060050020600500207D
:10572800680500206805002070050020700500202D
:1057380078050020780500208005002080050020DD
:10574800880500208805002090050020900500208D
:105758009805002098050020A0050020A00500203D
:10576800A8050020A8050020B0050020B0050020ED
:10577800B8050020B8050020C0050020C00500209D
:10578800C8050020C8050020D0050020D00500204D
:10579800D8050020D8050020E0050020E0050020FD
:1057A800E8050020E8050020F0050020F0050020AD
:1057B800F8050020F805002000060020000600205B
:1057C8000806002008060020100600201006002009
:1057D80018060020180600202006002020060020B9
:1057E8002806002028060020300600203006002069
:1057F8003806002038060020400600204006002019
:1058080048060020480600205006002050060020C8
:105818005806002058060020600600206006002078
:105828006806002068060020700600207006002028
:1058380078060020780600208006002080060020D8
:105848008806002088060020900600209006002088
:105858009806002098060020A0060020A006002038
:10586800A8060020A8060020B0060020B0060020E8
:10587800B8060020B8060020C0060020C006002098
:10588800C8060020C8060020D0060020D006002048
:10589800D8060020D8060020E0060020E0060020F8
:1058A800E8060020E8060020F0060020F0060020A8
:1058B800F8060020F8060020000700200007002056
:1058C8000807002008070020100700201007002004
:1058D80018070020180700202007002020070020B4
:1058E8002807002028070020300700203007002064
:1058F8003807002038070020400700204007002014
:1059080048070020480700205007002050070020C3
:105918005807002058070020600700206007002073
:105928006807002068070020700700207007002023
:1059380078070020780700208007002080070020D3
:105948008807002088070020900700209007002083
:105958009807002098070020A0070020A007002033
:10596800A8070020A8070020B0070020B0070020E3
:10597800B8070020B8070020C0070020C007002093
:10598800C8070020C8070020D0070020D007002043
:10599800D8070020D8070020E0070020E0070020F3
:1059A800E8070020E8070020F0070020F0070020A3
:1059B800F8070020F8070020000800200008002051
:1059C80008080020080800201008002010080020FF
:1059D80018080020180800202008002020080020AF
:1059E800280800202808002030080020300800205F
:1059F8003808002038080020FFFFFFFF00000200E1
:105A0800A416002043000000000000000000000071
:105A1800000000000000000000000000000000007E
:105A2800000000004300000000000000000000002B
:105A3800000000000000000000000000000000005E
:105A4800000000004300000000000000000000000B
:105A5800000000000000000000000000000000003E
:105A680000000000430000000000000000000000EB
:105A7800000000000000000000000000000000001E
:105A880000000000430000000000000000000000CB
:105A980000000000000000000000000000000000FE
:105AA80000000000430000000000000000000000AB
:105AB80000000000000000000000000000000000DE
:105AC800000000004300000000000000000000008B
:105AD80000000000000000000000000000000000BE
:105AE80000000000654D4000C14540000000000076
:105AF80088504000845040003850400038504000E2
:105B0800385040003850400038504000385040006D
:105B1800385040003850400038504000FFFFFFFF29
:105B2800FFFFFFFFFFFFFFFFFFFF000001004153E2
:105B38004349490000000000000000000000000088
:105B480000000000000000000000000000004153B9
:105B58004349490000000000000000000000000068
:105B6800000000000000000000000000000000002D
:0400000500401AE9B4
:00000001FF
