:020000040040BA
:10000000705D00204D214000152240001522400067
:10001000152240001522400015224000000000007B
:100020000000000000000000000000001522400059
:10003000152240000000000015224000152240005B
:1000400015224000152240001522400015224000D4
:1000500015224000152240001522400015224000C4
:10006000152240001D07400000000000611A4000FA
:10007000791A4000911A40001522400015224000D4
:100080000000000000000000152240001522400082
:100090001522400015224000152240001522400084
:1000A0001522400015224000152240001522400074
:1000B0001522400015224000152240001522400064
:1000C00015224000152240001522400010B5054CB5
:1000D000237833B9044B13B10448AFF300800123F4
:1000E000237010BD5408002000000000A03E400016
:1000F0000C4B43B10C480D4910B5AFF300800C48D0
:10010000036823B910BD0A48036833B97047094B27
:10011000002BF7D0BDE810401847064B002BF5D058
:10012000184700BF00000000A03E40005808002013
:10013000A03E40000000000080B483B000AF034642
:10014000FB7197F90730002B0BDB084997F9073053
:100150005B09FA7902F01F02012000FA02F241F86D
:10016000232000BF0C37BD4680BC704700E100E093
:1001700080B483B000AF78607B68072B25D801A2DC
:1001800052F823F0A5014000AB014000B10140004E
:10019000B7014000BB014000BF014000C301400067
:1001A000C70140004FF4FA4310E04FF400430DE064
:1001B0004FF400430AE0084B08E0084B06E0084B08
:1001C00004E0074B02E0064B00E0002318460C3722
:1001D000BD4680BC704700BF00093D0000127A0098
:1001E000001BB70080B500AF0620044B98470246BD
:1001F00013469B0013449B00184680BD71014000CC
:1002000080B500AF024B984703465B08184680BD97
:10021000E501400080B500AF024B984703465B08FC
:10022000184680BDE501400080B582B000AF78601F
:100230007868034B984700BF0837BD4680BD00BFB4
:10024000F51C400080B58CB000AF78603960314B50
:10025000984703467B623B681B68BB623B689B68B0
:10026000FB623B681B68FB603B685B683B613B680B
:100270009B687B613B68DB68BB610023FB617B683B
:10028000254A934208D10820244B984707F12403BC
:1002900019467868224B98477B68224A934208D1D6
:1002A00009201E4B984707F12403194678681C4B18
:1002B00098477B681C4A934211D10E20174B9847F0
:1002C000144B9847024607F10C0319467868174B00
:1002D00098477868164B98477868164B98477B681C
:1002E000154A934211D10F200C4B9847094B984760
:1002F000024607F10C03194678680C4B984778685A
:100300000B4B984778680B4B984700BF3037BD467A
:1003100080BD00BF1502400000060E4029024000CB
:10032000751D400000080E40004002401D1F4000A7
:10033000A11F4000D11F40000080024080B582B064
:1003400000AF78600B46FB707B68204A93420AD16D
:1003500000BFFB78194678681D4B98470346002B71
:10036000F7D101232DE07B681A4A93420AD100BFDE
:10037000FB7819467868164B98470346002BF7D14F
:1003800001231EE07B68144A93420AD100BFFB7828
:1003900019467868114B98470346002BF7D1012383
:1003A0000FE07B680E4A93420AD100BFFB781946E2
:1003B00078680A4B98470346002BF7D1012300E0E9
:1003C000002318460837BD4680BD00BF00060E401A
:1003D000D51D400000080E40004002407F20400034
:1003E0000080024080B584B000AF7860396000239F
:1003F000FB607B681F4A934207D100BF3968786869
:100400001D4B98470346002BF8D17B681B4A93424B
:1004100007D100BF39687868174B98470346002B0F
:10042000F8D17B68164A93420DD100BF07F10C0347
:1004300019467868134B98470346002BF6D1FB68A2
:10044000DAB23B681A707B680F4A93420DD100BF45
:1004500007F10C03194678680A4B98470346002BAE
:10046000F6D1FB68DAB23B681A7000BF1037BD46A0
:1004700080BD00BF00060E40031E400000080E4075
:1004800000400240AF2040000080024080B582B0B2
:1004900000AF786039600F4A7B6813600E4B0F4ADB
:1004A0001A600F4B0F4A1A60396878680E4B9847EC
:1004B0000E4B1B689B68002118460D4B98470B4B51
:1004C0001B685B6800211846094B984700BF083736
:1004D000BD4680BD3C2D0020382D00203D0340004E
:1004E000342D0020E50340004502400010000020AC
:1004F000F531400090B585B000AF0C4B3C460FCBBA
:1005000084E80F0009200A4B98473B4619460948E2
:10051000094B984701210748084B98470920084B89
:10052000984700BF1437BD4690BD00BF5C3D4000FA
:100530002902400000080E408D04400001204000C8
:100540003901400080B584B000AF0346FB71FF2342
:10055000FB73FB7919460648064B98470346002B68
:1005600001D10023FB73FB7B18461037BD4680BDCD
:1005700000080E40D51D40002DE9F04884B000AFC2
:100580007860FF237B737868294B984703467B810B
:100590000023FB813BE0FB897A6813441B781846F3
:1005A000244B984703467B73234B984703461946D1
:1005B0004FF000020B461446DB1844EB04045B18B2
:1005C00044EB0204660146EAD3665D015B1944EB25
:1005D00006045B1844EB020413A2D2E9001213EBE9
:1005E000010B44EB020C58466146144C144A4FF080
:1005F0000003A04703460C461846124B98477B7BE6
:10060000FF2B01D17B7B09E0FB890133FB81FA8958
:100610007B899A42BFD300237B737B7B18461037BC
:10062000BD46BDE8F08800BF7F9FD50000000000F8
:10063000C133400045054000010240001927400039
:10064000809FD5000100002080B485B000AF7860A5
:100650000B46FB70FF23FB732D4B1B88002B03D134
:100660002C4B1B78012B4CD1FB78032B47D801A2D4
:1006700052F823F0850640008F064000B306400084
:10068000D9064000244B1A787B681A7037E00023A3
:10069000BB730AE0BB7B7A681344BA7B1E490A44E9
:1006A00052781A70BB7B0133BB73BB7B012BF1D932
:1006B00025E00023BB810AE0BB897A681344BA892C
:1006C00015490A44D2781A70BB890133BB81BB89B2
:1006D000B3F5806FF0D312E00023FB720BE0FB7ADE
:1006E0007A681344FA7A0C490A4492F803241A707F
:1006F000FB7A0133FB72FB7A012BF0D900BF002398
:10070000FB73FB7B18461437BD4680BC704700BFA7
:10071000322D0020302D00202809002080B582B025
:1007200000AF0023FB713848384B9847034603F06D
:100730000103002B63D0364B1B889B00354A1344C2
:1007400019463148344B9847314B1B88002B09D14F
:100750002F4B1B881A462F4B53F82230DAB22F4BFF
:100760001A703DE02A4B1B88022B0ED8284B1B88A1
:10077000013B274A12881146264A52F82120D1B25D
:10078000264A13440A465A702AE0214B1B8840F23D
:10079000024293420ED81E4B1B88033B1C4A128810
:1007A00011461C4A52F82120D1B21C4A13440A4671
:1007B000DA7015E0164B1B8840F2044293420FD8C2
:1007C000134B1B88A3F20343114A12881146114AA6
:1007D00052F82120D1B2114A13440A4683F8032467
:1007E0000B4B1B8840F20342934202D90C4B01226F
:1007F0001A70074B1B8801339AB2054B1A8000BF51
:100800000837BD4680BD00BF00080E401B204000D9
:10081000322D0020300D0020E1204000280900206A
:10082000302D002080B483B000AF78607B68072B48
:1008300025D801A252F823F0590840005F08400073
:10084000650840006B0840006F08400073084000D6
:10085000770840007B0840004FF4FA4310E04FF463
:1008600000430DE04FF400430AE0084B08E0084B5A
:1008700006E0084B04E0074B02E0064B00E00023D3
:1008800018460C37BD4680BC704700BF00093D00CC
:1008900000127A00001BB70080B500AF0620044BA1
:1008A0009847024613469B0013449B00184680BDA0
:1008B0002508400080B500AF024B984703465B080F
:1008C000184680BD990840002DE9F04882B000AF7D
:1008D00000237B7100233B71664B00221A70664B2C
:1008E00001221A70BBE00023FB70FB1C002118469C
:1008F000624B98470346FB71FB78012B02D0FB78D3
:10090000022B02D15B4B01221A705A4B1B78002B31
:100910002DD143205A4B98475A4B984703461946C6
:100920004FF000020B461446A60046EA93769D005F
:100930002B4634465B1844EB0204DB1844EB0404FA
:100940001946224643F2AF634FF0000411EB030B4C
:1009500042EB040C584661464B4C43F2B0624FF0F8
:100960000003A04703460C461846484B9847FB78BF
:10097000013B172B65D801A252F823F0DD09400096
:10098000DD094000430A4000290A4000430A4000B4
:10099000430A4000430A4000430A4000430A400023
:1009A000430A4000430A4000430A4000430A400013
:1009B000430A4000430A4000430A4000430A400003
:1009C000430A4000430A4000430A4000430A4000F3
:1009D000430A4000430A40003D0A40002C4B1B786C
:1009E000012B39D1FB7818462A4B98470346BB7137
:1009F000BB79002B03D10620214B98472CE0BB7913
:100A0000082B09D103233B713B1D03211846224BC0
:100A1000984703467B711FE03B1D032118461E4B80
:100A2000984703467B7117E00620154B98471B48F3
:100A30001B4B98471B481A4B984710E0FF237B71CC
:100A40000DE0FB79002B09D13B1D03211846124B09
:100A5000984703467B7101E000BF00E000BF7B794F
:100A6000DBB2002B3FF43FAF00BF0837BD46BDE807
:100A7000F08800BF740800200A00002049064000EA
:100A800045054000B508400019274000010000203E
:100A9000302D00201D0B4000B90C40006C3D400083
:100AA00079054000843D400080B485B000AF786097
:100AB0000B467B800023FB8126E07B88013B7B800B
:100AC0007B685A1C7A601B781B021AB2B7F90E3089
:100AD00053401BB2FB8100237B7312E0B7F90E3049
:100AE000002B08DAFB895B009BB283F4815383F00F
:100AF0000103FB8102E0FB895B00FB817B7B01330F
:100B00007B737B7B072BE9D97B88002BD5D1FB89B5
:100B100018461437BD4680BC7047000080B5ADF55F
:100B2000836D00AF0246FB1D1A70002387F817344F
:100B30000023A7F81434FB1D1B78012B03D180235D
:100B4000A7F814340BE0FB1D1B78022B04D14FF4E3
:100B50008063A7F8143402E0FF2387F817340023DA
:100B600087F8133407F20C43012118464B4B984782
:100B700003461A4697F81334134387F8133407F1E2
:100B80000C0302211846454B984703461A4697F82E
:100B90001334134387F8133407F10803032118466D
:100BA0003E4B984703461A4697F81334134387F889
:100BB000133407F108031B781B021AB207F108036C
:100BC0005B781BB213431BB2A7F81034B7F8142498
:100BD00007F10C0311461846314B98470346A7F816
:100BE0000E3497F81334002B05D097F8173443F0E0
:100BF000040387F8173497F81734002B06D1294BD4
:100C00001B78002B02D1274B01221A7097F817345A
:100C1000002B25D197F80C24234B1B789A4205D042
:100C200097F8173443F0020387F8173497F80C3419
:100C30001A4697F80D341344FF2B05D097F8173454
:100C400043F0020387F81734B7F80E24B7F81034CE
:100C50009A4205D097F8173443F0010387F8173408
:100C600097F81734002B0CD10F4B1B780133DAB2F5
:100C70000D4B1A70B7F814240C4B1B6813440B4A25
:100C800013600B4B00221A800A4B00221A7097F84F
:100C90001734184607F58367BD4680BD49064000F6
:100CA000A90A4000740800200A00002070080020F3
:100CB000322D0020302D002080B584B000AF786048
:100CC0000B46FB700023FB737B681B780133DAB2A1
:100CD0007B681A707B681B78FA789A4208D81820CB
:100CE000084B98471820074B9847FF23FB7304E0F5
:100CF0001520044B98470023FB73FB7B18461037E5
:100D0000BD4680BD4505400080B582B000AF78602B
:100D10007B68072B31D801A252F823F0790D4000EF
:100D20003D0D4000450D40004D0D4000550D40006B
:100D30005D0D4000650D40006F0D40000020114B1F
:100D400098471AE001200F4B984716E000200E4B01
:100D5000984712E010200C4B98470EE020200A4BD9
:100D600098470AE03E210020084B984705E03E21C5
:100D70000120064B984700E000BF00BF0837BD4682
:100D800080BD00BF291B4000951B4000051C400092
:100D900080B582B000AF78607B68072B26D801A2AF
:100DA00052F823F0C50D4000C90D4000C90D4000A8
:100DB000DB0D4000DB0D4000DB0D4000DB0D400093
:100DC000DB0D4000012312E00B4B98470346002B3C
:100DD00014BF01230023DBB209E0084B9847034608
:100DE000002B14BF01230023DBB200E000231846D0
:100DF0000837BD4680BD00BF611B40007D1C400020
:100E000080B483B000AF78607B68072B25D801A23F
:100E100052F823F0350E40003B0E4000410E4000DA
:100E2000470E40004B0E40004F0E4000530E400056
:100E3000570E40004FF4FA4310E04FF400430DE02A
:100E40004FF400430AE0084B08E0084B06E0084B6B
:100E500004E0074B02E0064B00E0002318460C3785
:100E6000BD4680BC704700BF00093D0000127A00FB
:100E7000001BB70080B582B000AF0346FB7100BF16
:100E8000FB791846054B9847034683F00103DBB214
:100E9000002BF5D100BF0837BD4680BD910D400045
:100EA00080B586B000AFF8607A603B600B46FB729D
:100EB000FB7A18460D4B984702467B68B2FBF3F36A
:100EC0007B617B693A6802FB03F37B613B68013B12
:100ED0001A04074B13407A68D2B2134343F47C528E
:100EE000FB681A6000BF1837BD4680BD010E400088
:100EF0000000FF0780B582B000AF786039603B68C2
:100F0000002B08D1094B9847094A7B681B6843F0BE
:100F10000053936205E0074B9847054A7B681B68BE
:100F2000D36200BF0837BD4680BD00BF951C40009E
:100F300000040E40C51C400080B582B000AF786050
:100F40007B68002B03D1054B9847034602E0044B16
:100F50009847034618460837BD4680BDAD1C400083
:100F6000DD1C400080B582B000AF0346FB71FB7909
:100F7000033B042B08D8FB791846064B9847FB79AE
:100F80001846054B984700E000BF00BF0837BD4634
:100F900080BD00BF090D4000750E400080B582B0D5
:100FA00000AF786000BF7868044B98470346002B79
:100FB000F9D0002318460837BD4680BD390F4000E0
:100FC00080B500AF0620044B9847024613469B00AD
:100FD00013449B00184680BD010E400080B500AF51
:100FE000024B984703465B08184680BDC10F40007E
:100FF00090B583B000AF1148114B98470620114BB4
:101000009847381D1423012206210F4CA0473B1D91
:10101000002118460D4B984700200D4B9847102093
:101020000C4B98470C4B98470C4B98470346184677
:10103000034B984700BF0C37BD4690BD000E2707F5
:10104000B5234000650F4000A10E4000F50E4000A2
:101050009D0F4000A91A40001D224000DD0F4000F6
:1010600080B586B000AFF860B9607A6000237B611C
:10107000FB68002B12D04FF0FF3313E00B4B1B68C3
:101080000B4A1268B96810469847BB680133BB60C9
:101090007B6901337B617B68013B7B607B68002B54
:1010A000ECDC7B6918461837BD4680BD342D002026
:1010B0003C2D002080B586B000AFF860B9607A6042
:1010C00000237B61FB68012B1ED0FB68022B1BD029
:1010D000FB68032B18D04FF0FF3319E00E4B1A6852
:1010E0000E4B1868BB68591CB9601B7819469047AD
:1010F0000346002B02DA4FF0FF3309E07B6901332E
:101100007B617B68013B7B607B68002BE6D17B6960
:1011100018461837BD4680BD382D00203C2D0020D4
:1011200080B582B000AF78607868034B984700BF05
:101130000837BD4680BD00BFF51C400080B500AF3C
:101140000B20054B98470C20034B98470D20024B72
:10115000984700BF80BD00BF2111400080B48DB012
:1011600000AF786039607B68FB623B68BB62FB6AFA
:101170007B627B6A5A09FB6A3B623B6A03F01F038E
:10118000012101FA03F3FA61BB61BB6A7B61FB6970
:101190003B613B6903F5001303F207735B02FB60DD
:1011A0007B6903F00803002B03D0FB68BA695A6619
:1011B00002E0FB68BA691A667B6903F01003002B32
:1011C00004D0FB68BA69C3F8942003E0FB68BA69ED
:1011D000C3F890207B6903F02003002B03D0FB6849
:1011E000BA691A6502E0FB68BA695A657B6903F05F
:1011F000C003002B03D0FB68BA691A6202E0FB68E7
:10120000BA695A627B6903F08003002B04D0FB6843
:10121000BA69C3F8842003E0FB68BA69C3F8802088
:101220007B6903F00103002B06D0FB681A6FBB69D2
:101230001A43FB681A6706E0FB681A6FBB69DB4359
:101240001A40FB681A677B6903F00203002B06D083
:10125000FB685A6FBB691A43FB685A6706E0FB6874
:101260005A6FBB69DB431A40FB685A6700BF3437CB
:10127000BD4680BC704780B48DB000AF78600B462F
:10128000FB707B68FB62FB7887F82B30FB6A7B6224
:101290007B6A3B623B6A5B09FB61FB6903F50013F8
:1012A00003F207735B02BB6197F82B30012B09D166
:1012B000FB6A7B617B6903F01F0301229A40BB69D3
:1012C0001A610CE097F82B30002B08D1FB6A3B61C8
:1012D0003B6903F01F0301229A40BB695A61FB6A14
:1012E000FB60FB6803F01F0301229A40BB69C3F84F
:1012F000A02000BF3437BD4680BC704780B48BB09F
:1013000000AF78600B46FB707B687B62FB7887F8E8
:1013100023307B6AFB61FB69BB61BB695B097B6155
:101320007B6903F5001303F207735B023B6197F8D7
:101330002330002B09D07B6AFB60FB6803F01F039E
:1013400001229A403B691A6308E07B6ABB60BB6874
:1013500003F01F0301229A403B695A6300BF2C37F8
:10136000BD4680BC7047000080B500AF2448254BC7
:101370009847254B984701215720244B9847012136
:101380005720234B984700210220214B98470821E2
:101390000220204B9847012154201C4B98470121E3
:1013A00054201B4B984701211020184B98470121CE
:1013B0001020174B984701215620144B98470121C4
:1013C0005620134B98474FF000620C211248134BE4
:1013D000984713490C20134B984711490D20114B86
:1013E00098470F490E200F4B98474FF000610B2094
:1013F0000C4B984708210220064B984700BF80BD40
:1014000050140E40312140003D114000FD124000BB
:10141000771240005D11400000100E403D18400062
:10142000010000088D16400080B485B000AFF86060
:10143000B9607A607B68002B03D0FB68BA685A6693
:1014400002E0FB68BA681A6600BF1437BD4680BC6C
:10145000704780B487B000AFF860B9607A60FB680D
:101460007A685A64BB68B3F1C05F4AD0B3F1C05F19
:1014700008D8B3F1006F16D0B3F1805F2CD0002BE9
:1014800069D064E0B3F1205F65D0B3F1205F03D889
:10149000B3F1005F4AD05AE0B3F1405F5BD0B3F1E3
:1014A000605F58D053E0FB681B6F7B61FB681A6F6D
:1014B0007B68D9437B690B401A40FB681A67FB685D
:1014C0005B6F7B61FB685A6F7B68D9437B690B401C
:1014D0001A40FB685A673AE0FB681B6F7B617A68C9
:1014E0007B691A43FB681A67FB685B6F7B61FB686B
:1014F0005A6F7B68D9437B690B401A40FB685A6777
:1015000025E0FB681B6F7B61FB681A6F7B68D94322
:101510007B690B401A40FB681A67FB685B6F7B6155
:101520007A687B691A43FB685A6710E0FB681B6F97
:101530007B617A687B691A43FB681A67FB685B6F9B
:101540007B617A687B691A43FB685A6700BFFB6856
:101550007A685A6000E000BF1C37BD4680BC704707
:1015600080B584B000AFF860B9607A60B968F86897
:10157000194B98477B6803F001031A46B968F8686D
:10158000164B98477B6803F00A03002B03D0FB68D7
:10159000BA681A6202E0FB68BA685A627B6803F0B4
:1015A0000203002B04D0FB68BA68C3F8802008E06F
:1015B0007B6803F00803002B03D0FB68BA68C3F80C
:1015C0008420FB68BA685A61FB68BA681A6000BF79
:1015D0001037BD4680BD00BF4516400029144000AD
:1015E00080B584B000AFF860B9607A603B60B968DC
:1015F000F868124B9847BA69B968F868104B984771
:101600003B68002B03D0FB68BA681A6502E0FB68F0
:10161000BA685A657B68002B03D0FB68BA681A6306
:1016200002E0FB68BA685A63FB68BA681A61FB6833
:10163000BA681A6000BF1037BD4680BD451640002D
:101640002914400080B483B000AF786039607B68B3
:101650003A685A6400BF0C37BD4680BC704780B4FE
:1016600083B000AF78607B68DB6C18460C37BD46F2
:1016700080BC704780B483B000AF78607B689B6C9F
:1016800018460C37BD4680BC7047000090B587B047
:1016900002AF786039607868634B9847F8603B68C0
:1016A00003F0F043B3F1005F67D0B3F1005F09D8F6
:1016B000B3F1805F2BD0B3F1C05F43D0B3F1006FC3
:1016C0000AD0A9E0B3F1405F7ED0B3F1605F7BD078
:1016D000B3F1205F6CD09FE07B6803F01F03012211
:1016E00002FA03F31A464FF00061F8684F4B98472F
:1016F0007B6803F01F03012202FA03F319463B68DB
:1017000003F001031A46F868494B984786E07B6866
:1017100003F01F03012202FA03F31A464FF080512F
:10172000F868424B98477B6803F01F03012202FAD6
:1017300003F319463B6803F001031A46F8683C4B73
:1017400098476BE07B6803F01F03012202FA03F362
:101750001A464FF0C051F868344B98477B6803F045
:101760001F03012202FA03F319463B6803F0010349
:101770001A46F8682E4B984750E07B6803F01F0329
:10178000012202FA03F31A464FF00051F868274B82
:1017900098477B6803F01F03012202FA03F31946FE
:1017A0003B6803F001031A46F868214B984735E07F
:1017B0007B6803F01F03012202FA03F33A6819461B
:1017C000F8681C4B984729E07B6803F01F0301224F
:1017D00002FA03F319463B6803F06053B3F1605F0C
:1017E0000CBF01230023DBB21A463B6803F004035D
:1017F000002B14BF01230023DBB218463B6803F023
:101800000103002B14BF01230023DBB20093034626
:10181000F868094CA04701E0002300E001231846C6
:101820001437BD4690BD00BF6919400053144000F5
:101830002914400061154000E115400090B587B0C3
:1018400002AFF860B9607A607B6803F0F043B3F1EF
:10185000005F43D0B3F1005F09D8B3F1805F1FD0C0
:10186000B3F1C05F2BD0B3F1006F0AD06DE0B3F1DC
:10187000405F48D0B3F1605F45D0B3F1205F3CD00A
:1018800063E0BA684FF00061F868334B98477B68B3
:1018900003F001031A46B968F868304B984756E0E0
:1018A000BA684FF08051F8682B4B98477B6803F07B
:1018B00001031A46B968F868284B984747E0BA68A8
:1018C0004FF0C051F868244B98477B6803F0010340
:1018D0001A46B968F868214B984738E0BA684FF063
:1018E0000051F8681C4B98477B6803F001031A46C7
:1018F000B968F868194B984729E07A68B968F868B8
:10190000174B984723E07B6803F06053B3F1605FA7
:101910000CBF01230023DBB21A467B6803F00403EB
:10192000002B14BF01230023DBB219467B6803F0B0
:101930000103002B14BF01230023DBB200930B46ED
:10194000B968F868074CA04701E0002300E00123D4
:1019500018461437BD4690BD53144000291440006A
:1019600061154000E115400080B485B000AF78609B
:101970007B685B0903F5001303F207735B02FB60EE
:10198000FB6818461437BD4680BC704780B584B0EC
:1019900000AF7860396078682C4B9847F8607868B9
:1019A0002B4B98470246FB681340FB60FB68002BFB
:1019B0003CD00023BB6034E0264ABB681B011344C3
:1019C0001A683B689A4226D1224ABB681B0113441D
:1019D00004331A68FB681340002B1CD01D4ABB68F7
:1019E0001B0113440C331B681A49BA6812010A44DC
:1019F00010681849BA6812010A4404321268114684
:101A00009847144ABB681B01134404331B68DB432B
:101A1000FA681340FB60BB680133BB60BB68062BF0
:101A200003D8FB68002BC7D100E000BF0A4B1B683E
:101A3000002B07D0094B1B68002B03D0074B1B68FA
:101A40007868984700BF1037BD4680BD5F164000DC
:101A50007516400078080020402D0020E80800207E
:101A600080B500AF0B210248024B984700BF80BDF4
:101A7000000E0E408D19400080B500AF0C210248C9
:101A8000024B984700BF80BD00100E408D194000EA
:101A900080B500AF0D210248024B984700BF80BDC2
:101AA00000120E408D19400080B485B000AF786000
:101AB0001C491C4B1B6B23F070027B6813430B63A8
:101AC0004FF40063FB6007E0FB68002B01D10123AA
:101AD00023E0FB68013BFB60124B9B6E03F00803A5
:101AE000002BF1D00F4A0F4B1B6B23F0030343F085
:101AF000020313634FF40063FB6007E0FB68002BF5
:101B000001D1012309E0FB68013BFB60054B9B6EA3
:101B100003F00803002BF1D0002318461437BD460C
:101B200080BC704700040E4080B483B000AF786082
:101B30007B68012B07D1084A074B9B6843F025437C
:101B400043F480139360044B044A1A6000BF0C37BF
:101B5000BD4680BC704700BF10140E40080000A5B1
:101B600080B400AF094B5B6903F08003002B07D002
:101B7000074B9B6E03F08003002B01D0012300E094
:101B800000231846BD4680BC704700BF10140E40AD
:101B900000040E4080B483B000AF7860184A184B40
:101BA0001B6A43F45C1343F00803136200BF144B39
:101BB0009B6E03F40033002BF9D01149104B1B6AC4
:101BC00023F45C1323F070037A68134343F45C132B
:101BD0000B6200BF0A4B9B6E03F40033002BF9D05D
:101BE000074A074B1B6A23F09B7323F4803343F4AB
:101BF0005C13136200BF0C37BD4680BC704700BF4A
:101C000000040E4080B483B000AF786039607B6818
:101C1000002B08D01649164B1B6A164A1A40164B61
:101C200013430B621EE01249114B1B6A23F45C1331
:101C300023F003033A68120292B2134343F45C1395
:101C400043F001030B6200BF094B9B6E03F00103DD
:101C5000002BF9D0064A064B1B6A43F09B7343F4F2
:101C60008033136200BF0C37BD4680BC704700BF95
:101C700000040E40FCFFC8FE0200370180B400AF34
:101C8000034B9B6E03F480331846BD4680BC7047FF
:101C900000040E4080B400AF034B4FF000529A6234
:101CA00000BFBD4680BC704700040E4080B400AF4A
:101CB000034B9B6E03F002031846BD4680BC704781
:101CC00000040E4080B400AF034B0022DA6200BF74
:101CD000BD4680BC704700BF00040E4080B400AF1A
:101CE000034B9B6E03F004031846BD4680BC70474F
:101CF00000040E4080B483B000AF78607B68222B74
:101D000001D901232FE07B681F2B13D8184B9A6948
:101D100001217B6801FA03F31A4001217B6801FA73
:101D200003F39A421ED0124A01217B6801FA03F3A1
:101D3000136117E07B68203B7B600D4BD3F80821D3
:101D400001217B6801FA03F31A4001217B6801FA43
:101D500003F39A4206D0064A01217B6801FA03F395
:101D6000C2F80031002318460C37BD4680BC7047CE
:101D700000040E4080B485B000AF78603960002365
:101D8000FB607B68AC221A603B681A683B685B6842
:101D9000B2FBF3F31B09FB60FB68002B03D0FB686D
:101DA000B3F5803F01D301230FE07B68FA681A6224
:101DB0003B689A687B685A607B6840F20222C3F8ED
:101DC00020217B6850221A60002318461437BD4634
:101DD00080BC704780B483B000AF78600B46FB7066
:101DE0007B685B6903F00203002B01D1012303E050
:101DF000FA787B68DA61002318460C37BD4680BC50
:101E0000704780B483B000AF786039607B685B69ED
:101E100003F00103002B01D1012305E07B689B69DE
:101E2000DAB23B681A70002318460C37BD4680BCF6
:101E3000704780B489B000AFF860B9607A60BB6861
:101E40001A017B689A4202D81023FB6101E0082343
:101E5000FB617B68DA00FB69B96801FB03F35B088F
:101E60001A44FB69B96801FB03F3B2FBF3F3BB61EE
:101E7000BB69DB087B61BB6903F007033B617B69DE
:101E8000002B03D07B69B3F5803F01D301230FE022
:101E9000FB69082B05D1FB685B6843F40022FB68F3
:101EA0005A603B691A047B691A43FB681A62002373
:101EB00018462437BD4680BC7047000080B582B00C
:101EC00000AF786078680F4B98477B6800225A60B3
:101ED0007B6800225A627B6800229A6278680A4B0B
:101EE00098477868094B98477868094B984778680D
:101EF000084B98477868084B984700BF0837BD469D
:101F000080BD00BF11214000B91F4000E91F400003
:101F100031204000652040004B20400080B584B057
:101F200000AFF860B9607A60F8681A4B98471A4BAE
:101F300000221A60BB68002B09D0BB681B687A6856
:101F40001946F868154B98470346002B01D001232A
:101F50001BE0BB685A68BB689B681A43BB681B6977
:101F60001A43BB68DB681A430B4B1B6813430A4ACE
:101F70001360094B1B68084A1360FB685A68064BDC
:101F80001B681A43FB685A60002318461037BD4689
:101F900080BD00BFBD1E4000EC080020331E400085
:101FA00080B483B000AF78607B6840221A6000BFC5
:101FB0000C37BD4680BC704780B483B000AF7860FA
:101FC0007B6888221A6000BF0C37BD4680BC704712
:101FD00080B483B000AF78607B6810221A6000BFC5
:101FE0000C37BD4680BC704780B483B000AF7860CA
:101FF0007B6824221A6000BF0C37BD4680BC704746
:1020000080B483B000AF786039607B683A689A60CA
:1020100000BF0C37BD4680BC704780B483B000AFB2
:1020200078607B681B6918460C37BD4680BC7047DA
:1020300080B483B000AF78607B684FF480721A6020
:1020400000BF0C37BD4680BC704780B483B000AF82
:1020500078607B684FF400321A6000BF0C37BD46D1
:1020600080BC704780B483B000AF78607B684FF469
:1020700000221A6000BF0C37BD4680BC704780B498
:1020800083B000AF786039607B685B6903F002035E
:10209000002B01D1012305E03B68C3F308027B68F4
:1020A000DA61002318460C37BD4680BC704780B407
:1020B00083B000AF786039607B685B6903F001032F
:1020C000002B01D1012306E07B689B69C3F3080262
:1020D0003B681A60002318460C37BD4680BC704729
:1020E00080B483B000AF7860396000BF7B685B6903
:1020F00003F00103002BF9D07B689B69C3F308024E
:102100003B681A60002318460C37BD4680BC7047F8
:1021100080B483B000AF78607B68044AC3F8E420E1
:1021200000BF0C37BD4680BC704700BF004153550F
:1021300080B483B000AF78607B684FF400425A608F
:1021400000BF0C37BD4680BC7047000080B584B02E
:1021500000AF274BFB60274BBB60FA68BB689A4215
:102160000DD907E0BB681A1DBA60FA68111DF96045
:1021700012681A60BB68204A9342F3D320E0FA68E1
:10218000BB689A421CD21C4A1A4BD31A7B60FA686D
:102190007B681344043BFB60BA687B681344043BD0
:1021A000BB600AE0BB681A1FBA60FA68111FF960C9
:1021B00012681A607B68043B7B607B68002BF1D15E
:1021C00000BF0E4BBB6004E0BB681A1DBA60002262
:1021D0001A60BB680A4A9342F6D30A4BFB600A4A6C
:1021E000FB689360094B9847094B9847FEE700BF8F
:1021F000A03E4000000000205408002054080020A9
:102200006C2D00200000400000ED00E0292A400075
:10221000BD25400080B400AFFEE7000080B400AFF1
:102220005D4B1B6B03F00303032B00F2968001A2AE
:1022300052F823F04522400065224000AF224000C2
:10224000AF224000554B5B6903F08003002B04D0A4
:10225000534B4FF400421A6080E0514B4FF4FA4266
:102260001A607BE04C4B1B6A03F08073002B03D099
:102270004B4B4C4A1A6071E0494B4B4A1A60464B33
:102280001B6A03F07003102B08D0202B0AD0002B00
:1022900000D00BE0424B444A1A6007E0404B434AEF
:1022A0001A6003E03E4B3F4A1A6000BF56E03A4BCB
:1022B0001B6A03F08073002B03D0394B394A1A6034
:1022C00019E0374B384A1A60334B1B6A03F070032E
:1022D000102B08D0202B0AD0002B00D00BE0304B65
:1022E000314A1A6007E02E4B304A1A6003E02C4B4B
:1022F0002C4A1A6000BF284B1B6B03F00303022B10
:1023000015D1254B9B6A1B0CC3F30A030133244AE6
:10231000126802FB03F3224A13601F4B9B6ADBB275
:102320001F4A1268B2FBF3F31D4A136016E01A4B02
:10233000DB6A1B0CC3F30A030133194A126802FB60
:1023400003F3174A1360144BDB6ADBB2144A1268BA
:10235000B2FBF3F3124A136000E000BF0E4B1B6B9D
:1023600003F07003702B08D10D4B1B68104AA2FBC1
:1023700003235B080A4A13600AE0074B1B6B1B0927
:1023800003F00703064A126822FA03F3044A1360B3
:1023900000BFBD4680BC704700040E4010140E40C4
:1023A0000C000020001BB70000093D0000127A005D
:1023B000ABAAAAAA80B483B000AF78607B68224A37
:1023C000934208D8214B4FF080621A60204B4FF0A7
:1023D00080621A6033E07B681E4A934206D81B4B2A
:1023E0001D4A1A601A4B1C4A1A6028E07B681B4A77
:1023F000934206D8154B1A4A1A60154B184A1A60B0
:102400001DE07B68174A934206D8104B164A1A60A3
:102410000F4B154A1A6012E07B68144A934208D8A1
:102420000A4B4FF004221A60094B4FF004221A6045
:1024300005E0064B0E4A1A60054B0D4A1A6000BFB4
:102440000C37BD4680BC7047FF2C3101000A0E409E
:10245000000C0E40FF59620200010004FF86930346
:1024600000020004FFB3C40400030004FFE0F5050C
:102470000005000480B485B000AF7860104BFB60AD
:10248000104B1B68002B02D10E4B0F4A1A600D4BEC
:102490001B68BB60BA687B681A44FB689A4202DD1D
:1024A0004FF0FF3306E0074B1A687B681344054A78
:1024B0001360BB6818461437BD4680BC704700BF28
:1024C000FC7F0220F0080020705D002080B483B003
:1024D00000AF78604FF0FF3318460C37BD4680BC24
:1024E000704780B483B000AF786039603B684FF4C8
:1024F00000525A60002318460C37BD4680BC704716
:1025000080B485B000AFF860B9607A6000231846E7
:102510001437BD4680BC704780B483B000AF78608C
:102520007B68072B25D801A252F823F04D254000E7
:1025300053254000592540005F2540006325400099
:10254000672540006B2540006F2540004FF4FA439B
:1025500010E04FF400430DE04FF400430AE0084B55
:1025600008E0084B06E0084B04E0074B02E0064B8E
:1025700000E0002318460C37BD4680BC704700BF02
:1025800000093D0000127A00001BB70080B500AFC3
:102590000620044B9847024613469B0013449B00B9
:1025A000184680BD1925400080B500AF024B984702
:1025B00003465B08184680BD8D254000F0B59BB0F2
:1025C00000AF3B1D642200211846454B9847454B00
:1025D0009847454B9847454B9847454B9847034686
:1025E00019464FF000020B461446DB1844EB040476
:1025F0005B1844EB0204660146EAD3665D015B1991
:1026000044EB06045B1844EB020443F2AF614FF065
:1026100000025D1844EB020628463146354C43F271
:10262000B0624FF00003A04703460C461846324BF9
:1026300098473B1D314A1C4615460FCD0FC40FCDA0
:102640000FC495E8070003C422800234130C2370E2
:102650003B1D18462A4B98473B1D2A4A1C461546E7
:102660000FCD0FC40FCD0FC495E8070003C422801F
:102670000234130C23703B1D1846214B98473B1D19
:102680001E4A1C4615460FCD0FC40FCD0FC495E84A
:10269000070003C422800234130C23703B1D18462C
:1026A000174B98473B1D184A184611464D231A46AA
:1026B000164B98473B1D1846114B9847144B9847AB
:1026C0003B1D144A1C4615460FCD0FC495E80F005C
:1026D00084E80F003B1D1846094B9847E2E700BF0E
:1026E0001D314000F10F400069134000F504400027
:1026F000A92540001927400001000020A83D400006
:1027000079054000D43D4000003E4000E92F4000E4
:10271000C9084000503E400053B94AB9002908BFDB
:1027200000281CBF4FF0FF314FF0FF3000F07AB9A6
:10273000ADF1080C6DE904CE00F006F8DDF804E018
:10274000DDE9022304B070472DE9F0478C460D46C1
:102750000446089E002B51D18A4217466DD9B2FA21
:1027600082FEBEF1000F0BD0CEF1200C01FA0EF567
:1027700020FA0CFC02FA0EF74CEA050C00FA0EF4F3
:102780004FEA174A250CBCFBFAF81FFA87F90AFB37
:1027900018CC45EA0C4508FB09F3AB420AD9ED1900
:1027A00008F1FF3280F02381AB4240F22081A8F192
:1027B00002083D44ED1AA4B2B5FBFAF00AFB10552D
:1027C00044EA054400FB09F9A14509D9E41900F1DF
:1027D000FF3380F00A81A14540F2078102383C4472
:1027E000A4EB090440EA08400021002E61D024FA3D
:1027F0000EF4002334607360BDE8F0878B4207D984
:10280000002E54D0002186E821000846BDE8F0875C
:10281000B3FA83F1002940F08E80AB4202D38242AA
:1028200000F2FA80841A65EB03050120AC46002E05
:102830003FD086E81010BDE8F08712B90127B7FB3A
:10284000F2F7B7FA87FEBEF1000F34D1EB1B3A0C5A
:102850001FFA87FC0121B3FBF2F8250C02FB1833A9
:1028600045EA03450CFB08F3AB4207D9ED1908F123
:10287000FF3002D2AB4200F2D1808046ED1AA3B203
:10288000B5FBF2F002FB105543EA05440CFB00FCDB
:10289000A44507D9E41900F1FF3302D2A44500F2A0
:1028A000B8801846A4EB0C0440EA08409DE7314686
:1028B0003046BDE8F087CEF1200405FA0EF307FAA2
:1028C0000EF720FA04F83A0C25FA04F448EA030853
:1028D000B4FBF2F14FEA184502FB11441FFA87FCE2
:1028E00045EA044501FB0CF3AB4200FA0EF409D9AA
:1028F000ED1901F1FF3080F08A80AB4240F2878011
:1029000002393D44EB1A1FFA88F5B3FBF2F002FBE3
:10291000103345EA034500FB0CF3AB4207D9ED1930
:1029200000F1FF386FD2AB426DD902383D44EB1A4B
:1029300040EA01418FE7C1F1200722FA07F88B40F6
:1029400005FA01F448EA030320FA07FE4FEA134CA4
:10295000FD404EEA040EB5FBFCF94FEA1E440CFBA9
:1029600019551FFA83F844EA054509FB08F4AC42FF
:1029700002FA01F200FA01FA08D9ED1809F1FF3064
:1029800043D2AC4241D9A9F102091D442D1B1FFAC3
:102990008EFEB5FBFCF00CFB10554EEA054400FB27
:1029A00008F8A04507D9E41800F1FF3529D2A04561
:1029B00027D902381C4440EA0940A4EB0804A0FBD4
:1029C00002894C45C6464D4615D312D056B1BAEBD6
:1029D0000E0364EB050404FA07F7CB401F43CC4019
:1029E000376074600021BDE8F0871846F8E690462D
:1029F000E0E6C245EAD2B8EB020E69EB0305013806
:102A0000E4E72846D7E7404691E78146BEE701461E
:102A100078E702383C4445E7084608E7A8F1020891
:102A20003D442BE7704700BF70B50F4E0F4D761B2E
:102A3000B61018BF002405D0013455F8043B984760
:102A4000A642F9D10A4E0B4D761B01F013FAB610CF
:102A500018BF002406D0013455F8043B9847A6421D
:102A6000F9D170BD70BD00BF803E4000803E400087
:102A7000883E4000803E4000024B0146186800F04E
:102A800003B800BF100000202DE9F04F01F10B0644
:102A9000162E83B0054640F29E8036F0070600F100
:102AA000BD80B14200F2BA8000F086FBB6F5FC7F33
:102AB000C0F09382730A00F0B880042B00F2798191
:102AC000B30903F1390003F1380EC300BF4F3B4493
:102AD000A3F108015C68A14206D10CE0002A80F253
:102AE000AA80E468A14206D0636823F003039A1B1E
:102AF0000F2AF3DD70463C69DFF8E4E2744500F02C
:102B0000AB81636823F003039A1B0F2A00F39081C3
:102B1000002AC7F814E0C7F810E080F29D80B3F5F2
:102B2000007F80F06181DB0803F1010C99107A6865
:102B300057F83C80C4F8088001238B4007EBCC0198
:102B400013430839E1607B6047F83C40C8F80C400B
:102B50008210012494409C4200F28B801C4206D1DA
:102B600020F0030064001C4200F10400FAD007EBDF
:102B7000C009CC468046DCF80C309C4507D16DE19D
:102B8000002A80F27B81DB689C4500F067815968F0
:102B900021F003018A1B0F2AF2DDD3F80CC0D3F811
:102BA000088000939C19284646F0010642F0010572
:102BB0005E60C8F80CC0CCF808807C613C61C4F849
:102BC0000CE0C4F808E065605A5000F0FBFA009B86
:102BD00003F108041EE0102920D800F0EDFA1026B9
:102BE00018230220794F3B44A3F108025C68944209
:102BF00000F03D816368E168A66823F00303234485
:102C000028465A68F16042F001028E605A6000F076
:102C1000D9FA0834204603B0BDE8F08F00240C2315
:102C200020462B6003B0BDE8F08F40204FF40073C6
:102C30004FF03F0E4AE72344E1685A68A66842F025
:102C40000102F16028468E605A6000F0BBFA083439
:102C5000204603B0BDE8F08F234428465A6842F06E
:102C600001025A6000F0AEFA0834204603B0BDE815
:102C7000F08FBC68636823F00308B04504D3A8EB69
:102C800006030F2B00F38580DFF85891504BD9F8DD
:102C900000201B680132334404EB080A00F0558120
:102CA00003F580530F3323F47F6B2BF00F0B594642
:102CB000284600F08DFA411C024600F0FC80824557
:102CC00000F2F780434B19685944196000F04D81B8
:102CD000D9F8000001301BBFA2EB0A0A5144C9F821
:102CE0000020196012F0070100F01581C1F1080001
:102CF000C1F580510244083102EB0B09C9F30B09FD
:102D0000A1EB0909494628460193009200F060FAB8
:102D1000431C9DE80C0000F04381801A484440F0B9
:102D200001001968BA604944BC425060196017D06C
:102D3000B8F10F0F40F2FB806068A8F10C0222F09E
:102D4000070204EB020E00F001004FF0050C1043E7
:102D50000F2A6060CEF804C0CEF808C000F21781D8
:102D60001D4BBC681A68914288BF19601B4B1A68DA
:102D70009142626888BF196022F003029642A2EB7A
:102D8000060301D80F2B04DC284600F01BFA0024B0
:102D900040E7A21943F0010346F0010666602846A9
:102DA000BA60536000F00EFA0834204603B0BDE864
:102DB000F08F142B71D9542B00F2A380330B03F145
:102DC0006F0003F16E0EC30080E600BF40040020D8
:102DD00024090020F40800201C09002020090020FC
:102DE00048040020480800205A0A042A5BD9142A03
:102DF00000F2AE8002F15C01C9005B3207EB010C0E
:102E00007958ACF1080C8C4500F088804A6822F0B3
:102E10000302934273D289688C45F7D1DCF80C2009
:102E20007B68E260C4F808C09460CCF80C408FE680
:102E3000A11946F0010C42F00106C4F804C028466E
:102E400079613961C1F80CE0C1F808E04E60E250E8
:102E500000F0B8F90834DDE67B6879E608F101088E
:102E600018F0030F0CF1080C7FF485AE2DE0DC6840
:102E7000A34208BF02303FF43EAEBBE619441C46F5
:102E80004A68DB6854F8086F42F001024A6028463D
:102E9000F3609E6000F096F9BCE603F15C0003F17C
:102EA0005B0EC30012E69A0902F13901C9003832FB
:102EB000A4E7BC4254D0BC68626822F003025DE71C
:102EC00059F80839994540F0868010F0030F00F159
:102ED000FF30F5D17B6823EA04037B6064009C42E9
:102EE0003FF6C7AE002C3FF4C4AE1C4240467FF410
:102EF0003EAE64001C4200F10400FAD037E68C4676
:102F00008CE7B3F5AA7F15D8F30B03F1780003F132
:102F1000770EC300DAE54FF48051EDE67B6892103E
:102F2000012101FA02F213437B60624679E7012333
:102F3000536029E740F25452934222D8B30C03F174
:102F40007D0003F17C0EC300C0E503F1100BAEE67B
:102F5000542A29D81A0B02F16F01C9006E324DE7CD
:102F6000204B196859441960B2E6CAF30B000028D7
:102F70007FF4AEAE08EB0B03BA6843F00103536075
:102F8000EEE67F204FF47E734FF07E0E9EE504F157
:102F900008012846009300F02BFC009B1968DFE62F
:102FA00001204FF00009BCE6B2F5AA7F05D8DA0B84
:102FB00002F17801C900773220E740F254518A4289
:102FC00005D89A0C02F17D01C9007C3216E74FF456
:102FD0007E717E2212E77B6880E7F00806F1080325
:102FE00000E600BFF4080020844641EA000313F025
:102FF00003036DD1403A41D351F8043B40F8043B00
:1030000051F8043B40F8043B51F8043B40F8043BC2
:1030100051F8043B40F8043B51F8043B40F8043BB2
:1030200051F8043B40F8043B51F8043B40F8043BA2
:1030300051F8043B40F8043B51F8043B40F8043B92
:1030400051F8043B40F8043B51F8043B40F8043B82
:1030500051F8043B40F8043B51F8043B40F8043B72
:1030600051F8043B40F8043B51F8043B40F8043B62
:1030700051F8043B40F8043B403ABDD2303211D302
:1030800051F8043B40F8043B51F8043B40F8043B42
:1030900051F8043B40F8043B51F8043B40F8043B32
:1030A000103AEDD20C3205D351F8043B40F8043B02
:1030B000043AF9D2043208D0D2071CBF11F8013B00
:1030C00000F8013B01D30B8803806046704700BFC6
:1030D000082A13D38B078DD010F003038AD0C3F1D5
:1030E0000403D21ADB071CBF11F8013B00F8013BB7
:1030F00080D331F8023B20F8023B7BE7043AD9D376
:10310000013A11F8013B00F8013BF9D20B7803704A
:103110004B7843708B7883706046704770B4860735
:1031200046D0541E002A41D0CAB2034602E014F130
:10313000FF343BD303F8012B9D07F8D1032C2ED984
:10314000CDB245EA05250F2C45EA054519D903F10D
:1031500010022646103E0F2E42F8105C42F80C5C1E
:1031600042F8085C42F8045C02F11002F2D8A4F1C3
:10317000100222F00F0204F00F041032032C13444B
:103180000DD91E462246043A032A46F8045BFAD8B3
:10319000221F22F003020432134404F003042CB172
:1031A000C9B21C4403F8011B9C42FBD170BC7047A0
:1031B00014460346C2E700BF014800F02DBC00BF23
:1031C000542D0020014800F029BC00BF542D0020E0
:1031D00038B5074C0023054608462360FFF74AF937
:1031E000431C00D038BD2368002BFBD02B6038BDBA
:1031F000682D002000290CBF022200224FF48063BA
:1032000000F000B82DE9F043614C256883B0044616
:103210000F4690461E4615B1AB6B002B64D0B8F13B
:10322000020F06D0B8F1010F00F29F80002EC0F20D
:103230009C80636ED80734D52146284600F0DEF91D
:10324000216B41B104F14003994202D0284600F0BD
:10325000CFFA00232363B4F90C300022A26162602C
:103260001A063AD423F44A6323F00303B8F1020F99
:10327000A3811DD001AB6A462146284600F0D0FB51
:10328000A3891843A081002E32D1009E3046FFF75B
:10329000F3FB074600286BD0A38943F08003A3818A
:1032A00028E0A3899905C7D4A06D00F0B5FBC3E75A
:1032B0000025616E002604F1430243F00203012061
:1032C000A660CE07A38122602261606101D49805C7
:1032D0003ED5284603B0BDE8F0832169284600F0BA
:1032E00087FAB4F90C30BDE7284600F0DFF996E71D
:1032F000002FCBD0AB6B002B33D0009BB4F90C204C
:1033000027609E421CBF42F40062A281B8F1010F07
:1033100004BF42F00102A28192B212F008032761B9
:1033200066610ED0D1071AD5656E7642002315F07E
:103330000105A661A36009D00025284603B0BDE8B9
:10334000F083A360656E15F00105F5D19305C0D437
:10335000A06D00F063FB284603B0BDE8F083A660D3
:10336000F0E7284600F0A2F9C7E74FF0FF35B0E7D5
:10337000DDF80090B14504D04846FFF77DFB0746D5
:1033800020B9B4F90C304FF0FF3592E74E4683E791
:1033900010000020000000000000000000000000FD
:1033A000000000000000000000000000000000001D
:1033B000000000000000000000000000000000000D
:1033C00090F800F06DE9024520F007016FF0000C65
:1033D00010F0070491F820F040F049804FF000040D
:1033E0006FF00700D1E9002391F840F000F10800E8
:1033F00082FA4CF2A4FA8CF283FA4CF3A2FA8CF320
:103400004BBBD1E9022382FA4CF200F10800A4FA86
:103410008CF283FA4CF3A2FA8CF3E3B9D1E90423DA
:1034200082FA4CF200F10800A4FA8CF283FA4CF311
:10343000A2FA8CF37BB9D1E9062301F1200182FACB
:103440004CF200F10800A4FA8CF283FA4CF3A2FAD1
:103450008CF3002BC6D0002A04BF04301A4612BADF
:10346000B2FA82F2FDE8024500EBD2007047D1E9E2
:10347000002304F00305C4F100004FEAC50514F071
:10348000040F91F840F00CFA05F562EA05021CBF42
:1034900063EA050362464FF00004A9E7024B13B14B
:1034A000024800F005B87047000000001D374000DA
:1034B000002301461A46184600F03ABBB1F90C3019
:1034C0009AB22DE9F0410D46110780463AD46A6858
:1034D00043F40063002AAB816FDDAC6A002C49D055
:1034E00000229BB2D8F80060C8F8002013F4805284
:1034F00067D02A6D5F0705D569682B6B521A0BB12F
:10350000EB6BD21A0023E9694046A047441C3CD02B
:10351000B5F90C302A692A6023F400630022AB81DC
:10352000DB046A6047D4296BC8F8006011B305F169
:103530004003994202D0404600F05AF90020286327
:10354000BDE8F0812E69AEB12C682E6091070CBFEA
:103550006B690023A41BAB600AE0234632466F6A06
:10356000E9694046B8470028A4EB0004064404DD9E
:10357000002CF2DC0020BDE8F081AB8943F0400371
:10358000AB814FF0FF30BDE8F081D8F800401D2C32
:10359000F3D8194BE340DB4313F00103EDD1B5F948
:1035A0000C206B6022F400632969AB81DA04296086
:1035B000B9D5002CB7D12865B5E7EA6B002A8CDCB9
:1035C000D8E70123E9694046A047431C024602D0E0
:1035D000AB89AC6A8EE7D8F80030002BF8D01D2BF1
:1035E00001D0162B02D1C8F80060C3E7AB8943F0C5
:1035F0004003AB81BDE8F0810100402038B50D46A5
:10360000044608B1836BBBB1B5F90C0088B16B6E91
:10361000DB0701D4810517D520462946FFF74EFF69
:103620006B6EDA07044602D4AB899B0507D52046AA
:1036300038BD0446204638BD00F038F8E4E7A86DF0
:1036400000F0ECF9204638BDA86D00F0E5F9E3E79D
:10365000014900F0B3B900BF193C400010B5002388
:1036600004468181C28103604360836043660361D5
:1036700043618361194608225C30FFF74FFD07481C
:103680000749084A084B2062E4616162A262E36272
:1036900004F15800BDE8104000F0BAB97D3A40008E
:1036A000A13A4000DD3A4000FD3A400010B5044622
:1036B000124800F0B1F9A26BD2B904F53B7310487F
:1036C000C4F8E8320321C4F8E022E063C4F8E4124D
:1036D00060680421FFF7C2FF01220921A068FFF7FB
:1036E000BDFF02221221E068FFF7B8FF0123A363A8
:1036F0000248BDE8104000F091B900BF502D0020F5
:1037000051364000014800F087B900BF642D002009
:10371000014800F083B900BF642D002038B50A4C81
:103720000A4D641BA4100AD004F18043013B05EB51
:103730008305013C55F804399847002CF9D1BDE8C0
:10374000384000F0A1BB00BF983E4000943E4000CE
:10375000F8B5244F0C460646FFF72EFDBB685D68A2
:10376000C4F57E610F3125F00305294421F47F6102
:1037700021F00F01A1F58054B4F5805F07DB002133
:103780003046FFF725FDBB682B44984204D03046F5
:10379000FFF718FD0020F8BD61423046FFF718FD25
:1037A00001300DD0104BBA6819682D1B45F001058A
:1037B0003046091B55601960FFF704FD0120F8BD74
:1037C00000213046FFF704FDBA68831A0F2BDEDDB7
:1037D000064C0549246843F00103001B5360086050
:1037E000D5E700BF40040020F4080020480800206E
:1037F000002944D02DE9F0410D468046FFF7DCFC5E
:1038000055F8047C694927F00103A5F10804E21882
:103810008E685068B24220F003005ED0FE07506010
:103820000BD455F8087CE41B01F1080EA56875451A
:103830003B446DD0E768EF60BD6015186D68ED071B
:103840003ED543F001026260E350B3F5007F17D22A
:10385000DB08581C9A104D6851F83070A76001239E
:10386000934001EBC0022B43083AE2604B6041F801
:103870003040FC604046BDE8F041FFF7A3BC704714
:103880005A0A042A52D89A0902F13907FF0002F1B4
:103890003805C819CA59083890424FD0516821F0EC
:1038A00003018B4232D292689042F7D1C368A06084
:1038B000E3609C60C4604046BDE8F041FFF782BC15
:1038C00095683B4FBD42034440D0D068E86043F068
:1038D000010285606260E350B7E7FF07034407D445
:1038E00055F8082CA41A1344A068E268C2609060DE
:1038F000304A126843F00100934260608C60B9D393
:103900002D4B40461968FFF723FFB3E71046CDE77C
:1039100011184968C90744D49168D268CA60034441
:1039200043F0010091606060E350A3E7142A16D8C9
:1039300002F15C07FF0002F15B05AAE7AA10012370
:103940004D6893402B434B600346B0E743F00102C0
:103950004C610C61E560A5606260E3508AE7542A1F
:1039600006D81A0B02F16F07FF0002F16E0590E70F
:10397000B2F5AA7F06D8DA0B02F17807FF0002F150
:10398000770586E740F25450824206D89A0C02F13D
:103990007D07FF0002F17C057BE74FF47E777E25F3
:1039A00077E743F001016160136063E740040020A2
:1039B000480400204C080020240900202DE9F84389
:1039C00010F538771FD0884606464FF000097D680D
:1039D000BC68013D11D4A389012B05F1FF3508D93D
:1039E000B4F90E3001332146304602D0C04749EACF
:1039F00000096B1C04F16804EDD13F68002FE6D18B
:103A00004846BDE8F883B9464846BDE8F88300BF9C
:103A1000704700BF704700BF704700BF704700BFCE
:103A200070B50C46B1F90E10002990B015461E462F
:103A300014DB01AA00F052F900280FDB029A02F40D
:103A40007042A2F50052B2FA82F252094FF480633A
:103A50004FF4006032602B6010B070BDA28900236B
:103A600012F08000336004D0402218462A6010B063
:103A700070BD4FF480632B6010B070BD10B50C4664
:103A8000B1F90E1000F054F9002803DB236D034454
:103A9000236510BDA38923F48053A38110BD00BF0B
:103AA0002DE9F0411646B1F90C201F46D3050C460E
:103AB000054607D500220223B1F90E1000F022F9C5
:103AC000B4F90C20B4F90E1022F48052A2813B46C6
:103AD00032462846BDE8F04100F014B810B50C4657
:103AE000B1F90E1000F00EF9A389421C0EBF23F4A9
:103AF000805343F480532065A38110BDB1F90E10AB
:103B000000F078B870B50D46084C114606461A46C6
:103B1000284600232360FDF7CDFA431C00D070BD7A
:103B20002368002BFBD0336070BD00BF682D0020E0
:103B30002DE9F8432C4D0646286898460F469146D5
:103B4000FFF76AFF294B1C68D4F84831002B3ED0A0
:103B50005A681F2A1CDC02F1010E76B103EB8201C8
:103B60000124C1F88890D3F8880194402043022EA4
:103B7000C3F88801C1F8088123D00232C3F804E0F9
:103B8000286843F82270FFF749FF0020BDE8F8835A
:103B9000174B0BB34FF4C870FEF76EFF0346D8B156
:103BA000D4F848210260002141600A46C4F8480167
:103BB0004FF0010EC0F88811C0F88C11002EDCD037
:103BC000CCE7D3F88C110C43C3F88C41D5E704F54E
:103BD000A673C4F84831BBE72868FFF71FFF4FF012
:103BE000FF30BDE8F88300BF50080020703E400061
:103BF000792A400038B5074C002305460846236063
:103C0000FEF764FC431C00D038BD2368002BFBD0BA
:103C10002B6038BD682D002070B559B105460C46A3
:103C200010B1836B002B3CD0636ED80705D5B4F977
:103C30000C302BB90026304670BDA38999053CD5C0
:103C400021462846FFF73AFCE36A064633B1E169AC
:103C5000284698470028B8BF4FF0FF36A3891A06B8
:103C600022D4216B41B104F14003994202D028468D
:103C7000FFF7BEFD00232363616C21B12846FFF7E7
:103C8000B7FD00236364FFF73DFD636E0022DB0791
:103C9000A2810ED5A06DFFF7BDFEFFF739FD3046BE
:103CA00070BDFFF703FDBFE721692846FFF7A0FDC0
:103CB000D7E7A06DFFF7B2FEECE7A06DFFF7ACFE13
:103CC000B4F90C30002BBBD1666E16F00106B1D1F1
:103CD000A06DFFF7A3FE304670BD00BF38B50B46A0
:103CE000074C05461146184600232360FEF7F9FBF2
:103CF000431C00D038BD2368002BFBD02B6038BD9F
:103D0000682D002070B50D46084C114606461A462F
:103D1000284600232360FEF7F3FB431C00D070BD50
:103D20002368002BFBD0336070BD00BF682D0020DE
:103D300070B50D46084C114606461A462846002323
:103D40002360FDF78DF9431C00D070BD2368002B64
:103D5000FBD0336070BD00BF682D002000C20100A1
:103D6000C000000000080000000000000A0D4669C5
:103D7000726D776172652075706461746564210D80
:103D80000A0000004A756D70696E6720746F2075B7
:103D9000736572206170706C69636174696F6E2EF7
:103DA0002E2E0D0A000000003D3D3D3D3D3D3D3DB8
:103DB0003D3D3D3D3D3D3D3D3D3D3D3D3D3D3D3D33
:103DC0003D3D3D3D3D3D3D3D3D3D3D3D3D3D3D3D23
:103DD0000D0A00003D2020415453414D34532046EC
:103DE00069726D77617265205570646174652042F7
:103DF0006F6F746C6F6164657220203D0D0A000066
:103E0000506C656173652073656E642061206E651A
:103E1000772062696E6172792066696C65207769C6
:103E2000746820586D6F64656D2070726F746F6375
:103E30006F6C20746F2075706461746520746865A0
:103E4000206669726D776172652E0D0A00000000B0
:103E50000D0A4661696C65642E2E2E20506C6561DA
:103E600073652074727920616761696E2E0D0A0096
:103E700018000020F8B500BFF8BC08BC9E4670478B
:103E80009D344000F1004000F8B500BFF8BC08BC0C
:083E90009E467047CD00400082
:083E9800B0E8FF7F010000000B
:103EA000BFF35F8F0138FBD17047010000093D006F
:103EB00018000020000000000000000004030020A3
:103EC0006C030020D403002000000000000000006C
:103ED00000000000000000000000000000000000E2
:103EE00000000000000000000000000000000000D2
:103EF00000000000000000000000000000000000C2
:103F000000000000000000000000000000000000B1
:103F100000000000000000000000000000000000A1
:103F20000000000000000000000000000000000091
:103F30000000000000000000000000000000000081
:103F40000000000000000000000000000000000071
:103F50000000000000000000000000000000000061
:103F600001000000000000000E33CDAB34126DE6FE
:103F7000ECDE05000B000000000000000000000067
:103F80000000000000000000000000000000000031
:103F90000000000000000000000000000000000021
:103FA0000000000000000000000000000000000011
:103FB0000000000000000000000000000000000001
:1042E0000000000000000000400400204004002006
:1042F00048040020480400205004002050040020FE
:1043000058040020580400206004002060040020AD
:10431000680400206804002070040020700400205D
:10432000780400207804002080040020800400200D
:1043300088040020880400209004002090040020BD
:104340009804002098040020A0040020A00400206D
:10435000A8040020A8040020B0040020B00400201D
:10436000B8040020B8040020C0040020C0040020CD
:10437000C8040020C8040020D0040020D00400207D
:10438000D8040020D8040020E0040020E00400202D
:10439000E8040020E8040020F0040020F0040020DD
:1043A000F8040020F804002000050020000500208B
:1043B0000805002008050020100500201005002039
:1043C00018050020180500202005002020050020E9
:1043D0002805002028050020300500203005002099
:1043E0003805002038050020400500204005002049
:1043F00048050020480500205005002050050020F9
:1044000058050020580500206005002060050020A8
:104410006805002068050020700500207005002058
:104420007805002078050020800500208005002008
:1044300088050020880500209005002090050020B8
:104440009805002098050020A0050020A005002068
:10445000A8050020A8050020B0050020B005002018
:10446000B8050020B8050020C0050020C0050020C8
:10447000C8050020C8050020D0050020D005002078
:10448000D8050020D8050020E0050020E005002028
:10449000E8050020E8050020F0050020F0050020D8
:1044A000F8050020F8050020000600200006002086
:1044B0000806002008060020100600201006002034
:1044C00018060020180600202006002020060020E4
:1044D0002806002028060020300600203006002094
:1044E0003806002038060020400600204006002044
:1044F00048060020480600205006002050060020F4
:1045000058060020580600206006002060060020A3
:104510006806002068060020700600207006002053
:104520007806002078060020800600208006002003
:1045300088060020880600209006002090060020B3
:104540009806002098060020A0060020A006002063
:10455000A8060020A8060020B0060020B006002013
:10456000B8060020B8060020C0060020C0060020C3
:10457000C8060020C8060020D0060020D006002073
:10458000D8060020D8060020E0060020E006002023
:10459000E8060020E8060020F0060020F0060020D3
:1045A000F8060020F8060020000700200007002081
:1045B000080700200807002010070020100700202F
:1045C00018070020180700202007002020070020DF
:1045D000280700202807002030070020300700208F
:1045E000380700203807002040070020400700203F
:1045F00048070020480700205007002050070020EF
:10460000580700205807002060070020600700209E
:10461000680700206807002070070020700700204E
:1046200078070020780700208007002080070020FE
:1046300088070020880700209007002090070020AE
:104640009807002098070020A0070020A00700205E
:10465000A8070020A8070020B0070020B00700200E
:10466000B8070020B8070020C0070020C0070020BE
:10467000C8070020C8070020D0070020D00700206E
:10468000D8070020D8070020E0070020E00700201E
:10469000E8070020E8070020F0070020F0070020CE
:1046A000F8070020F807002000080020000800207C
:1046B000080800200808002010080020100800202A
:1046C00018080020180800202008002020080020DA
:1046D000280800202808002030080020300800208A
:1046E0003808002038080020FFFFFFFF000002000C
:0446F000442D002035
:040000050040214D49
:00000001FF
